
MUIM.elf:     file format elf32-littlearm

Sections:
Idx Name          Size      VMA       LMA       File off  Algn
  0 .isr_vector   0000010c  08000000  08000000  00010000  2**0
                  CONTENTS, ALLOC, LOAD, READONLY, DATA
  1 .text         00009830  0800010c  0800010c  0001010c  2**2
                  CONTENTS, ALLOC, LOAD, READONLY, CODE
  2 .rodata       000006cc  0800993c  0800993c  0001993c  2**2
                  CONTENTS, ALLOC, LOAD, READONLY, DATA
  3 .ARM.extab    00000000  0800a008  0800a008  000201e8  2**0
                  CONTENTS
  4 .ARM          00000000  0800a008  0800a008  000201e8  2**0
                  CONTENTS
  5 .preinit_array 00000000  0800a008  0800a008  000201e8  2**0
                  CONTENTS, ALLOC, LOAD, DATA
  6 .init_array   00000004  0800a008  0800a008  0001a008  2**2
                  CONTENTS, ALLOC, LOAD, DATA
  7 .fini_array   00000004  0800a00c  0800a00c  0001a00c  2**2
                  CONTENTS, ALLOC, LOAD, DATA
  8 .data         000001e8  20000000  0800a010  00020000  2**2
                  CONTENTS, ALLOC, LOAD, DATA
  9 .bss          00001464  200001e8  0800a1f8  000201e8  2**2
                  ALLOC
 10 ._user_heap_stack 00000604  2000164c  0800a1f8  0002164c  2**0
                  ALLOC
 11 .ARM.attributes 00000029  00000000  00000000  000201e8  2**0
                  CONTENTS, READONLY
 12 .debug_info   00012007  00000000  00000000  00020211  2**0
                  CONTENTS, READONLY, DEBUGGING, OCTETS
 13 .debug_abbrev 000032ef  00000000  00000000  00032218  2**0
                  CONTENTS, READONLY, DEBUGGING, OCTETS
 14 .debug_aranges 00000f20  00000000  00000000  00035508  2**3
                  CONTENTS, READONLY, DEBUGGING, OCTETS
 15 .debug_ranges 00000da8  00000000  00000000  00036428  2**3
                  CONTENTS, READONLY, DEBUGGING, OCTETS
 16 .debug_macro  0001b25e  00000000  00000000  000371d0  2**0
                  CONTENTS, READONLY, DEBUGGING, OCTETS
 17 .debug_line   000148e1  00000000  00000000  0005242e  2**0
                  CONTENTS, READONLY, DEBUGGING, OCTETS
 18 .debug_str    0008d602  00000000  00000000  00066d0f  2**0
                  CONTENTS, READONLY, DEBUGGING, OCTETS
 19 .comment      00000050  00000000  00000000  000f4311  2**0
                  CONTENTS, READONLY
 20 .debug_frame  00004090  00000000  00000000  000f4364  2**2
                  CONTENTS, READONLY, DEBUGGING, OCTETS

Disassembly of section .text:

0800010c <__do_global_dtors_aux>:
 800010c:	b510      	push	{r4, lr}
 800010e:	4c05      	ldr	r4, [pc, #20]	; (8000124 <__do_global_dtors_aux+0x18>)
 8000110:	7823      	ldrb	r3, [r4, #0]
 8000112:	b933      	cbnz	r3, 8000122 <__do_global_dtors_aux+0x16>
 8000114:	4b04      	ldr	r3, [pc, #16]	; (8000128 <__do_global_dtors_aux+0x1c>)
 8000116:	b113      	cbz	r3, 800011e <__do_global_dtors_aux+0x12>
 8000118:	4804      	ldr	r0, [pc, #16]	; (800012c <__do_global_dtors_aux+0x20>)
 800011a:	f3af 8000 	nop.w
 800011e:	2301      	movs	r3, #1
 8000120:	7023      	strb	r3, [r4, #0]
 8000122:	bd10      	pop	{r4, pc}
 8000124:	200001e8 	.word	0x200001e8
 8000128:	00000000 	.word	0x00000000
 800012c:	08009924 	.word	0x08009924

08000130 <frame_dummy>:
 8000130:	b508      	push	{r3, lr}
 8000132:	4b03      	ldr	r3, [pc, #12]	; (8000140 <frame_dummy+0x10>)
 8000134:	b11b      	cbz	r3, 800013e <frame_dummy+0xe>
 8000136:	4903      	ldr	r1, [pc, #12]	; (8000144 <frame_dummy+0x14>)
 8000138:	4803      	ldr	r0, [pc, #12]	; (8000148 <frame_dummy+0x18>)
 800013a:	f3af 8000 	nop.w
 800013e:	bd08      	pop	{r3, pc}
 8000140:	00000000 	.word	0x00000000
 8000144:	200001ec 	.word	0x200001ec
 8000148:	08009924 	.word	0x08009924

0800014c <main>:
/**
  * @brief  The application entry point.
  * @retval int
  */
int main(void)
{
 800014c:	b580      	push	{r7, lr}
 800014e:	b092      	sub	sp, #72	; 0x48
 8000150:	af00      	add	r7, sp, #0
  /* USER CODE END 1 */

  /* MCU Configuration--------------------------------------------------------*/

  /* Reset of all peripherals, Initializes the Flash interface and the Systick. */
  HAL_Init();
 8000152:	f000 fe9d 	bl	8000e90 <HAL_Init>
  /* USER CODE BEGIN Init */

  /* USER CODE END Init */

  /* Configure the system clock */
  SystemClock_Config();
 8000156:	f000 f9a9 	bl	80004ac <SystemClock_Config>
  /* USER CODE BEGIN SysInit */

  /* USER CODE END SysInit */

  /* Initialize all configured peripherals */
  MX_GPIO_Init();
 800015a:	f000 fa71 	bl	8000640 <MX_GPIO_Init>
  MX_ADC1_Init();
 800015e:	f000 fa03 	bl	8000568 <MX_ADC1_Init>
  MX_I2C1_Init();
 8000162:	f000 fa3f 	bl	80005e4 <MX_I2C1_Init>
  MX_USB_DEVICE_Init();
 8000166:	f008 fabb 	bl	80086e0 <MX_USB_DEVICE_Init>
 // }
 // else{
	 // DP_UP=0;
  //}

  ssd1306_Init();
 800016a:	f000 fc6d 	bl	8000a48 <ssd1306_Init>
  /* USER CODE END 2 */

  /* Infinite loop */
  /* USER CODE BEGIN WHILE */

  int xDP=0;
 800016e:	2300      	movs	r3, #0
 8000170:	647b      	str	r3, [r7, #68]	; 0x44
  int yDP=0;
 8000172:	2300      	movs	r3, #0
 8000174:	643b      	str	r3, [r7, #64]	; 0x40
  int zDP=0;
 8000176:	2300      	movs	r3, #0
 8000178:	63fb      	str	r3, [r7, #60]	; 0x3c

  int pxDP=0;
 800017a:	2300      	movs	r3, #0
 800017c:	62bb      	str	r3, [r7, #40]	; 0x28
  int pyDP=0;
 800017e:	2300      	movs	r3, #0
 8000180:	63bb      	str	r3, [r7, #56]	; 0x38
  int pzDP=0;
 8000182:	2300      	movs	r3, #0
 8000184:	637b      	str	r3, [r7, #52]	; 0x34

  uint8_t MENU=0;
 8000186:	2300      	movs	r3, #0
 8000188:	f887 3033 	strb.w	r3, [r7, #51]	; 0x33

  uint32_t STARTTIME = HAL_GetTick();
 800018c:	f000 fed8 	bl	8000f40 <HAL_GetTick>
 8000190:	6278      	str	r0, [r7, #36]	; 0x24
  uint32_t ONTIME = STARTTIME;
 8000192:	6a7b      	ldr	r3, [r7, #36]	; 0x24
 8000194:	62fb      	str	r3, [r7, #44]	; 0x2c
  uint32_t TIMER = STARTTIME;
 8000196:	6a7b      	ldr	r3, [r7, #36]	; 0x24
 8000198:	623b      	str	r3, [r7, #32]

  while (1)  {

	  ssd1306_Fill(Black);//Clean screen
 800019a:	2000      	movs	r0, #0
 800019c:	f000 fcbe 	bl	8000b1c <ssd1306_Fill>
	  char TEXTLINE[22];
	  //sprintf(TEXTLINE, "XDP=%d; YDP=%d; ZDP=%d", xDP,yDP,zDP);
	  TEXTLINE[0] = '\0';
 80001a0:	2300      	movs	r3, #0
 80001a2:	713b      	strb	r3, [r7, #4]
	  sprintf(TEXTLINE, "XDP=%d", xDP);
 80001a4:	1d3b      	adds	r3, r7, #4
 80001a6:	6c7a      	ldr	r2, [r7, #68]	; 0x44
 80001a8:	49a2      	ldr	r1, [pc, #648]	; (8000434 <main+0x2e8>)
 80001aa:	4618      	mov	r0, r3
 80001ac:	f008 ff68 	bl	8009080 <siprintf>
	  ssd1306_SetCursor(2, 0);
 80001b0:	2100      	movs	r1, #0
 80001b2:	2002      	movs	r0, #2
 80001b4:	f000 fdfc 	bl	8000db0 <ssd1306_SetCursor>
	  ssd1306_WriteString(TEXTLINE, Font_6x8, White);
 80001b8:	4a9f      	ldr	r2, [pc, #636]	; (8000438 <main+0x2ec>)
 80001ba:	1d38      	adds	r0, r7, #4
 80001bc:	2301      	movs	r3, #1
 80001be:	ca06      	ldmia	r2, {r1, r2}
 80001c0:	f000 fdd0 	bl	8000d64 <ssd1306_WriteString>

	  TEXTLINE[0] = '\0';
 80001c4:	2300      	movs	r3, #0
 80001c6:	713b      	strb	r3, [r7, #4]
	  sprintf(TEXTLINE, "YDP=%d", yDP);
 80001c8:	1d3b      	adds	r3, r7, #4
 80001ca:	6c3a      	ldr	r2, [r7, #64]	; 0x40
 80001cc:	499b      	ldr	r1, [pc, #620]	; (800043c <main+0x2f0>)
 80001ce:	4618      	mov	r0, r3
 80001d0:	f008 ff56 	bl	8009080 <siprintf>
	  ssd1306_SetCursor(44, 0);
 80001d4:	2100      	movs	r1, #0
 80001d6:	202c      	movs	r0, #44	; 0x2c
 80001d8:	f000 fdea 	bl	8000db0 <ssd1306_SetCursor>
	  ssd1306_WriteString(TEXTLINE, Font_6x8, White);
 80001dc:	4a96      	ldr	r2, [pc, #600]	; (8000438 <main+0x2ec>)
 80001de:	1d38      	adds	r0, r7, #4
 80001e0:	2301      	movs	r3, #1
 80001e2:	ca06      	ldmia	r2, {r1, r2}
 80001e4:	f000 fdbe 	bl	8000d64 <ssd1306_WriteString>

	  TEXTLINE[0] = '\0';
 80001e8:	2300      	movs	r3, #0
 80001ea:	713b      	strb	r3, [r7, #4]
	  sprintf(TEXTLINE, "ZDP=%d", zDP);
 80001ec:	1d3b      	adds	r3, r7, #4
 80001ee:	6bfa      	ldr	r2, [r7, #60]	; 0x3c
 80001f0:	4993      	ldr	r1, [pc, #588]	; (8000440 <main+0x2f4>)
 80001f2:	4618      	mov	r0, r3
 80001f4:	f008 ff44 	bl	8009080 <siprintf>
	  ssd1306_SetCursor(86, 0);
 80001f8:	2100      	movs	r1, #0
 80001fa:	2056      	movs	r0, #86	; 0x56
 80001fc:	f000 fdd8 	bl	8000db0 <ssd1306_SetCursor>
	  ssd1306_WriteString(TEXTLINE, Font_6x8, White);
 8000200:	4a8d      	ldr	r2, [pc, #564]	; (8000438 <main+0x2ec>)
 8000202:	1d38      	adds	r0, r7, #4
 8000204:	2301      	movs	r3, #1
 8000206:	ca06      	ldmia	r2, {r1, r2}
 8000208:	f000 fdac 	bl	8000d64 <ssd1306_WriteString>

	  if(pyDP==0&&yDP==1){
 800020c:	6bbb      	ldr	r3, [r7, #56]	; 0x38
 800020e:	2b00      	cmp	r3, #0
 8000210:	d108      	bne.n	8000224 <main+0xd8>
 8000212:	6c3b      	ldr	r3, [r7, #64]	; 0x40
 8000214:	2b01      	cmp	r3, #1
 8000216:	d105      	bne.n	8000224 <main+0xd8>
		  MENU++;
 8000218:	f897 3033 	ldrb.w	r3, [r7, #51]	; 0x33
 800021c:	3301      	adds	r3, #1
 800021e:	f887 3033 	strb.w	r3, [r7, #51]	; 0x33
 8000222:	e00b      	b.n	800023c <main+0xf0>
	  }
	  else if(pyDP==0&&yDP==-1){
 8000224:	6bbb      	ldr	r3, [r7, #56]	; 0x38
 8000226:	2b00      	cmp	r3, #0
 8000228:	d108      	bne.n	800023c <main+0xf0>
 800022a:	6c3b      	ldr	r3, [r7, #64]	; 0x40
 800022c:	f1b3 3fff 	cmp.w	r3, #4294967295	; 0xffffffff
 8000230:	d104      	bne.n	800023c <main+0xf0>
		  MENU--;
 8000232:	f897 3033 	ldrb.w	r3, [r7, #51]	; 0x33
 8000236:	3b01      	subs	r3, #1
 8000238:	f887 3033 	strb.w	r3, [r7, #51]	; 0x33
	  }

	  if (MENU==0){
 800023c:	f897 3033 	ldrb.w	r3, [r7, #51]	; 0x33
 8000240:	2b00      	cmp	r3, #0
 8000242:	d046      	beq.n	80002d2 <main+0x186>

	  }
	  else if(MENU==1){
 8000244:	f897 3033 	ldrb.w	r3, [r7, #51]	; 0x33
 8000248:	2b01      	cmp	r3, #1
 800024a:	d11f      	bne.n	800028c <main+0x140>
		  TEXTLINE[0] = '\0';
 800024c:	2300      	movs	r3, #0
 800024e:	713b      	strb	r3, [r7, #4]
		  sprintf(TEXTLINE, "Press to turn off", ONTIME);
 8000250:	1d3b      	adds	r3, r7, #4
 8000252:	6afa      	ldr	r2, [r7, #44]	; 0x2c
 8000254:	497b      	ldr	r1, [pc, #492]	; (8000444 <main+0x2f8>)
 8000256:	4618      	mov	r0, r3
 8000258:	f008 ff12 	bl	8009080 <siprintf>

		  ssd1306_SetCursor(2, 8);
 800025c:	2108      	movs	r1, #8
 800025e:	2002      	movs	r0, #2
 8000260:	f000 fda6 	bl	8000db0 <ssd1306_SetCursor>
		  ssd1306_WriteString(TEXTLINE, Font_6x8, White);
 8000264:	4a74      	ldr	r2, [pc, #464]	; (8000438 <main+0x2ec>)
 8000266:	1d38      	adds	r0, r7, #4
 8000268:	2301      	movs	r3, #1
 800026a:	ca06      	ldmia	r2, {r1, r2}
 800026c:	f000 fd7a 	bl	8000d64 <ssd1306_WriteString>
		  if(pzDP==-1&&zDP==0){
 8000270:	6b7b      	ldr	r3, [r7, #52]	; 0x34
 8000272:	f1b3 3fff 	cmp.w	r3, #4294967295	; 0xffffffff
 8000276:	d12c      	bne.n	80002d2 <main+0x186>
 8000278:	6bfb      	ldr	r3, [r7, #60]	; 0x3c
 800027a:	2b00      	cmp	r3, #0
 800027c:	d129      	bne.n	80002d2 <main+0x186>
			  GPIOB -> ODR &= ~POW_CTRL;//Sets PIN to 0
 800027e:	4b72      	ldr	r3, [pc, #456]	; (8000448 <main+0x2fc>)
 8000280:	68db      	ldr	r3, [r3, #12]
 8000282:	4a71      	ldr	r2, [pc, #452]	; (8000448 <main+0x2fc>)
 8000284:	f423 4300 	bic.w	r3, r3, #32768	; 0x8000
 8000288:	60d3      	str	r3, [r2, #12]
 800028a:	e022      	b.n	80002d2 <main+0x186>
		  }
	  }

	  else if(MENU==2){
 800028c:	f897 3033 	ldrb.w	r3, [r7, #51]	; 0x33
 8000290:	2b02      	cmp	r3, #2
 8000292:	d11e      	bne.n	80002d2 <main+0x186>
	  ONTIME = HAL_GetTick();
 8000294:	f000 fe54 	bl	8000f40 <HAL_GetTick>
 8000298:	62f8      	str	r0, [r7, #44]	; 0x2c
	  TEXTLINE[0] = '\0';
 800029a:	2300      	movs	r3, #0
 800029c:	713b      	strb	r3, [r7, #4]
	  	  sprintf(TEXTLINE, "TICKS=%d", ONTIME);
 800029e:	1d3b      	adds	r3, r7, #4
 80002a0:	6afa      	ldr	r2, [r7, #44]	; 0x2c
 80002a2:	496a      	ldr	r1, [pc, #424]	; (800044c <main+0x300>)
 80002a4:	4618      	mov	r0, r3
 80002a6:	f008 feeb 	bl	8009080 <siprintf>

	  	  ssd1306_SetCursor(2, 8);
 80002aa:	2108      	movs	r1, #8
 80002ac:	2002      	movs	r0, #2
 80002ae:	f000 fd7f 	bl	8000db0 <ssd1306_SetCursor>
	  	  ssd1306_WriteString(TEXTLINE, Font_6x8, White);
 80002b2:	4a61      	ldr	r2, [pc, #388]	; (8000438 <main+0x2ec>)
 80002b4:	1d38      	adds	r0, r7, #4
 80002b6:	2301      	movs	r3, #1
 80002b8:	ca06      	ldmia	r2, {r1, r2}
 80002ba:	f000 fd53 	bl	8000d64 <ssd1306_WriteString>

	  if(ONTIME>=1800*1000){// At 1800 seconds turn off
 80002be:	6afb      	ldr	r3, [r7, #44]	; 0x2c
 80002c0:	4a63      	ldr	r2, [pc, #396]	; (8000450 <main+0x304>)
 80002c2:	4293      	cmp	r3, r2
 80002c4:	d305      	bcc.n	80002d2 <main+0x186>
		  GPIOB -> ODR &= ~POW_CTRL;//Sets PIN to 0
 80002c6:	4b60      	ldr	r3, [pc, #384]	; (8000448 <main+0x2fc>)
 80002c8:	68db      	ldr	r3, [r3, #12]
 80002ca:	4a5f      	ldr	r2, [pc, #380]	; (8000448 <main+0x2fc>)
 80002cc:	f423 4300 	bic.w	r3, r3, #32768	; 0x8000
 80002d0:	60d3      	str	r3, [r2, #12]

	  //memset(TEXTLINE,0,sizeof(buffer));
	  //memset(TEXTLINE,0,strlen(buffer));


	  ssd1306_UpdateScreen();
 80002d2:	f000 fc45 	bl	8000b60 <ssd1306_UpdateScreen>


	  bool DP_UP=(GPIOA -> IDR & BT_UP);
 80002d6:	4b5f      	ldr	r3, [pc, #380]	; (8000454 <main+0x308>)
 80002d8:	689b      	ldr	r3, [r3, #8]
 80002da:	f003 0308 	and.w	r3, r3, #8
 80002de:	2b00      	cmp	r3, #0
 80002e0:	bf14      	ite	ne
 80002e2:	2301      	movne	r3, #1
 80002e4:	2300      	moveq	r3, #0
 80002e6:	77fb      	strb	r3, [r7, #31]
	  bool DP_DW=(GPIOA -> IDR & BT_DW);
 80002e8:	4b5a      	ldr	r3, [pc, #360]	; (8000454 <main+0x308>)
 80002ea:	689b      	ldr	r3, [r3, #8]
 80002ec:	f003 0340 	and.w	r3, r3, #64	; 0x40
 80002f0:	2b00      	cmp	r3, #0
 80002f2:	bf14      	ite	ne
 80002f4:	2301      	movne	r3, #1
 80002f6:	2300      	moveq	r3, #0
 80002f8:	77bb      	strb	r3, [r7, #30]
	  bool DP_RG=(GPIOA -> IDR & BT_RG);
 80002fa:	4b56      	ldr	r3, [pc, #344]	; (8000454 <main+0x308>)
 80002fc:	689b      	ldr	r3, [r3, #8]
 80002fe:	f003 0310 	and.w	r3, r3, #16
 8000302:	2b00      	cmp	r3, #0
 8000304:	bf14      	ite	ne
 8000306:	2301      	movne	r3, #1
 8000308:	2300      	moveq	r3, #0
 800030a:	777b      	strb	r3, [r7, #29]
	  bool DP_LF=(GPIOA -> IDR & BT_LF);
 800030c:	4b51      	ldr	r3, [pc, #324]	; (8000454 <main+0x308>)
 800030e:	689b      	ldr	r3, [r3, #8]
 8000310:	f003 0320 	and.w	r3, r3, #32
 8000314:	2b00      	cmp	r3, #0
 8000316:	bf14      	ite	ne
 8000318:	2301      	movne	r3, #1
 800031a:	2300      	moveq	r3, #0
 800031c:	773b      	strb	r3, [r7, #28]
	  bool DP_IN=(GPIOA -> IDR & BT_IN);
 800031e:	4b4d      	ldr	r3, [pc, #308]	; (8000454 <main+0x308>)
 8000320:	689b      	ldr	r3, [r3, #8]
 8000322:	f003 0380 	and.w	r3, r3, #128	; 0x80
 8000326:	2b00      	cmp	r3, #0
 8000328:	bf14      	ite	ne
 800032a:	2301      	movne	r3, #1
 800032c:	2300      	moveq	r3, #0
 800032e:	76fb      	strb	r3, [r7, #27]
#define LD_RT GPIO_PIN_13 //PB13
#define LD_LT GPIO_PIN_12 //PB12
#define LD_RD GPIO_PIN_14 //PC14
#define LD_LD GPIO_PIN_13 //PC13
*/
	  pxDP=xDP;
 8000330:	6c7b      	ldr	r3, [r7, #68]	; 0x44
 8000332:	62bb      	str	r3, [r7, #40]	; 0x28
	  pyDP=yDP;
 8000334:	6c3b      	ldr	r3, [r7, #64]	; 0x40
 8000336:	63bb      	str	r3, [r7, #56]	; 0x38
	  pzDP=zDP;
 8000338:	6bfb      	ldr	r3, [r7, #60]	; 0x3c
 800033a:	637b      	str	r3, [r7, #52]	; 0x34

	  if(DP_UP){
 800033c:	7ffb      	ldrb	r3, [r7, #31]
 800033e:	2b00      	cmp	r3, #0
 8000340:	d01a      	beq.n	8000378 <main+0x22c>
		  yDP=1;
 8000342:	2301      	movs	r3, #1
 8000344:	643b      	str	r3, [r7, #64]	; 0x40
		  GPIOB -> ODR |= LD_RT;//Sets PIN to 1
 8000346:	4b40      	ldr	r3, [pc, #256]	; (8000448 <main+0x2fc>)
 8000348:	68db      	ldr	r3, [r3, #12]
 800034a:	4a3f      	ldr	r2, [pc, #252]	; (8000448 <main+0x2fc>)
 800034c:	f443 5300 	orr.w	r3, r3, #8192	; 0x2000
 8000350:	60d3      	str	r3, [r2, #12]
		  GPIOB -> ODR |= LD_LT;//Sets PIN to 1
 8000352:	4b3d      	ldr	r3, [pc, #244]	; (8000448 <main+0x2fc>)
 8000354:	68db      	ldr	r3, [r3, #12]
 8000356:	4a3c      	ldr	r2, [pc, #240]	; (8000448 <main+0x2fc>)
 8000358:	f443 5380 	orr.w	r3, r3, #4096	; 0x1000
 800035c:	60d3      	str	r3, [r2, #12]
		  GPIOC -> ODR &= ~LD_RD;//Sets PIN to 0
 800035e:	4b3e      	ldr	r3, [pc, #248]	; (8000458 <main+0x30c>)
 8000360:	68db      	ldr	r3, [r3, #12]
 8000362:	4a3d      	ldr	r2, [pc, #244]	; (8000458 <main+0x30c>)
 8000364:	f423 4380 	bic.w	r3, r3, #16384	; 0x4000
 8000368:	60d3      	str	r3, [r2, #12]
		  GPIOC -> ODR &= ~LD_LD;//Sets PIN to 0
 800036a:	4b3b      	ldr	r3, [pc, #236]	; (8000458 <main+0x30c>)
 800036c:	68db      	ldr	r3, [r3, #12]
 800036e:	4a3a      	ldr	r2, [pc, #232]	; (8000458 <main+0x30c>)
 8000370:	f423 5300 	bic.w	r3, r3, #8192	; 0x2000
 8000374:	60d3      	str	r3, [r2, #12]
 8000376:	e020      	b.n	80003ba <main+0x26e>
	  }
	  else if(DP_DW){
 8000378:	7fbb      	ldrb	r3, [r7, #30]
 800037a:	2b00      	cmp	r3, #0
 800037c:	d01b      	beq.n	80003b6 <main+0x26a>
		  yDP=-1;
 800037e:	f04f 33ff 	mov.w	r3, #4294967295	; 0xffffffff
 8000382:	643b      	str	r3, [r7, #64]	; 0x40
		  GPIOB -> ODR &= ~LD_RT;//Sets PIN to 0
 8000384:	4b30      	ldr	r3, [pc, #192]	; (8000448 <main+0x2fc>)
 8000386:	68db      	ldr	r3, [r3, #12]
 8000388:	4a2f      	ldr	r2, [pc, #188]	; (8000448 <main+0x2fc>)
 800038a:	f423 5300 	bic.w	r3, r3, #8192	; 0x2000
 800038e:	60d3      	str	r3, [r2, #12]
		  GPIOB -> ODR &= ~LD_LT;//Sets PIN to 0
 8000390:	4b2d      	ldr	r3, [pc, #180]	; (8000448 <main+0x2fc>)
 8000392:	68db      	ldr	r3, [r3, #12]
 8000394:	4a2c      	ldr	r2, [pc, #176]	; (8000448 <main+0x2fc>)
 8000396:	f423 5380 	bic.w	r3, r3, #4096	; 0x1000
 800039a:	60d3      	str	r3, [r2, #12]
		  GPIOC -> ODR |= LD_RD;//Sets PIN to 1
 800039c:	4b2e      	ldr	r3, [pc, #184]	; (8000458 <main+0x30c>)
 800039e:	68db      	ldr	r3, [r3, #12]
 80003a0:	4a2d      	ldr	r2, [pc, #180]	; (8000458 <main+0x30c>)
 80003a2:	f443 4380 	orr.w	r3, r3, #16384	; 0x4000
 80003a6:	60d3      	str	r3, [r2, #12]
		  GPIOC -> ODR |= LD_LD;//Sets PIN to 1
 80003a8:	4b2b      	ldr	r3, [pc, #172]	; (8000458 <main+0x30c>)
 80003aa:	68db      	ldr	r3, [r3, #12]
 80003ac:	4a2a      	ldr	r2, [pc, #168]	; (8000458 <main+0x30c>)
 80003ae:	f443 5300 	orr.w	r3, r3, #8192	; 0x2000
 80003b2:	60d3      	str	r3, [r2, #12]
 80003b4:	e001      	b.n	80003ba <main+0x26e>
	  }
	  else {
		  yDP=0;
 80003b6:	2300      	movs	r3, #0
 80003b8:	643b      	str	r3, [r7, #64]	; 0x40
	  }
	  if(DP_RG){
 80003ba:	7f7b      	ldrb	r3, [r7, #29]
 80003bc:	2b00      	cmp	r3, #0
 80003be:	d01a      	beq.n	80003f6 <main+0x2aa>
		  xDP=1;
 80003c0:	2301      	movs	r3, #1
 80003c2:	647b      	str	r3, [r7, #68]	; 0x44
	  	  GPIOB -> ODR |= LD_RT;//Sets PIN to 0
 80003c4:	4b20      	ldr	r3, [pc, #128]	; (8000448 <main+0x2fc>)
 80003c6:	68db      	ldr	r3, [r3, #12]
 80003c8:	4a1f      	ldr	r2, [pc, #124]	; (8000448 <main+0x2fc>)
 80003ca:	f443 5300 	orr.w	r3, r3, #8192	; 0x2000
 80003ce:	60d3      	str	r3, [r2, #12]
	  	  GPIOB -> ODR &= ~LD_LT;//Sets PIN to 1
 80003d0:	4b1d      	ldr	r3, [pc, #116]	; (8000448 <main+0x2fc>)
 80003d2:	68db      	ldr	r3, [r3, #12]
 80003d4:	4a1c      	ldr	r2, [pc, #112]	; (8000448 <main+0x2fc>)
 80003d6:	f423 5380 	bic.w	r3, r3, #4096	; 0x1000
 80003da:	60d3      	str	r3, [r2, #12]
	  	  GPIOC -> ODR |= LD_RD;//Sets PIN to 0
 80003dc:	4b1e      	ldr	r3, [pc, #120]	; (8000458 <main+0x30c>)
 80003de:	68db      	ldr	r3, [r3, #12]
 80003e0:	4a1d      	ldr	r2, [pc, #116]	; (8000458 <main+0x30c>)
 80003e2:	f443 4380 	orr.w	r3, r3, #16384	; 0x4000
 80003e6:	60d3      	str	r3, [r2, #12]
	  	  GPIOC -> ODR &= ~LD_LD;//Sets PIN to 0
 80003e8:	4b1b      	ldr	r3, [pc, #108]	; (8000458 <main+0x30c>)
 80003ea:	68db      	ldr	r3, [r3, #12]
 80003ec:	4a1a      	ldr	r2, [pc, #104]	; (8000458 <main+0x30c>)
 80003ee:	f423 5300 	bic.w	r3, r3, #8192	; 0x2000
 80003f2:	60d3      	str	r3, [r2, #12]
 80003f4:	e034      	b.n	8000460 <main+0x314>
	  }
	  else if(DP_LF){
 80003f6:	7f3b      	ldrb	r3, [r7, #28]
 80003f8:	2b00      	cmp	r3, #0
 80003fa:	d02f      	beq.n	800045c <main+0x310>
		  xDP=-1;
 80003fc:	f04f 33ff 	mov.w	r3, #4294967295	; 0xffffffff
 8000400:	647b      	str	r3, [r7, #68]	; 0x44
	  	  GPIOB -> ODR &= ~LD_RT;//Sets PIN to 1
 8000402:	4b11      	ldr	r3, [pc, #68]	; (8000448 <main+0x2fc>)
 8000404:	68db      	ldr	r3, [r3, #12]
 8000406:	4a10      	ldr	r2, [pc, #64]	; (8000448 <main+0x2fc>)
 8000408:	f423 5300 	bic.w	r3, r3, #8192	; 0x2000
 800040c:	60d3      	str	r3, [r2, #12]
	  	  GPIOB -> ODR |= LD_LT;//Sets PIN to 0
 800040e:	4b0e      	ldr	r3, [pc, #56]	; (8000448 <main+0x2fc>)
 8000410:	68db      	ldr	r3, [r3, #12]
 8000412:	4a0d      	ldr	r2, [pc, #52]	; (8000448 <main+0x2fc>)
 8000414:	f443 5380 	orr.w	r3, r3, #4096	; 0x1000
 8000418:	60d3      	str	r3, [r2, #12]
	  	  GPIOC -> ODR &= ~LD_RD;//Sets PIN to 1
 800041a:	4b0f      	ldr	r3, [pc, #60]	; (8000458 <main+0x30c>)
 800041c:	68db      	ldr	r3, [r3, #12]
 800041e:	4a0e      	ldr	r2, [pc, #56]	; (8000458 <main+0x30c>)
 8000420:	f423 4380 	bic.w	r3, r3, #16384	; 0x4000
 8000424:	60d3      	str	r3, [r2, #12]
	  	  GPIOC -> ODR |= LD_LD;//Sets PIN to 0
 8000426:	4b0c      	ldr	r3, [pc, #48]	; (8000458 <main+0x30c>)
 8000428:	68db      	ldr	r3, [r3, #12]
 800042a:	4a0b      	ldr	r2, [pc, #44]	; (8000458 <main+0x30c>)
 800042c:	f443 5300 	orr.w	r3, r3, #8192	; 0x2000
 8000430:	60d3      	str	r3, [r2, #12]
 8000432:	e015      	b.n	8000460 <main+0x314>
 8000434:	0800993c 	.word	0x0800993c
 8000438:	20000004 	.word	0x20000004
 800043c:	08009944 	.word	0x08009944
 8000440:	0800994c 	.word	0x0800994c
 8000444:	08009954 	.word	0x08009954
 8000448:	40010c00 	.word	0x40010c00
 800044c:	08009968 	.word	0x08009968
 8000450:	001b7740 	.word	0x001b7740
 8000454:	40010800 	.word	0x40010800
 8000458:	40011000 	.word	0x40011000
	  }
	  else {
		  xDP=0;
 800045c:	2300      	movs	r3, #0
 800045e:	647b      	str	r3, [r7, #68]	; 0x44
	  }
	  if(DP_IN){
 8000460:	7efb      	ldrb	r3, [r7, #27]
 8000462:	2b00      	cmp	r3, #0
 8000464:	d01b      	beq.n	800049e <main+0x352>
		  zDP=-1;
 8000466:	f04f 33ff 	mov.w	r3, #4294967295	; 0xffffffff
 800046a:	63fb      	str	r3, [r7, #60]	; 0x3c
	  	  GPIOB -> ODR |= LD_RT;//Sets PIN to 1
 800046c:	4b0d      	ldr	r3, [pc, #52]	; (80004a4 <main+0x358>)
 800046e:	68db      	ldr	r3, [r3, #12]
 8000470:	4a0c      	ldr	r2, [pc, #48]	; (80004a4 <main+0x358>)
 8000472:	f443 5300 	orr.w	r3, r3, #8192	; 0x2000
 8000476:	60d3      	str	r3, [r2, #12]
	  	  GPIOB -> ODR |= LD_LT;//Sets PIN to 1
 8000478:	4b0a      	ldr	r3, [pc, #40]	; (80004a4 <main+0x358>)
 800047a:	68db      	ldr	r3, [r3, #12]
 800047c:	4a09      	ldr	r2, [pc, #36]	; (80004a4 <main+0x358>)
 800047e:	f443 5380 	orr.w	r3, r3, #4096	; 0x1000
 8000482:	60d3      	str	r3, [r2, #12]
	  	  GPIOC -> ODR |= LD_RD;//Sets PIN to 1
 8000484:	4b08      	ldr	r3, [pc, #32]	; (80004a8 <main+0x35c>)
 8000486:	68db      	ldr	r3, [r3, #12]
 8000488:	4a07      	ldr	r2, [pc, #28]	; (80004a8 <main+0x35c>)
 800048a:	f443 4380 	orr.w	r3, r3, #16384	; 0x4000
 800048e:	60d3      	str	r3, [r2, #12]
	  	  GPIOC -> ODR |= LD_LD;//Sets PIN to 1
 8000490:	4b05      	ldr	r3, [pc, #20]	; (80004a8 <main+0x35c>)
 8000492:	68db      	ldr	r3, [r3, #12]
 8000494:	4a04      	ldr	r2, [pc, #16]	; (80004a8 <main+0x35c>)
 8000496:	f443 5300 	orr.w	r3, r3, #8192	; 0x2000
 800049a:	60d3      	str	r3, [r2, #12]
 800049c:	e67d      	b.n	800019a <main+0x4e>
	  }
	  else {
		  zDP=0;
 800049e:	2300      	movs	r3, #0
 80004a0:	63fb      	str	r3, [r7, #60]	; 0x3c
  while (1)  {
 80004a2:	e67a      	b.n	800019a <main+0x4e>
 80004a4:	40010c00 	.word	0x40010c00
 80004a8:	40011000 	.word	0x40011000

080004ac <SystemClock_Config>:
/**
  * @brief System Clock Configuration
  * @retval None
  */
void SystemClock_Config(void)
{
 80004ac:	b580      	push	{r7, lr}
 80004ae:	b094      	sub	sp, #80	; 0x50
 80004b0:	af00      	add	r7, sp, #0
  RCC_OscInitTypeDef RCC_OscInitStruct = {0};
 80004b2:	f107 0328 	add.w	r3, r7, #40	; 0x28
 80004b6:	2228      	movs	r2, #40	; 0x28
 80004b8:	2100      	movs	r1, #0
 80004ba:	4618      	mov	r0, r3
 80004bc:	f008 fdd8 	bl	8009070 <memset>
  RCC_ClkInitTypeDef RCC_ClkInitStruct = {0};
 80004c0:	f107 0314 	add.w	r3, r7, #20
 80004c4:	2200      	movs	r2, #0
 80004c6:	601a      	str	r2, [r3, #0]
 80004c8:	605a      	str	r2, [r3, #4]
 80004ca:	609a      	str	r2, [r3, #8]
 80004cc:	60da      	str	r2, [r3, #12]
 80004ce:	611a      	str	r2, [r3, #16]
  RCC_PeriphCLKInitTypeDef PeriphClkInit = {0};
 80004d0:	1d3b      	adds	r3, r7, #4
 80004d2:	2200      	movs	r2, #0
 80004d4:	601a      	str	r2, [r3, #0]
 80004d6:	605a      	str	r2, [r3, #4]
 80004d8:	609a      	str	r2, [r3, #8]
 80004da:	60da      	str	r2, [r3, #12]

  /** Initializes the RCC Oscillators according to the specified parameters
  * in the RCC_OscInitTypeDef structure.
  */
  RCC_OscInitStruct.OscillatorType = RCC_OSCILLATORTYPE_HSE;
 80004dc:	2301      	movs	r3, #1
 80004de:	62bb      	str	r3, [r7, #40]	; 0x28
  RCC_OscInitStruct.HSEState = RCC_HSE_ON;
 80004e0:	f44f 3380 	mov.w	r3, #65536	; 0x10000
 80004e4:	62fb      	str	r3, [r7, #44]	; 0x2c
  RCC_OscInitStruct.HSEPredivValue = RCC_HSE_PREDIV_DIV1;
 80004e6:	2300      	movs	r3, #0
 80004e8:	633b      	str	r3, [r7, #48]	; 0x30
  RCC_OscInitStruct.HSIState = RCC_HSI_ON;
 80004ea:	2301      	movs	r3, #1
 80004ec:	63bb      	str	r3, [r7, #56]	; 0x38
  RCC_OscInitStruct.PLL.PLLState = RCC_PLL_ON;
 80004ee:	2302      	movs	r3, #2
 80004f0:	647b      	str	r3, [r7, #68]	; 0x44
  RCC_OscInitStruct.PLL.PLLSource = RCC_PLLSOURCE_HSE;
 80004f2:	f44f 3380 	mov.w	r3, #65536	; 0x10000
 80004f6:	64bb      	str	r3, [r7, #72]	; 0x48
  RCC_OscInitStruct.PLL.PLLMUL = RCC_PLL_MUL9;
 80004f8:	f44f 13e0 	mov.w	r3, #1835008	; 0x1c0000
 80004fc:	64fb      	str	r3, [r7, #76]	; 0x4c
  if (HAL_RCC_OscConfig(&RCC_OscInitStruct) != HAL_OK)
 80004fe:	f107 0328 	add.w	r3, r7, #40	; 0x28
 8000502:	4618      	mov	r0, r3
 8000504:	f003 fb24 	bl	8003b50 <HAL_RCC_OscConfig>
 8000508:	4603      	mov	r3, r0
 800050a:	2b00      	cmp	r3, #0
 800050c:	d001      	beq.n	8000512 <SystemClock_Config+0x66>
  {
    Error_Handler();
 800050e:	f000 f943 	bl	8000798 <Error_Handler>
  }

  /** Initializes the CPU, AHB and APB buses clocks
  */
  RCC_ClkInitStruct.ClockType = RCC_CLOCKTYPE_HCLK|RCC_CLOCKTYPE_SYSCLK
 8000512:	230f      	movs	r3, #15
 8000514:	617b      	str	r3, [r7, #20]
                              |RCC_CLOCKTYPE_PCLK1|RCC_CLOCKTYPE_PCLK2;
  RCC_ClkInitStruct.SYSCLKSource = RCC_SYSCLKSOURCE_PLLCLK;
 8000516:	2302      	movs	r3, #2
 8000518:	61bb      	str	r3, [r7, #24]
  RCC_ClkInitStruct.AHBCLKDivider = RCC_SYSCLK_DIV1;
 800051a:	2300      	movs	r3, #0
 800051c:	61fb      	str	r3, [r7, #28]
  RCC_ClkInitStruct.APB1CLKDivider = RCC_HCLK_DIV2;
 800051e:	f44f 6380 	mov.w	r3, #1024	; 0x400
 8000522:	623b      	str	r3, [r7, #32]
  RCC_ClkInitStruct.APB2CLKDivider = RCC_HCLK_DIV1;
 8000524:	2300      	movs	r3, #0
 8000526:	627b      	str	r3, [r7, #36]	; 0x24

  if (HAL_RCC_ClockConfig(&RCC_ClkInitStruct, FLASH_LATENCY_2) != HAL_OK)
 8000528:	f107 0314 	add.w	r3, r7, #20
 800052c:	2102      	movs	r1, #2
 800052e:	4618      	mov	r0, r3
 8000530:	f003 fd90 	bl	8004054 <HAL_RCC_ClockConfig>
 8000534:	4603      	mov	r3, r0
 8000536:	2b00      	cmp	r3, #0
 8000538:	d001      	beq.n	800053e <SystemClock_Config+0x92>
  {
    Error_Handler();
 800053a:	f000 f92d 	bl	8000798 <Error_Handler>
  }
  PeriphClkInit.PeriphClockSelection = RCC_PERIPHCLK_ADC|RCC_PERIPHCLK_USB;
 800053e:	2312      	movs	r3, #18
 8000540:	607b      	str	r3, [r7, #4]
  PeriphClkInit.AdcClockSelection = RCC_ADCPCLK2_DIV6;
 8000542:	f44f 4300 	mov.w	r3, #32768	; 0x8000
 8000546:	60fb      	str	r3, [r7, #12]
  PeriphClkInit.UsbClockSelection = RCC_USBCLKSOURCE_PLL_DIV1_5;
 8000548:	2300      	movs	r3, #0
 800054a:	613b      	str	r3, [r7, #16]
  if (HAL_RCCEx_PeriphCLKConfig(&PeriphClkInit) != HAL_OK)
 800054c:	1d3b      	adds	r3, r7, #4
 800054e:	4618      	mov	r0, r3
 8000550:	f003 ff04 	bl	800435c <HAL_RCCEx_PeriphCLKConfig>
 8000554:	4603      	mov	r3, r0
 8000556:	2b00      	cmp	r3, #0
 8000558:	d001      	beq.n	800055e <SystemClock_Config+0xb2>
  {
    Error_Handler();
 800055a:	f000 f91d 	bl	8000798 <Error_Handler>
  }
}
 800055e:	bf00      	nop
 8000560:	3750      	adds	r7, #80	; 0x50
 8000562:	46bd      	mov	sp, r7
 8000564:	bd80      	pop	{r7, pc}
	...

08000568 <MX_ADC1_Init>:
  * @brief ADC1 Initialization Function
  * @param None
  * @retval None
  */
static void MX_ADC1_Init(void)
{
 8000568:	b580      	push	{r7, lr}
 800056a:	b084      	sub	sp, #16
 800056c:	af00      	add	r7, sp, #0

  /* USER CODE BEGIN ADC1_Init 0 */

  /* USER CODE END ADC1_Init 0 */

  ADC_ChannelConfTypeDef sConfig = {0};
 800056e:	1d3b      	adds	r3, r7, #4
 8000570:	2200      	movs	r2, #0
 8000572:	601a      	str	r2, [r3, #0]
 8000574:	605a      	str	r2, [r3, #4]
 8000576:	609a      	str	r2, [r3, #8]

  /* USER CODE END ADC1_Init 1 */

  /** Common config
  */
  hadc1.Instance = ADC1;
 8000578:	4b18      	ldr	r3, [pc, #96]	; (80005dc <MX_ADC1_Init+0x74>)
 800057a:	4a19      	ldr	r2, [pc, #100]	; (80005e0 <MX_ADC1_Init+0x78>)
 800057c:	601a      	str	r2, [r3, #0]
  hadc1.Init.ScanConvMode = ADC_SCAN_DISABLE;
 800057e:	4b17      	ldr	r3, [pc, #92]	; (80005dc <MX_ADC1_Init+0x74>)
 8000580:	2200      	movs	r2, #0
 8000582:	609a      	str	r2, [r3, #8]
  hadc1.Init.ContinuousConvMode = ENABLE;
 8000584:	4b15      	ldr	r3, [pc, #84]	; (80005dc <MX_ADC1_Init+0x74>)
 8000586:	2201      	movs	r2, #1
 8000588:	731a      	strb	r2, [r3, #12]
  hadc1.Init.DiscontinuousConvMode = DISABLE;
 800058a:	4b14      	ldr	r3, [pc, #80]	; (80005dc <MX_ADC1_Init+0x74>)
 800058c:	2200      	movs	r2, #0
 800058e:	751a      	strb	r2, [r3, #20]
  hadc1.Init.ExternalTrigConv = ADC_SOFTWARE_START;
 8000590:	4b12      	ldr	r3, [pc, #72]	; (80005dc <MX_ADC1_Init+0x74>)
 8000592:	f44f 2260 	mov.w	r2, #917504	; 0xe0000
 8000596:	61da      	str	r2, [r3, #28]
  hadc1.Init.DataAlign = ADC_DATAALIGN_RIGHT;
 8000598:	4b10      	ldr	r3, [pc, #64]	; (80005dc <MX_ADC1_Init+0x74>)
 800059a:	2200      	movs	r2, #0
 800059c:	605a      	str	r2, [r3, #4]
  hadc1.Init.NbrOfConversion = 1;
 800059e:	4b0f      	ldr	r3, [pc, #60]	; (80005dc <MX_ADC1_Init+0x74>)
 80005a0:	2201      	movs	r2, #1
 80005a2:	611a      	str	r2, [r3, #16]
  if (HAL_ADC_Init(&hadc1) != HAL_OK)
 80005a4:	480d      	ldr	r0, [pc, #52]	; (80005dc <MX_ADC1_Init+0x74>)
 80005a6:	f000 fcf9 	bl	8000f9c <HAL_ADC_Init>
 80005aa:	4603      	mov	r3, r0
 80005ac:	2b00      	cmp	r3, #0
 80005ae:	d001      	beq.n	80005b4 <MX_ADC1_Init+0x4c>
  {
    Error_Handler();
 80005b0:	f000 f8f2 	bl	8000798 <Error_Handler>
  }

  /** Configure Regular Channel
  */
  sConfig.Channel = ADC_CHANNEL_0;
 80005b4:	2300      	movs	r3, #0
 80005b6:	607b      	str	r3, [r7, #4]
  sConfig.Rank = ADC_REGULAR_RANK_1;
 80005b8:	2301      	movs	r3, #1
 80005ba:	60bb      	str	r3, [r7, #8]
  sConfig.SamplingTime = ADC_SAMPLETIME_1CYCLE_5;
 80005bc:	2300      	movs	r3, #0
 80005be:	60fb      	str	r3, [r7, #12]
  if (HAL_ADC_ConfigChannel(&hadc1, &sConfig) != HAL_OK)
 80005c0:	1d3b      	adds	r3, r7, #4
 80005c2:	4619      	mov	r1, r3
 80005c4:	4805      	ldr	r0, [pc, #20]	; (80005dc <MX_ADC1_Init+0x74>)
 80005c6:	f000 fdc1 	bl	800114c <HAL_ADC_ConfigChannel>
 80005ca:	4603      	mov	r3, r0
 80005cc:	2b00      	cmp	r3, #0
 80005ce:	d001      	beq.n	80005d4 <MX_ADC1_Init+0x6c>
  {
    Error_Handler();
 80005d0:	f000 f8e2 	bl	8000798 <Error_Handler>
  }
  /* USER CODE BEGIN ADC1_Init 2 */

  /* USER CODE END ADC1_Init 2 */

}
 80005d4:	bf00      	nop
 80005d6:	3710      	adds	r7, #16
 80005d8:	46bd      	mov	sp, r7
 80005da:	bd80      	pop	{r7, pc}
 80005dc:	20000204 	.word	0x20000204
 80005e0:	40012400 	.word	0x40012400

080005e4 <MX_I2C1_Init>:
  * @brief I2C1 Initialization Function
  * @param None
  * @retval None
  */
static void MX_I2C1_Init(void)
{
 80005e4:	b580      	push	{r7, lr}
 80005e6:	af00      	add	r7, sp, #0
  /* USER CODE END I2C1_Init 0 */

  /* USER CODE BEGIN I2C1_Init 1 */

  /* USER CODE END I2C1_Init 1 */
  hi2c1.Instance = I2C1;
 80005e8:	4b12      	ldr	r3, [pc, #72]	; (8000634 <MX_I2C1_Init+0x50>)
 80005ea:	4a13      	ldr	r2, [pc, #76]	; (8000638 <MX_I2C1_Init+0x54>)
 80005ec:	601a      	str	r2, [r3, #0]
  hi2c1.Init.ClockSpeed = 400000;
 80005ee:	4b11      	ldr	r3, [pc, #68]	; (8000634 <MX_I2C1_Init+0x50>)
 80005f0:	4a12      	ldr	r2, [pc, #72]	; (800063c <MX_I2C1_Init+0x58>)
 80005f2:	605a      	str	r2, [r3, #4]
  hi2c1.Init.DutyCycle = I2C_DUTYCYCLE_2;
 80005f4:	4b0f      	ldr	r3, [pc, #60]	; (8000634 <MX_I2C1_Init+0x50>)
 80005f6:	2200      	movs	r2, #0
 80005f8:	609a      	str	r2, [r3, #8]
  hi2c1.Init.OwnAddress1 = 0;
 80005fa:	4b0e      	ldr	r3, [pc, #56]	; (8000634 <MX_I2C1_Init+0x50>)
 80005fc:	2200      	movs	r2, #0
 80005fe:	60da      	str	r2, [r3, #12]
  hi2c1.Init.AddressingMode = I2C_ADDRESSINGMODE_7BIT;
 8000600:	4b0c      	ldr	r3, [pc, #48]	; (8000634 <MX_I2C1_Init+0x50>)
 8000602:	f44f 4280 	mov.w	r2, #16384	; 0x4000
 8000606:	611a      	str	r2, [r3, #16]
  hi2c1.Init.DualAddressMode = I2C_DUALADDRESS_DISABLE;
 8000608:	4b0a      	ldr	r3, [pc, #40]	; (8000634 <MX_I2C1_Init+0x50>)
 800060a:	2200      	movs	r2, #0
 800060c:	615a      	str	r2, [r3, #20]
  hi2c1.Init.OwnAddress2 = 0;
 800060e:	4b09      	ldr	r3, [pc, #36]	; (8000634 <MX_I2C1_Init+0x50>)
 8000610:	2200      	movs	r2, #0
 8000612:	619a      	str	r2, [r3, #24]
  hi2c1.Init.GeneralCallMode = I2C_GENERALCALL_DISABLE;
 8000614:	4b07      	ldr	r3, [pc, #28]	; (8000634 <MX_I2C1_Init+0x50>)
 8000616:	2200      	movs	r2, #0
 8000618:	61da      	str	r2, [r3, #28]
  hi2c1.Init.NoStretchMode = I2C_NOSTRETCH_DISABLE;
 800061a:	4b06      	ldr	r3, [pc, #24]	; (8000634 <MX_I2C1_Init+0x50>)
 800061c:	2200      	movs	r2, #0
 800061e:	621a      	str	r2, [r3, #32]
  if (HAL_I2C_Init(&hi2c1) != HAL_OK)
 8000620:	4804      	ldr	r0, [pc, #16]	; (8000634 <MX_I2C1_Init+0x50>)
 8000622:	f001 f977 	bl	8001914 <HAL_I2C_Init>
 8000626:	4603      	mov	r3, r0
 8000628:	2b00      	cmp	r3, #0
 800062a:	d001      	beq.n	8000630 <MX_I2C1_Init+0x4c>
  {
    Error_Handler();
 800062c:	f000 f8b4 	bl	8000798 <Error_Handler>
  }
  /* USER CODE BEGIN I2C1_Init 2 */

  /* USER CODE END I2C1_Init 2 */

}
 8000630:	bf00      	nop
 8000632:	bd80      	pop	{r7, pc}
 8000634:	20000234 	.word	0x20000234
 8000638:	40005400 	.word	0x40005400
 800063c:	00061a80 	.word	0x00061a80

08000640 <MX_GPIO_Init>:
  * @brief GPIO Initialization Function
  * @param None
  * @retval None
  */
static void MX_GPIO_Init(void)
{
 8000640:	b580      	push	{r7, lr}
 8000642:	b088      	sub	sp, #32
 8000644:	af00      	add	r7, sp, #0
  GPIO_InitTypeDef GPIO_InitStruct = {0};
 8000646:	f107 0310 	add.w	r3, r7, #16
 800064a:	2200      	movs	r2, #0
 800064c:	601a      	str	r2, [r3, #0]
 800064e:	605a      	str	r2, [r3, #4]
 8000650:	609a      	str	r2, [r3, #8]
 8000652:	60da      	str	r2, [r3, #12]

  /* GPIO Ports Clock Enable */
  __HAL_RCC_GPIOC_CLK_ENABLE();
 8000654:	4b4c      	ldr	r3, [pc, #304]	; (8000788 <MX_GPIO_Init+0x148>)
 8000656:	699b      	ldr	r3, [r3, #24]
 8000658:	4a4b      	ldr	r2, [pc, #300]	; (8000788 <MX_GPIO_Init+0x148>)
 800065a:	f043 0310 	orr.w	r3, r3, #16
 800065e:	6193      	str	r3, [r2, #24]
 8000660:	4b49      	ldr	r3, [pc, #292]	; (8000788 <MX_GPIO_Init+0x148>)
 8000662:	699b      	ldr	r3, [r3, #24]
 8000664:	f003 0310 	and.w	r3, r3, #16
 8000668:	60fb      	str	r3, [r7, #12]
 800066a:	68fb      	ldr	r3, [r7, #12]
  __HAL_RCC_GPIOD_CLK_ENABLE();
 800066c:	4b46      	ldr	r3, [pc, #280]	; (8000788 <MX_GPIO_Init+0x148>)
 800066e:	699b      	ldr	r3, [r3, #24]
 8000670:	4a45      	ldr	r2, [pc, #276]	; (8000788 <MX_GPIO_Init+0x148>)
 8000672:	f043 0320 	orr.w	r3, r3, #32
 8000676:	6193      	str	r3, [r2, #24]
 8000678:	4b43      	ldr	r3, [pc, #268]	; (8000788 <MX_GPIO_Init+0x148>)
 800067a:	699b      	ldr	r3, [r3, #24]
 800067c:	f003 0320 	and.w	r3, r3, #32
 8000680:	60bb      	str	r3, [r7, #8]
 8000682:	68bb      	ldr	r3, [r7, #8]
  __HAL_RCC_GPIOA_CLK_ENABLE();
 8000684:	4b40      	ldr	r3, [pc, #256]	; (8000788 <MX_GPIO_Init+0x148>)
 8000686:	699b      	ldr	r3, [r3, #24]
 8000688:	4a3f      	ldr	r2, [pc, #252]	; (8000788 <MX_GPIO_Init+0x148>)
 800068a:	f043 0304 	orr.w	r3, r3, #4
 800068e:	6193      	str	r3, [r2, #24]
 8000690:	4b3d      	ldr	r3, [pc, #244]	; (8000788 <MX_GPIO_Init+0x148>)
 8000692:	699b      	ldr	r3, [r3, #24]
 8000694:	f003 0304 	and.w	r3, r3, #4
 8000698:	607b      	str	r3, [r7, #4]
 800069a:	687b      	ldr	r3, [r7, #4]
  __HAL_RCC_GPIOB_CLK_ENABLE();
 800069c:	4b3a      	ldr	r3, [pc, #232]	; (8000788 <MX_GPIO_Init+0x148>)
 800069e:	699b      	ldr	r3, [r3, #24]
 80006a0:	4a39      	ldr	r2, [pc, #228]	; (8000788 <MX_GPIO_Init+0x148>)
 80006a2:	f043 0308 	orr.w	r3, r3, #8
 80006a6:	6193      	str	r3, [r2, #24]
 80006a8:	4b37      	ldr	r3, [pc, #220]	; (8000788 <MX_GPIO_Init+0x148>)
 80006aa:	699b      	ldr	r3, [r3, #24]
 80006ac:	f003 0308 	and.w	r3, r3, #8
 80006b0:	603b      	str	r3, [r7, #0]
 80006b2:	683b      	ldr	r3, [r7, #0]

  /*Configure GPIO pin Output Level */
  HAL_GPIO_WritePin(GPIOC, SYS_LED_2_Pin|SYS_LED_3_Pin, GPIO_PIN_SET);
 80006b4:	2201      	movs	r2, #1
 80006b6:	f44f 41c0 	mov.w	r1, #24576	; 0x6000
 80006ba:	4834      	ldr	r0, [pc, #208]	; (800078c <MX_GPIO_Init+0x14c>)
 80006bc:	f001 f912 	bl	80018e4 <HAL_GPIO_WritePin>

  /*Configure GPIO pin Output Level */
  HAL_GPIO_WritePin(GPIOB, DCOAC_RX_Pin|DCOAC_ECLK_Pin, GPIO_PIN_RESET);
 80006c0:	2200      	movs	r2, #0
 80006c2:	2103      	movs	r1, #3
 80006c4:	4832      	ldr	r0, [pc, #200]	; (8000790 <MX_GPIO_Init+0x150>)
 80006c6:	f001 f90d 	bl	80018e4 <HAL_GPIO_WritePin>

  /*Configure GPIO pin Output Level */
  HAL_GPIO_WritePin(GPIOB, SYS_LED_0_Pin|SYS_LED_1_Pin|POW_CNTR_Pin, GPIO_PIN_SET);
 80006ca:	2201      	movs	r2, #1
 80006cc:	f44f 4130 	mov.w	r1, #45056	; 0xb000
 80006d0:	482f      	ldr	r0, [pc, #188]	; (8000790 <MX_GPIO_Init+0x150>)
 80006d2:	f001 f907 	bl	80018e4 <HAL_GPIO_WritePin>

  /*Configure GPIO pins : SYS_LED_2_Pin SYS_LED_3_Pin */
  GPIO_InitStruct.Pin = SYS_LED_2_Pin|SYS_LED_3_Pin;
 80006d6:	f44f 43c0 	mov.w	r3, #24576	; 0x6000
 80006da:	613b      	str	r3, [r7, #16]
  GPIO_InitStruct.Mode = GPIO_MODE_OUTPUT_PP;
 80006dc:	2301      	movs	r3, #1
 80006de:	617b      	str	r3, [r7, #20]
  GPIO_InitStruct.Pull = GPIO_NOPULL;
 80006e0:	2300      	movs	r3, #0
 80006e2:	61bb      	str	r3, [r7, #24]
  GPIO_InitStruct.Speed = GPIO_SPEED_FREQ_LOW;
 80006e4:	2302      	movs	r3, #2
 80006e6:	61fb      	str	r3, [r7, #28]
  HAL_GPIO_Init(GPIOC, &GPIO_InitStruct);
 80006e8:	f107 0310 	add.w	r3, r7, #16
 80006ec:	4619      	mov	r1, r3
 80006ee:	4827      	ldr	r0, [pc, #156]	; (800078c <MX_GPIO_Init+0x14c>)
 80006f0:	f000 ff74 	bl	80015dc <HAL_GPIO_Init>

  /*Configure GPIO pins : B_A_Pin B_B_Pin B_C_Pin B_D_Pin
                           B_INT_Pin */
  GPIO_InitStruct.Pin = B_A_Pin|B_B_Pin|B_C_Pin|B_D_Pin
 80006f4:	23f8      	movs	r3, #248	; 0xf8
 80006f6:	613b      	str	r3, [r7, #16]
                          |B_INT_Pin;
  GPIO_InitStruct.Mode = GPIO_MODE_INPUT;
 80006f8:	2300      	movs	r3, #0
 80006fa:	617b      	str	r3, [r7, #20]
  GPIO_InitStruct.Pull = GPIO_NOPULL;
 80006fc:	2300      	movs	r3, #0
 80006fe:	61bb      	str	r3, [r7, #24]
  HAL_GPIO_Init(GPIOA, &GPIO_InitStruct);
 8000700:	f107 0310 	add.w	r3, r7, #16
 8000704:	4619      	mov	r1, r3
 8000706:	4823      	ldr	r0, [pc, #140]	; (8000794 <MX_GPIO_Init+0x154>)
 8000708:	f000 ff68 	bl	80015dc <HAL_GPIO_Init>

  /*Configure GPIO pins : DCOAC_RX_Pin DCOAC_ECLK_Pin */
  GPIO_InitStruct.Pin = DCOAC_RX_Pin|DCOAC_ECLK_Pin;
 800070c:	2303      	movs	r3, #3
 800070e:	613b      	str	r3, [r7, #16]
  GPIO_InitStruct.Mode = GPIO_MODE_OUTPUT_PP;
 8000710:	2301      	movs	r3, #1
 8000712:	617b      	str	r3, [r7, #20]
  GPIO_InitStruct.Pull = GPIO_NOPULL;
 8000714:	2300      	movs	r3, #0
 8000716:	61bb      	str	r3, [r7, #24]
  GPIO_InitStruct.Speed = GPIO_SPEED_FREQ_MEDIUM;
 8000718:	2301      	movs	r3, #1
 800071a:	61fb      	str	r3, [r7, #28]
  HAL_GPIO_Init(GPIOB, &GPIO_InitStruct);
 800071c:	f107 0310 	add.w	r3, r7, #16
 8000720:	4619      	mov	r1, r3
 8000722:	481b      	ldr	r0, [pc, #108]	; (8000790 <MX_GPIO_Init+0x150>)
 8000724:	f000 ff5a 	bl	80015dc <HAL_GPIO_Init>

  /*Configure GPIO pins : DCOAC_ICLK_Pin DCOAC_TX_Pin */
  GPIO_InitStruct.Pin = DCOAC_ICLK_Pin|DCOAC_TX_Pin;
 8000728:	f44f 6340 	mov.w	r3, #3072	; 0xc00
 800072c:	613b      	str	r3, [r7, #16]
  GPIO_InitStruct.Mode = GPIO_MODE_INPUT;
 800072e:	2300      	movs	r3, #0
 8000730:	617b      	str	r3, [r7, #20]
  GPIO_InitStruct.Pull = GPIO_NOPULL;
 8000732:	2300      	movs	r3, #0
 8000734:	61bb      	str	r3, [r7, #24]
  HAL_GPIO_Init(GPIOB, &GPIO_InitStruct);
 8000736:	f107 0310 	add.w	r3, r7, #16
 800073a:	4619      	mov	r1, r3
 800073c:	4814      	ldr	r0, [pc, #80]	; (8000790 <MX_GPIO_Init+0x150>)
 800073e:	f000 ff4d 	bl	80015dc <HAL_GPIO_Init>

  /*Configure GPIO pins : SYS_LED_0_Pin SYS_LED_1_Pin */
  GPIO_InitStruct.Pin = SYS_LED_0_Pin|SYS_LED_1_Pin;
 8000742:	f44f 5340 	mov.w	r3, #12288	; 0x3000
 8000746:	613b      	str	r3, [r7, #16]
  GPIO_InitStruct.Mode = GPIO_MODE_OUTPUT_PP;
 8000748:	2301      	movs	r3, #1
 800074a:	617b      	str	r3, [r7, #20]
  GPIO_InitStruct.Pull = GPIO_NOPULL;
 800074c:	2300      	movs	r3, #0
 800074e:	61bb      	str	r3, [r7, #24]
  GPIO_InitStruct.Speed = GPIO_SPEED_FREQ_LOW;
 8000750:	2302      	movs	r3, #2
 8000752:	61fb      	str	r3, [r7, #28]
  HAL_GPIO_Init(GPIOB, &GPIO_InitStruct);
 8000754:	f107 0310 	add.w	r3, r7, #16
 8000758:	4619      	mov	r1, r3
 800075a:	480d      	ldr	r0, [pc, #52]	; (8000790 <MX_GPIO_Init+0x150>)
 800075c:	f000 ff3e 	bl	80015dc <HAL_GPIO_Init>

  /*Configure GPIO pin : POW_CNTR_Pin */
  GPIO_InitStruct.Pin = POW_CNTR_Pin;
 8000760:	f44f 4300 	mov.w	r3, #32768	; 0x8000
 8000764:	613b      	str	r3, [r7, #16]
  GPIO_InitStruct.Mode = GPIO_MODE_OUTPUT_PP;
 8000766:	2301      	movs	r3, #1
 8000768:	617b      	str	r3, [r7, #20]
  GPIO_InitStruct.Pull = GPIO_PULLUP;
 800076a:	2301      	movs	r3, #1
 800076c:	61bb      	str	r3, [r7, #24]
  GPIO_InitStruct.Speed = GPIO_SPEED_FREQ_LOW;
 800076e:	2302      	movs	r3, #2
 8000770:	61fb      	str	r3, [r7, #28]
  HAL_GPIO_Init(POW_CNTR_GPIO_Port, &GPIO_InitStruct);
 8000772:	f107 0310 	add.w	r3, r7, #16
 8000776:	4619      	mov	r1, r3
 8000778:	4805      	ldr	r0, [pc, #20]	; (8000790 <MX_GPIO_Init+0x150>)
 800077a:	f000 ff2f 	bl	80015dc <HAL_GPIO_Init>

}
 800077e:	bf00      	nop
 8000780:	3720      	adds	r7, #32
 8000782:	46bd      	mov	sp, r7
 8000784:	bd80      	pop	{r7, pc}
 8000786:	bf00      	nop
 8000788:	40021000 	.word	0x40021000
 800078c:	40011000 	.word	0x40011000
 8000790:	40010c00 	.word	0x40010c00
 8000794:	40010800 	.word	0x40010800

08000798 <Error_Handler>:
/**
  * @brief  This function is executed in case of error occurrence.
  * @retval None
  */
void Error_Handler(void)
{
 8000798:	b480      	push	{r7}
 800079a:	af00      	add	r7, sp, #0
  \details Disables IRQ interrupts by setting the I-bit in the CPSR.
           Can only be executed in Privileged modes.
 */
__STATIC_FORCEINLINE void __disable_irq(void)
{
  __ASM volatile ("cpsid i" : : : "memory");
 800079c:	b672      	cpsid	i
}
 800079e:	bf00      	nop
  /* USER CODE BEGIN Error_Handler_Debug */
  /* User can add his own implementation to report the HAL error return state */
  __disable_irq();
  while (1)
 80007a0:	e7fe      	b.n	80007a0 <Error_Handler+0x8>
	...

080007a4 <HAL_MspInit>:
/* USER CODE END 0 */
/**
  * Initializes the Global MSP.
  */
void HAL_MspInit(void)
{
 80007a4:	b480      	push	{r7}
 80007a6:	b085      	sub	sp, #20
 80007a8:	af00      	add	r7, sp, #0
  /* USER CODE BEGIN MspInit 0 */

  /* USER CODE END MspInit 0 */

  __HAL_RCC_AFIO_CLK_ENABLE();
 80007aa:	4b15      	ldr	r3, [pc, #84]	; (8000800 <HAL_MspInit+0x5c>)
 80007ac:	699b      	ldr	r3, [r3, #24]
 80007ae:	4a14      	ldr	r2, [pc, #80]	; (8000800 <HAL_MspInit+0x5c>)
 80007b0:	f043 0301 	orr.w	r3, r3, #1
 80007b4:	6193      	str	r3, [r2, #24]
 80007b6:	4b12      	ldr	r3, [pc, #72]	; (8000800 <HAL_MspInit+0x5c>)
 80007b8:	699b      	ldr	r3, [r3, #24]
 80007ba:	f003 0301 	and.w	r3, r3, #1
 80007be:	60bb      	str	r3, [r7, #8]
 80007c0:	68bb      	ldr	r3, [r7, #8]
  __HAL_RCC_PWR_CLK_ENABLE();
 80007c2:	4b0f      	ldr	r3, [pc, #60]	; (8000800 <HAL_MspInit+0x5c>)
 80007c4:	69db      	ldr	r3, [r3, #28]
 80007c6:	4a0e      	ldr	r2, [pc, #56]	; (8000800 <HAL_MspInit+0x5c>)
 80007c8:	f043 5380 	orr.w	r3, r3, #268435456	; 0x10000000
 80007cc:	61d3      	str	r3, [r2, #28]
 80007ce:	4b0c      	ldr	r3, [pc, #48]	; (8000800 <HAL_MspInit+0x5c>)
 80007d0:	69db      	ldr	r3, [r3, #28]
 80007d2:	f003 5380 	and.w	r3, r3, #268435456	; 0x10000000
 80007d6:	607b      	str	r3, [r7, #4]
 80007d8:	687b      	ldr	r3, [r7, #4]

  /* System interrupt init*/

  /** NOJTAG: JTAG-DP Disabled and SW-DP Enabled
  */
  __HAL_AFIO_REMAP_SWJ_NOJTAG();
 80007da:	4b0a      	ldr	r3, [pc, #40]	; (8000804 <HAL_MspInit+0x60>)
 80007dc:	685b      	ldr	r3, [r3, #4]
 80007de:	60fb      	str	r3, [r7, #12]
 80007e0:	68fb      	ldr	r3, [r7, #12]
 80007e2:	f023 63e0 	bic.w	r3, r3, #117440512	; 0x7000000
 80007e6:	60fb      	str	r3, [r7, #12]
 80007e8:	68fb      	ldr	r3, [r7, #12]
 80007ea:	f043 7300 	orr.w	r3, r3, #33554432	; 0x2000000
 80007ee:	60fb      	str	r3, [r7, #12]
 80007f0:	4a04      	ldr	r2, [pc, #16]	; (8000804 <HAL_MspInit+0x60>)
 80007f2:	68fb      	ldr	r3, [r7, #12]
 80007f4:	6053      	str	r3, [r2, #4]

  /* USER CODE BEGIN MspInit 1 */

  /* USER CODE END MspInit 1 */
}
 80007f6:	bf00      	nop
 80007f8:	3714      	adds	r7, #20
 80007fa:	46bd      	mov	sp, r7
 80007fc:	bc80      	pop	{r7}
 80007fe:	4770      	bx	lr
 8000800:	40021000 	.word	0x40021000
 8000804:	40010000 	.word	0x40010000

08000808 <HAL_ADC_MspInit>:
* This function configures the hardware resources used in this example
* @param hadc: ADC handle pointer
* @retval None
*/
void HAL_ADC_MspInit(ADC_HandleTypeDef* hadc)
{
 8000808:	b580      	push	{r7, lr}
 800080a:	b088      	sub	sp, #32
 800080c:	af00      	add	r7, sp, #0
 800080e:	6078      	str	r0, [r7, #4]
  GPIO_InitTypeDef GPIO_InitStruct = {0};
 8000810:	f107 0310 	add.w	r3, r7, #16
 8000814:	2200      	movs	r2, #0
 8000816:	601a      	str	r2, [r3, #0]
 8000818:	605a      	str	r2, [r3, #4]
 800081a:	609a      	str	r2, [r3, #8]
 800081c:	60da      	str	r2, [r3, #12]
  if(hadc->Instance==ADC1)
 800081e:	687b      	ldr	r3, [r7, #4]
 8000820:	681b      	ldr	r3, [r3, #0]
 8000822:	4a14      	ldr	r2, [pc, #80]	; (8000874 <HAL_ADC_MspInit+0x6c>)
 8000824:	4293      	cmp	r3, r2
 8000826:	d121      	bne.n	800086c <HAL_ADC_MspInit+0x64>
  {
  /* USER CODE BEGIN ADC1_MspInit 0 */

  /* USER CODE END ADC1_MspInit 0 */
    /* Peripheral clock enable */
    __HAL_RCC_ADC1_CLK_ENABLE();
 8000828:	4b13      	ldr	r3, [pc, #76]	; (8000878 <HAL_ADC_MspInit+0x70>)
 800082a:	699b      	ldr	r3, [r3, #24]
 800082c:	4a12      	ldr	r2, [pc, #72]	; (8000878 <HAL_ADC_MspInit+0x70>)
 800082e:	f443 7300 	orr.w	r3, r3, #512	; 0x200
 8000832:	6193      	str	r3, [r2, #24]
 8000834:	4b10      	ldr	r3, [pc, #64]	; (8000878 <HAL_ADC_MspInit+0x70>)
 8000836:	699b      	ldr	r3, [r3, #24]
 8000838:	f403 7300 	and.w	r3, r3, #512	; 0x200
 800083c:	60fb      	str	r3, [r7, #12]
 800083e:	68fb      	ldr	r3, [r7, #12]

    __HAL_RCC_GPIOA_CLK_ENABLE();
 8000840:	4b0d      	ldr	r3, [pc, #52]	; (8000878 <HAL_ADC_MspInit+0x70>)
 8000842:	699b      	ldr	r3, [r3, #24]
 8000844:	4a0c      	ldr	r2, [pc, #48]	; (8000878 <HAL_ADC_MspInit+0x70>)
 8000846:	f043 0304 	orr.w	r3, r3, #4
 800084a:	6193      	str	r3, [r2, #24]
 800084c:	4b0a      	ldr	r3, [pc, #40]	; (8000878 <HAL_ADC_MspInit+0x70>)
 800084e:	699b      	ldr	r3, [r3, #24]
 8000850:	f003 0304 	and.w	r3, r3, #4
 8000854:	60bb      	str	r3, [r7, #8]
 8000856:	68bb      	ldr	r3, [r7, #8]
    /**ADC1 GPIO Configuration
    PA0-WKUP     ------> ADC1_IN0
    PA1     ------> ADC1_IN1
    */
    GPIO_InitStruct.Pin = GPIO_PIN_0|GPIO_PIN_1;
 8000858:	2303      	movs	r3, #3
 800085a:	613b      	str	r3, [r7, #16]
    GPIO_InitStruct.Mode = GPIO_MODE_ANALOG;
 800085c:	2303      	movs	r3, #3
 800085e:	617b      	str	r3, [r7, #20]
    HAL_GPIO_Init(GPIOA, &GPIO_InitStruct);
 8000860:	f107 0310 	add.w	r3, r7, #16
 8000864:	4619      	mov	r1, r3
 8000866:	4805      	ldr	r0, [pc, #20]	; (800087c <HAL_ADC_MspInit+0x74>)
 8000868:	f000 feb8 	bl	80015dc <HAL_GPIO_Init>
  /* USER CODE BEGIN ADC1_MspInit 1 */

  /* USER CODE END ADC1_MspInit 1 */
  }

}
 800086c:	bf00      	nop
 800086e:	3720      	adds	r7, #32
 8000870:	46bd      	mov	sp, r7
 8000872:	bd80      	pop	{r7, pc}
 8000874:	40012400 	.word	0x40012400
 8000878:	40021000 	.word	0x40021000
 800087c:	40010800 	.word	0x40010800

08000880 <HAL_I2C_MspInit>:
* This function configures the hardware resources used in this example
* @param hi2c: I2C handle pointer
* @retval None
*/
void HAL_I2C_MspInit(I2C_HandleTypeDef* hi2c)
{
 8000880:	b580      	push	{r7, lr}
 8000882:	b088      	sub	sp, #32
 8000884:	af00      	add	r7, sp, #0
 8000886:	6078      	str	r0, [r7, #4]
  GPIO_InitTypeDef GPIO_InitStruct = {0};
 8000888:	f107 0310 	add.w	r3, r7, #16
 800088c:	2200      	movs	r2, #0
 800088e:	601a      	str	r2, [r3, #0]
 8000890:	605a      	str	r2, [r3, #4]
 8000892:	609a      	str	r2, [r3, #8]
 8000894:	60da      	str	r2, [r3, #12]
  if(hi2c->Instance==I2C1)
 8000896:	687b      	ldr	r3, [r7, #4]
 8000898:	681b      	ldr	r3, [r3, #0]
 800089a:	4a15      	ldr	r2, [pc, #84]	; (80008f0 <HAL_I2C_MspInit+0x70>)
 800089c:	4293      	cmp	r3, r2
 800089e:	d123      	bne.n	80008e8 <HAL_I2C_MspInit+0x68>
  {
  /* USER CODE BEGIN I2C1_MspInit 0 */

  /* USER CODE END I2C1_MspInit 0 */

    __HAL_RCC_GPIOB_CLK_ENABLE();
 80008a0:	4b14      	ldr	r3, [pc, #80]	; (80008f4 <HAL_I2C_MspInit+0x74>)
 80008a2:	699b      	ldr	r3, [r3, #24]
 80008a4:	4a13      	ldr	r2, [pc, #76]	; (80008f4 <HAL_I2C_MspInit+0x74>)
 80008a6:	f043 0308 	orr.w	r3, r3, #8
 80008aa:	6193      	str	r3, [r2, #24]
 80008ac:	4b11      	ldr	r3, [pc, #68]	; (80008f4 <HAL_I2C_MspInit+0x74>)
 80008ae:	699b      	ldr	r3, [r3, #24]
 80008b0:	f003 0308 	and.w	r3, r3, #8
 80008b4:	60fb      	str	r3, [r7, #12]
 80008b6:	68fb      	ldr	r3, [r7, #12]
    /**I2C1 GPIO Configuration
    PB6     ------> I2C1_SCL
    PB7     ------> I2C1_SDA
    */
    GPIO_InitStruct.Pin = GPIO_PIN_6|GPIO_PIN_7;
 80008b8:	23c0      	movs	r3, #192	; 0xc0
 80008ba:	613b      	str	r3, [r7, #16]
    GPIO_InitStruct.Mode = GPIO_MODE_AF_OD;
 80008bc:	2312      	movs	r3, #18
 80008be:	617b      	str	r3, [r7, #20]
    GPIO_InitStruct.Speed = GPIO_SPEED_FREQ_HIGH;
 80008c0:	2303      	movs	r3, #3
 80008c2:	61fb      	str	r3, [r7, #28]
    HAL_GPIO_Init(GPIOB, &GPIO_InitStruct);
 80008c4:	f107 0310 	add.w	r3, r7, #16
 80008c8:	4619      	mov	r1, r3
 80008ca:	480b      	ldr	r0, [pc, #44]	; (80008f8 <HAL_I2C_MspInit+0x78>)
 80008cc:	f000 fe86 	bl	80015dc <HAL_GPIO_Init>

    /* Peripheral clock enable */
    __HAL_RCC_I2C1_CLK_ENABLE();
 80008d0:	4b08      	ldr	r3, [pc, #32]	; (80008f4 <HAL_I2C_MspInit+0x74>)
 80008d2:	69db      	ldr	r3, [r3, #28]
 80008d4:	4a07      	ldr	r2, [pc, #28]	; (80008f4 <HAL_I2C_MspInit+0x74>)
 80008d6:	f443 1300 	orr.w	r3, r3, #2097152	; 0x200000
 80008da:	61d3      	str	r3, [r2, #28]
 80008dc:	4b05      	ldr	r3, [pc, #20]	; (80008f4 <HAL_I2C_MspInit+0x74>)
 80008de:	69db      	ldr	r3, [r3, #28]
 80008e0:	f403 1300 	and.w	r3, r3, #2097152	; 0x200000
 80008e4:	60bb      	str	r3, [r7, #8]
 80008e6:	68bb      	ldr	r3, [r7, #8]
  /* USER CODE BEGIN I2C1_MspInit 1 */

  /* USER CODE END I2C1_MspInit 1 */
  }

}
 80008e8:	bf00      	nop
 80008ea:	3720      	adds	r7, #32
 80008ec:	46bd      	mov	sp, r7
 80008ee:	bd80      	pop	{r7, pc}
 80008f0:	40005400 	.word	0x40005400
 80008f4:	40021000 	.word	0x40021000
 80008f8:	40010c00 	.word	0x40010c00

080008fc <NMI_Handler>:
/******************************************************************************/
/**
  * @brief This function handles Non maskable interrupt.
  */
void NMI_Handler(void)
{
 80008fc:	b480      	push	{r7}
 80008fe:	af00      	add	r7, sp, #0
  /* USER CODE BEGIN NonMaskableInt_IRQn 0 */

  /* USER CODE END NonMaskableInt_IRQn 0 */
  /* USER CODE BEGIN NonMaskableInt_IRQn 1 */
  while (1)
 8000900:	e7fe      	b.n	8000900 <NMI_Handler+0x4>

08000902 <HardFault_Handler>:

/**
  * @brief This function handles Hard fault interrupt.
  */
void HardFault_Handler(void)
{
 8000902:	b480      	push	{r7}
 8000904:	af00      	add	r7, sp, #0
  /* USER CODE BEGIN HardFault_IRQn 0 */

  /* USER CODE END HardFault_IRQn 0 */
  while (1)
 8000906:	e7fe      	b.n	8000906 <HardFault_Handler+0x4>

08000908 <MemManage_Handler>:

/**
  * @brief This function handles Memory management fault.
  */
void MemManage_Handler(void)
{
 8000908:	b480      	push	{r7}
 800090a:	af00      	add	r7, sp, #0
  /* USER CODE BEGIN MemoryManagement_IRQn 0 */

  /* USER CODE END MemoryManagement_IRQn 0 */
  while (1)
 800090c:	e7fe      	b.n	800090c <MemManage_Handler+0x4>

0800090e <BusFault_Handler>:

/**
  * @brief This function handles Prefetch fault, memory access fault.
  */
void BusFault_Handler(void)
{
 800090e:	b480      	push	{r7}
 8000910:	af00      	add	r7, sp, #0
  /* USER CODE BEGIN BusFault_IRQn 0 */

  /* USER CODE END BusFault_IRQn 0 */
  while (1)
 8000912:	e7fe      	b.n	8000912 <BusFault_Handler+0x4>

08000914 <UsageFault_Handler>:

/**
  * @brief This function handles Undefined instruction or illegal state.
  */
void UsageFault_Handler(void)
{
 8000914:	b480      	push	{r7}
 8000916:	af00      	add	r7, sp, #0
  /* USER CODE BEGIN UsageFault_IRQn 0 */

  /* USER CODE END UsageFault_IRQn 0 */
  while (1)
 8000918:	e7fe      	b.n	8000918 <UsageFault_Handler+0x4>

0800091a <SVC_Handler>:

/**
  * @brief This function handles System service call via SWI instruction.
  */
void SVC_Handler(void)
{
 800091a:	b480      	push	{r7}
 800091c:	af00      	add	r7, sp, #0

  /* USER CODE END SVCall_IRQn 0 */
  /* USER CODE BEGIN SVCall_IRQn 1 */

  /* USER CODE END SVCall_IRQn 1 */
}
 800091e:	bf00      	nop
 8000920:	46bd      	mov	sp, r7
 8000922:	bc80      	pop	{r7}
 8000924:	4770      	bx	lr

08000926 <DebugMon_Handler>:

/**
  * @brief This function handles Debug monitor.
  */
void DebugMon_Handler(void)
{
 8000926:	b480      	push	{r7}
 8000928:	af00      	add	r7, sp, #0

  /* USER CODE END DebugMonitor_IRQn 0 */
  /* USER CODE BEGIN DebugMonitor_IRQn 1 */

  /* USER CODE END DebugMonitor_IRQn 1 */
}
 800092a:	bf00      	nop
 800092c:	46bd      	mov	sp, r7
 800092e:	bc80      	pop	{r7}
 8000930:	4770      	bx	lr

08000932 <PendSV_Handler>:

/**
  * @brief This function handles Pendable request for system service.
  */
void PendSV_Handler(void)
{
 8000932:	b480      	push	{r7}
 8000934:	af00      	add	r7, sp, #0

  /* USER CODE END PendSV_IRQn 0 */
  /* USER CODE BEGIN PendSV_IRQn 1 */

  /* USER CODE END PendSV_IRQn 1 */
}
 8000936:	bf00      	nop
 8000938:	46bd      	mov	sp, r7
 800093a:	bc80      	pop	{r7}
 800093c:	4770      	bx	lr

0800093e <SysTick_Handler>:

/**
  * @brief This function handles System tick timer.
  */
void SysTick_Handler(void)
{
 800093e:	b580      	push	{r7, lr}
 8000940:	af00      	add	r7, sp, #0
  /* USER CODE BEGIN SysTick_IRQn 0 */

  /* USER CODE END SysTick_IRQn 0 */
  HAL_IncTick();
 8000942:	f000 faeb 	bl	8000f1c <HAL_IncTick>
  /* USER CODE BEGIN SysTick_IRQn 1 */

  /* USER CODE END SysTick_IRQn 1 */
}
 8000946:	bf00      	nop
 8000948:	bd80      	pop	{r7, pc}
	...

0800094c <USB_LP_CAN1_RX0_IRQHandler>:

/**
  * @brief This function handles USB low priority or CAN RX0 interrupts.
  */
void USB_LP_CAN1_RX0_IRQHandler(void)
{
 800094c:	b580      	push	{r7, lr}
 800094e:	af00      	add	r7, sp, #0
  /* USER CODE BEGIN USB_LP_CAN1_RX0_IRQn 0 */

  /* USER CODE END USB_LP_CAN1_RX0_IRQn 0 */
  HAL_PCD_IRQHandler(&hpcd_USB_FS);
 8000950:	4802      	ldr	r0, [pc, #8]	; (800095c <USB_LP_CAN1_RX0_IRQHandler+0x10>)
 8000952:	f001 fd6a 	bl	800242a <HAL_PCD_IRQHandler>
  /* USER CODE BEGIN USB_LP_CAN1_RX0_IRQn 1 */

  /* USER CODE END USB_LP_CAN1_RX0_IRQn 1 */
}
 8000956:	bf00      	nop
 8000958:	bd80      	pop	{r7, pc}
 800095a:	bf00      	nop
 800095c:	20001130 	.word	0x20001130

08000960 <_sbrk>:
 *
 * @param incr Memory size
 * @return Pointer to allocated memory
 */
void *_sbrk(ptrdiff_t incr)
{
 8000960:	b580      	push	{r7, lr}
 8000962:	b086      	sub	sp, #24
 8000964:	af00      	add	r7, sp, #0
 8000966:	6078      	str	r0, [r7, #4]
  extern uint8_t _end; /* Symbol defined in the linker script */
  extern uint8_t _estack; /* Symbol defined in the linker script */
  extern uint32_t _Min_Stack_Size; /* Symbol defined in the linker script */
  const uint32_t stack_limit = (uint32_t)&_estack - (uint32_t)&_Min_Stack_Size;
 8000968:	4a14      	ldr	r2, [pc, #80]	; (80009bc <_sbrk+0x5c>)
 800096a:	4b15      	ldr	r3, [pc, #84]	; (80009c0 <_sbrk+0x60>)
 800096c:	1ad3      	subs	r3, r2, r3
 800096e:	617b      	str	r3, [r7, #20]
  const uint8_t *max_heap = (uint8_t *)stack_limit;
 8000970:	697b      	ldr	r3, [r7, #20]
 8000972:	613b      	str	r3, [r7, #16]
  uint8_t *prev_heap_end;

  /* Initialize heap end at first call */
  if (NULL == __sbrk_heap_end)
 8000974:	4b13      	ldr	r3, [pc, #76]	; (80009c4 <_sbrk+0x64>)
 8000976:	681b      	ldr	r3, [r3, #0]
 8000978:	2b00      	cmp	r3, #0
 800097a:	d102      	bne.n	8000982 <_sbrk+0x22>
  {
    __sbrk_heap_end = &_end;
 800097c:	4b11      	ldr	r3, [pc, #68]	; (80009c4 <_sbrk+0x64>)
 800097e:	4a12      	ldr	r2, [pc, #72]	; (80009c8 <_sbrk+0x68>)
 8000980:	601a      	str	r2, [r3, #0]
  }

  /* Protect heap from growing into the reserved MSP stack */
  if (__sbrk_heap_end + incr > max_heap)
 8000982:	4b10      	ldr	r3, [pc, #64]	; (80009c4 <_sbrk+0x64>)
 8000984:	681a      	ldr	r2, [r3, #0]
 8000986:	687b      	ldr	r3, [r7, #4]
 8000988:	4413      	add	r3, r2
 800098a:	693a      	ldr	r2, [r7, #16]
 800098c:	429a      	cmp	r2, r3
 800098e:	d207      	bcs.n	80009a0 <_sbrk+0x40>
  {
    errno = ENOMEM;
 8000990:	f008 fb1c 	bl	8008fcc <__errno>
 8000994:	4603      	mov	r3, r0
 8000996:	220c      	movs	r2, #12
 8000998:	601a      	str	r2, [r3, #0]
    return (void *)-1;
 800099a:	f04f 33ff 	mov.w	r3, #4294967295	; 0xffffffff
 800099e:	e009      	b.n	80009b4 <_sbrk+0x54>
  }

  prev_heap_end = __sbrk_heap_end;
 80009a0:	4b08      	ldr	r3, [pc, #32]	; (80009c4 <_sbrk+0x64>)
 80009a2:	681b      	ldr	r3, [r3, #0]
 80009a4:	60fb      	str	r3, [r7, #12]
  __sbrk_heap_end += incr;
 80009a6:	4b07      	ldr	r3, [pc, #28]	; (80009c4 <_sbrk+0x64>)
 80009a8:	681a      	ldr	r2, [r3, #0]
 80009aa:	687b      	ldr	r3, [r7, #4]
 80009ac:	4413      	add	r3, r2
 80009ae:	4a05      	ldr	r2, [pc, #20]	; (80009c4 <_sbrk+0x64>)
 80009b0:	6013      	str	r3, [r2, #0]

  return (void *)prev_heap_end;
 80009b2:	68fb      	ldr	r3, [r7, #12]
}
 80009b4:	4618      	mov	r0, r3
 80009b6:	3718      	adds	r7, #24
 80009b8:	46bd      	mov	sp, r7
 80009ba:	bd80      	pop	{r7, pc}
 80009bc:	20005000 	.word	0x20005000
 80009c0:	00000400 	.word	0x00000400
 80009c4:	20000288 	.word	0x20000288
 80009c8:	20001650 	.word	0x20001650

080009cc <SystemInit>:
  * @note   This function should be used only after reset.
  * @param  None
  * @retval None
  */
void SystemInit (void)
{
 80009cc:	b480      	push	{r7}
 80009ce:	af00      	add	r7, sp, #0

  /* Configure the Vector Table location -------------------------------------*/
#if defined(USER_VECT_TAB_ADDRESS)
  SCB->VTOR = VECT_TAB_BASE_ADDRESS | VECT_TAB_OFFSET; /* Vector Table Relocation in Internal SRAM. */
#endif /* USER_VECT_TAB_ADDRESS */
}
 80009d0:	bf00      	nop
 80009d2:	46bd      	mov	sp, r7
 80009d4:	bc80      	pop	{r7}
 80009d6:	4770      	bx	lr

080009d8 <ssd1306_Reset>:
#include <stdlib.h>
#include <string.h>  // For memcpy

#if defined(SSD1306_USE_I2C)

void ssd1306_Reset(void) {
 80009d8:	b480      	push	{r7}
 80009da:	af00      	add	r7, sp, #0
    /* for I2C - do nothing */
}
 80009dc:	bf00      	nop
 80009de:	46bd      	mov	sp, r7
 80009e0:	bc80      	pop	{r7}
 80009e2:	4770      	bx	lr

080009e4 <ssd1306_WriteCommand>:

// Send a byte to the command register
void ssd1306_WriteCommand(uint8_t byte) {
 80009e4:	b580      	push	{r7, lr}
 80009e6:	b086      	sub	sp, #24
 80009e8:	af04      	add	r7, sp, #16
 80009ea:	4603      	mov	r3, r0
 80009ec:	71fb      	strb	r3, [r7, #7]
    HAL_I2C_Mem_Write(&SSD1306_I2C_PORT, SSD1306_I2C_ADDR, 0x00, 1, &byte, 1, HAL_MAX_DELAY);
 80009ee:	f04f 33ff 	mov.w	r3, #4294967295	; 0xffffffff
 80009f2:	9302      	str	r3, [sp, #8]
 80009f4:	2301      	movs	r3, #1
 80009f6:	9301      	str	r3, [sp, #4]
 80009f8:	1dfb      	adds	r3, r7, #7
 80009fa:	9300      	str	r3, [sp, #0]
 80009fc:	2301      	movs	r3, #1
 80009fe:	2200      	movs	r2, #0
 8000a00:	2178      	movs	r1, #120	; 0x78
 8000a02:	4803      	ldr	r0, [pc, #12]	; (8000a10 <ssd1306_WriteCommand+0x2c>)
 8000a04:	f001 f8ca 	bl	8001b9c <HAL_I2C_Mem_Write>
}
 8000a08:	bf00      	nop
 8000a0a:	3708      	adds	r7, #8
 8000a0c:	46bd      	mov	sp, r7
 8000a0e:	bd80      	pop	{r7, pc}
 8000a10:	20000234 	.word	0x20000234

08000a14 <ssd1306_WriteData>:

// Send data
void ssd1306_WriteData(uint8_t* buffer, size_t buff_size) {
 8000a14:	b580      	push	{r7, lr}
 8000a16:	b086      	sub	sp, #24
 8000a18:	af04      	add	r7, sp, #16
 8000a1a:	6078      	str	r0, [r7, #4]
 8000a1c:	6039      	str	r1, [r7, #0]
    HAL_I2C_Mem_Write(&SSD1306_I2C_PORT, SSD1306_I2C_ADDR, 0x40, 1, buffer, buff_size, HAL_MAX_DELAY);
 8000a1e:	683b      	ldr	r3, [r7, #0]
 8000a20:	b29b      	uxth	r3, r3
 8000a22:	f04f 32ff 	mov.w	r2, #4294967295	; 0xffffffff
 8000a26:	9202      	str	r2, [sp, #8]
 8000a28:	9301      	str	r3, [sp, #4]
 8000a2a:	687b      	ldr	r3, [r7, #4]
 8000a2c:	9300      	str	r3, [sp, #0]
 8000a2e:	2301      	movs	r3, #1
 8000a30:	2240      	movs	r2, #64	; 0x40
 8000a32:	2178      	movs	r1, #120	; 0x78
 8000a34:	4803      	ldr	r0, [pc, #12]	; (8000a44 <ssd1306_WriteData+0x30>)
 8000a36:	f001 f8b1 	bl	8001b9c <HAL_I2C_Mem_Write>
}
 8000a3a:	bf00      	nop
 8000a3c:	3708      	adds	r7, #8
 8000a3e:	46bd      	mov	sp, r7
 8000a40:	bd80      	pop	{r7, pc}
 8000a42:	bf00      	nop
 8000a44:	20000234 	.word	0x20000234

08000a48 <ssd1306_Init>:
    }
    return ret;
}

// Initialize the oled screen
void ssd1306_Init(void) {
 8000a48:	b580      	push	{r7, lr}
 8000a4a:	af00      	add	r7, sp, #0
    // Reset OLED
    ssd1306_Reset();
 8000a4c:	f7ff ffc4 	bl	80009d8 <ssd1306_Reset>

    // Wait for the screen to boot
    HAL_Delay(100);
 8000a50:	2064      	movs	r0, #100	; 0x64
 8000a52:	f000 fa7f 	bl	8000f54 <HAL_Delay>

    // Init OLED
    ssd1306_SetDisplayOn(0); //display off
 8000a56:	2000      	movs	r0, #0
 8000a58:	f000 f9d6 	bl	8000e08 <ssd1306_SetDisplayOn>

    ssd1306_WriteCommand(0x20); //Set Memory Addressing Mode
 8000a5c:	2020      	movs	r0, #32
 8000a5e:	f7ff ffc1 	bl	80009e4 <ssd1306_WriteCommand>
    ssd1306_WriteCommand(0x00); // 00b,Horizontal Addressing Mode; 01b,Vertical Addressing Mode;
 8000a62:	2000      	movs	r0, #0
 8000a64:	f7ff ffbe 	bl	80009e4 <ssd1306_WriteCommand>
                                // 10b,Page Addressing Mode (RESET); 11b,Invalid

    ssd1306_WriteCommand(0xB0); //Set Page Start Address for Page Addressing Mode,0-7
 8000a68:	20b0      	movs	r0, #176	; 0xb0
 8000a6a:	f7ff ffbb 	bl	80009e4 <ssd1306_WriteCommand>

#ifdef SSD1306_MIRROR_VERT
    ssd1306_WriteCommand(0xC0); // Mirror vertically
#else
    ssd1306_WriteCommand(0xC8); //Set COM Output Scan Direction
 8000a6e:	20c8      	movs	r0, #200	; 0xc8
 8000a70:	f7ff ffb8 	bl	80009e4 <ssd1306_WriteCommand>
#endif

    ssd1306_WriteCommand(0x00); //---set low column address
 8000a74:	2000      	movs	r0, #0
 8000a76:	f7ff ffb5 	bl	80009e4 <ssd1306_WriteCommand>
    ssd1306_WriteCommand(0x10); //---set high column address
 8000a7a:	2010      	movs	r0, #16
 8000a7c:	f7ff ffb2 	bl	80009e4 <ssd1306_WriteCommand>

    ssd1306_WriteCommand(0x40); //--set start line address - CHECK
 8000a80:	2040      	movs	r0, #64	; 0x40
 8000a82:	f7ff ffaf 	bl	80009e4 <ssd1306_WriteCommand>

    ssd1306_SetContrast(0xFF);
 8000a86:	20ff      	movs	r0, #255	; 0xff
 8000a88:	f000 f9aa 	bl	8000de0 <ssd1306_SetContrast>

#ifdef SSD1306_MIRROR_HORIZ
    ssd1306_WriteCommand(0xA0); // Mirror horizontally
#else
    ssd1306_WriteCommand(0xA1); //--set segment re-map 0 to 127 - CHECK
 8000a8c:	20a1      	movs	r0, #161	; 0xa1
 8000a8e:	f7ff ffa9 	bl	80009e4 <ssd1306_WriteCommand>
#endif

#ifdef SSD1306_INVERSE_COLOR
    ssd1306_WriteCommand(0xA7); //--set inverse color
#else
    ssd1306_WriteCommand(0xA6); //--set normal color
 8000a92:	20a6      	movs	r0, #166	; 0xa6
 8000a94:	f7ff ffa6 	bl	80009e4 <ssd1306_WriteCommand>
// Set multiplex ratio.
#if (SSD1306_HEIGHT == 128)
    // Found in the Luma Python lib for SH1106.
    ssd1306_WriteCommand(0xFF);
#else
    ssd1306_WriteCommand(0xA8); //--set multiplex ratio(1 to 64) - CHECK
 8000a98:	20a8      	movs	r0, #168	; 0xa8
 8000a9a:	f7ff ffa3 	bl	80009e4 <ssd1306_WriteCommand>
#endif

#if (SSD1306_HEIGHT == 32)
    ssd1306_WriteCommand(0x1F); //
 8000a9e:	201f      	movs	r0, #31
 8000aa0:	f7ff ffa0 	bl	80009e4 <ssd1306_WriteCommand>
    ssd1306_WriteCommand(0x3F); // Seems to work for 128px high displays too.
#else
#error "Only 32, 64, or 128 lines of height are supported!"
#endif

    ssd1306_WriteCommand(0xA4); //0xa4,Output follows RAM content;0xa5,Output ignores RAM content
 8000aa4:	20a4      	movs	r0, #164	; 0xa4
 8000aa6:	f7ff ff9d 	bl	80009e4 <ssd1306_WriteCommand>

    ssd1306_WriteCommand(0xD3); //-set display offset - CHECK
 8000aaa:	20d3      	movs	r0, #211	; 0xd3
 8000aac:	f7ff ff9a 	bl	80009e4 <ssd1306_WriteCommand>
    ssd1306_WriteCommand(0x00); //-not offset
 8000ab0:	2000      	movs	r0, #0
 8000ab2:	f7ff ff97 	bl	80009e4 <ssd1306_WriteCommand>

    ssd1306_WriteCommand(0xD5); //--set display clock divide ratio/oscillator frequency
 8000ab6:	20d5      	movs	r0, #213	; 0xd5
 8000ab8:	f7ff ff94 	bl	80009e4 <ssd1306_WriteCommand>
    ssd1306_WriteCommand(0xF0); //--set divide ratio
 8000abc:	20f0      	movs	r0, #240	; 0xf0
 8000abe:	f7ff ff91 	bl	80009e4 <ssd1306_WriteCommand>

    ssd1306_WriteCommand(0xD9); //--set pre-charge period
 8000ac2:	20d9      	movs	r0, #217	; 0xd9
 8000ac4:	f7ff ff8e 	bl	80009e4 <ssd1306_WriteCommand>
    ssd1306_WriteCommand(0x22); //
 8000ac8:	2022      	movs	r0, #34	; 0x22
 8000aca:	f7ff ff8b 	bl	80009e4 <ssd1306_WriteCommand>

    ssd1306_WriteCommand(0xDA); //--set com pins hardware configuration - CHECK
 8000ace:	20da      	movs	r0, #218	; 0xda
 8000ad0:	f7ff ff88 	bl	80009e4 <ssd1306_WriteCommand>
#if (SSD1306_HEIGHT == 32)
    ssd1306_WriteCommand(0x02);
 8000ad4:	2002      	movs	r0, #2
 8000ad6:	f7ff ff85 	bl	80009e4 <ssd1306_WriteCommand>
    ssd1306_WriteCommand(0x12);
#else
#error "Only 32, 64, or 128 lines of height are supported!"
#endif

    ssd1306_WriteCommand(0xDB); //--set vcomh
 8000ada:	20db      	movs	r0, #219	; 0xdb
 8000adc:	f7ff ff82 	bl	80009e4 <ssd1306_WriteCommand>
    ssd1306_WriteCommand(0x20); //0x20,0.77xVcc
 8000ae0:	2020      	movs	r0, #32
 8000ae2:	f7ff ff7f 	bl	80009e4 <ssd1306_WriteCommand>

    ssd1306_WriteCommand(0x8D); //--set DC-DC enable
 8000ae6:	208d      	movs	r0, #141	; 0x8d
 8000ae8:	f7ff ff7c 	bl	80009e4 <ssd1306_WriteCommand>
    ssd1306_WriteCommand(0x14); //
 8000aec:	2014      	movs	r0, #20
 8000aee:	f7ff ff79 	bl	80009e4 <ssd1306_WriteCommand>
    ssd1306_SetDisplayOn(1); //--turn on SSD1306 panel
 8000af2:	2001      	movs	r0, #1
 8000af4:	f000 f988 	bl	8000e08 <ssd1306_SetDisplayOn>

    // Clear screen
    ssd1306_Fill(Black);
 8000af8:	2000      	movs	r0, #0
 8000afa:	f000 f80f 	bl	8000b1c <ssd1306_Fill>
    
    // Flush buffer to screen
    ssd1306_UpdateScreen();
 8000afe:	f000 f82f 	bl	8000b60 <ssd1306_UpdateScreen>
    
    // Set default values for screen object
    SSD1306.CurrentX = 0;
 8000b02:	4b05      	ldr	r3, [pc, #20]	; (8000b18 <ssd1306_Init+0xd0>)
 8000b04:	2200      	movs	r2, #0
 8000b06:	801a      	strh	r2, [r3, #0]
    SSD1306.CurrentY = 0;
 8000b08:	4b03      	ldr	r3, [pc, #12]	; (8000b18 <ssd1306_Init+0xd0>)
 8000b0a:	2200      	movs	r2, #0
 8000b0c:	805a      	strh	r2, [r3, #2]
    
    SSD1306.Initialized = 1;
 8000b0e:	4b02      	ldr	r3, [pc, #8]	; (8000b18 <ssd1306_Init+0xd0>)
 8000b10:	2201      	movs	r2, #1
 8000b12:	711a      	strb	r2, [r3, #4]
}
 8000b14:	bf00      	nop
 8000b16:	bd80      	pop	{r7, pc}
 8000b18:	2000048c 	.word	0x2000048c

08000b1c <ssd1306_Fill>:

// Fill the whole screen with the given color
void ssd1306_Fill(SSD1306_COLOR color) {
 8000b1c:	b480      	push	{r7}
 8000b1e:	b085      	sub	sp, #20
 8000b20:	af00      	add	r7, sp, #0
 8000b22:	4603      	mov	r3, r0
 8000b24:	71fb      	strb	r3, [r7, #7]
    /* Set memory */
    uint32_t i;

    for(i = 0; i < sizeof(SSD1306_Buffer); i++) {
 8000b26:	2300      	movs	r3, #0
 8000b28:	60fb      	str	r3, [r7, #12]
 8000b2a:	e00d      	b.n	8000b48 <ssd1306_Fill+0x2c>
        SSD1306_Buffer[i] = (color == Black) ? 0x00 : 0xFF;
 8000b2c:	79fb      	ldrb	r3, [r7, #7]
 8000b2e:	2b00      	cmp	r3, #0
 8000b30:	d101      	bne.n	8000b36 <ssd1306_Fill+0x1a>
 8000b32:	2100      	movs	r1, #0
 8000b34:	e000      	b.n	8000b38 <ssd1306_Fill+0x1c>
 8000b36:	21ff      	movs	r1, #255	; 0xff
 8000b38:	4a08      	ldr	r2, [pc, #32]	; (8000b5c <ssd1306_Fill+0x40>)
 8000b3a:	68fb      	ldr	r3, [r7, #12]
 8000b3c:	4413      	add	r3, r2
 8000b3e:	460a      	mov	r2, r1
 8000b40:	701a      	strb	r2, [r3, #0]
    for(i = 0; i < sizeof(SSD1306_Buffer); i++) {
 8000b42:	68fb      	ldr	r3, [r7, #12]
 8000b44:	3301      	adds	r3, #1
 8000b46:	60fb      	str	r3, [r7, #12]
 8000b48:	68fb      	ldr	r3, [r7, #12]
 8000b4a:	f5b3 7f00 	cmp.w	r3, #512	; 0x200
 8000b4e:	d3ed      	bcc.n	8000b2c <ssd1306_Fill+0x10>
    }
}
 8000b50:	bf00      	nop
 8000b52:	bf00      	nop
 8000b54:	3714      	adds	r7, #20
 8000b56:	46bd      	mov	sp, r7
 8000b58:	bc80      	pop	{r7}
 8000b5a:	4770      	bx	lr
 8000b5c:	2000028c 	.word	0x2000028c

08000b60 <ssd1306_UpdateScreen>:

// Write the screenbuffer with changed to the screen
void ssd1306_UpdateScreen(void) {
 8000b60:	b580      	push	{r7, lr}
 8000b62:	b082      	sub	sp, #8
 8000b64:	af00      	add	r7, sp, #0
    // depends on the screen height:
    //
    //  * 32px   ==  4 pages
    //  * 64px   ==  8 pages
    //  * 128px  ==  16 pages
    for(uint8_t i = 0; i < SSD1306_HEIGHT/8; i++) {
 8000b66:	2300      	movs	r3, #0
 8000b68:	71fb      	strb	r3, [r7, #7]
 8000b6a:	e016      	b.n	8000b9a <ssd1306_UpdateScreen+0x3a>
        ssd1306_WriteCommand(0xB0 + i); // Set the current RAM page address.
 8000b6c:	79fb      	ldrb	r3, [r7, #7]
 8000b6e:	3b50      	subs	r3, #80	; 0x50
 8000b70:	b2db      	uxtb	r3, r3
 8000b72:	4618      	mov	r0, r3
 8000b74:	f7ff ff36 	bl	80009e4 <ssd1306_WriteCommand>
        ssd1306_WriteCommand(0x00 + SSD1306_X_OFFSET_LOWER);
 8000b78:	2000      	movs	r0, #0
 8000b7a:	f7ff ff33 	bl	80009e4 <ssd1306_WriteCommand>
        ssd1306_WriteCommand(0x10 + SSD1306_X_OFFSET_UPPER);
 8000b7e:	2010      	movs	r0, #16
 8000b80:	f7ff ff30 	bl	80009e4 <ssd1306_WriteCommand>
        ssd1306_WriteData(&SSD1306_Buffer[SSD1306_WIDTH*i],SSD1306_WIDTH);
 8000b84:	79fb      	ldrb	r3, [r7, #7]
 8000b86:	01db      	lsls	r3, r3, #7
 8000b88:	4a08      	ldr	r2, [pc, #32]	; (8000bac <ssd1306_UpdateScreen+0x4c>)
 8000b8a:	4413      	add	r3, r2
 8000b8c:	2180      	movs	r1, #128	; 0x80
 8000b8e:	4618      	mov	r0, r3
 8000b90:	f7ff ff40 	bl	8000a14 <ssd1306_WriteData>
    for(uint8_t i = 0; i < SSD1306_HEIGHT/8; i++) {
 8000b94:	79fb      	ldrb	r3, [r7, #7]
 8000b96:	3301      	adds	r3, #1
 8000b98:	71fb      	strb	r3, [r7, #7]
 8000b9a:	79fb      	ldrb	r3, [r7, #7]
 8000b9c:	2b03      	cmp	r3, #3
 8000b9e:	d9e5      	bls.n	8000b6c <ssd1306_UpdateScreen+0xc>
    }
}
 8000ba0:	bf00      	nop
 8000ba2:	bf00      	nop
 8000ba4:	3708      	adds	r7, #8
 8000ba6:	46bd      	mov	sp, r7
 8000ba8:	bd80      	pop	{r7, pc}
 8000baa:	bf00      	nop
 8000bac:	2000028c 	.word	0x2000028c

08000bb0 <ssd1306_DrawPixel>:

//    Draw one pixel in the screenbuffer
//    X => X Coordinate
//    Y => Y Coordinate
//    color => Pixel color
void ssd1306_DrawPixel(uint8_t x, uint8_t y, SSD1306_COLOR color) {
 8000bb0:	b480      	push	{r7}
 8000bb2:	b083      	sub	sp, #12
 8000bb4:	af00      	add	r7, sp, #0
 8000bb6:	4603      	mov	r3, r0
 8000bb8:	71fb      	strb	r3, [r7, #7]
 8000bba:	460b      	mov	r3, r1
 8000bbc:	71bb      	strb	r3, [r7, #6]
 8000bbe:	4613      	mov	r3, r2
 8000bc0:	717b      	strb	r3, [r7, #5]
    if(x >= SSD1306_WIDTH || y >= SSD1306_HEIGHT) {
 8000bc2:	f997 3007 	ldrsb.w	r3, [r7, #7]
 8000bc6:	2b00      	cmp	r3, #0
 8000bc8:	db3d      	blt.n	8000c46 <ssd1306_DrawPixel+0x96>
 8000bca:	79bb      	ldrb	r3, [r7, #6]
 8000bcc:	2b1f      	cmp	r3, #31
 8000bce:	d83a      	bhi.n	8000c46 <ssd1306_DrawPixel+0x96>
        // Don't write outside the buffer
        return;
    }
   
    // Draw in the right color
    if(color == White) {
 8000bd0:	797b      	ldrb	r3, [r7, #5]
 8000bd2:	2b01      	cmp	r3, #1
 8000bd4:	d11a      	bne.n	8000c0c <ssd1306_DrawPixel+0x5c>
        SSD1306_Buffer[x + (y / 8) * SSD1306_WIDTH] |= 1 << (y % 8);
 8000bd6:	79fa      	ldrb	r2, [r7, #7]
 8000bd8:	79bb      	ldrb	r3, [r7, #6]
 8000bda:	08db      	lsrs	r3, r3, #3
 8000bdc:	b2d8      	uxtb	r0, r3
 8000bde:	4603      	mov	r3, r0
 8000be0:	01db      	lsls	r3, r3, #7
 8000be2:	4413      	add	r3, r2
 8000be4:	4a1a      	ldr	r2, [pc, #104]	; (8000c50 <ssd1306_DrawPixel+0xa0>)
 8000be6:	5cd3      	ldrb	r3, [r2, r3]
 8000be8:	b25a      	sxtb	r2, r3
 8000bea:	79bb      	ldrb	r3, [r7, #6]
 8000bec:	f003 0307 	and.w	r3, r3, #7
 8000bf0:	2101      	movs	r1, #1
 8000bf2:	fa01 f303 	lsl.w	r3, r1, r3
 8000bf6:	b25b      	sxtb	r3, r3
 8000bf8:	4313      	orrs	r3, r2
 8000bfa:	b259      	sxtb	r1, r3
 8000bfc:	79fa      	ldrb	r2, [r7, #7]
 8000bfe:	4603      	mov	r3, r0
 8000c00:	01db      	lsls	r3, r3, #7
 8000c02:	4413      	add	r3, r2
 8000c04:	b2c9      	uxtb	r1, r1
 8000c06:	4a12      	ldr	r2, [pc, #72]	; (8000c50 <ssd1306_DrawPixel+0xa0>)
 8000c08:	54d1      	strb	r1, [r2, r3]
 8000c0a:	e01d      	b.n	8000c48 <ssd1306_DrawPixel+0x98>
    } else { 
        SSD1306_Buffer[x + (y / 8) * SSD1306_WIDTH] &= ~(1 << (y % 8));
 8000c0c:	79fa      	ldrb	r2, [r7, #7]
 8000c0e:	79bb      	ldrb	r3, [r7, #6]
 8000c10:	08db      	lsrs	r3, r3, #3
 8000c12:	b2d8      	uxtb	r0, r3
 8000c14:	4603      	mov	r3, r0
 8000c16:	01db      	lsls	r3, r3, #7
 8000c18:	4413      	add	r3, r2
 8000c1a:	4a0d      	ldr	r2, [pc, #52]	; (8000c50 <ssd1306_DrawPixel+0xa0>)
 8000c1c:	5cd3      	ldrb	r3, [r2, r3]
 8000c1e:	b25a      	sxtb	r2, r3
 8000c20:	79bb      	ldrb	r3, [r7, #6]
 8000c22:	f003 0307 	and.w	r3, r3, #7
 8000c26:	2101      	movs	r1, #1
 8000c28:	fa01 f303 	lsl.w	r3, r1, r3
 8000c2c:	b25b      	sxtb	r3, r3
 8000c2e:	43db      	mvns	r3, r3
 8000c30:	b25b      	sxtb	r3, r3
 8000c32:	4013      	ands	r3, r2
 8000c34:	b259      	sxtb	r1, r3
 8000c36:	79fa      	ldrb	r2, [r7, #7]
 8000c38:	4603      	mov	r3, r0
 8000c3a:	01db      	lsls	r3, r3, #7
 8000c3c:	4413      	add	r3, r2
 8000c3e:	b2c9      	uxtb	r1, r1
 8000c40:	4a03      	ldr	r2, [pc, #12]	; (8000c50 <ssd1306_DrawPixel+0xa0>)
 8000c42:	54d1      	strb	r1, [r2, r3]
 8000c44:	e000      	b.n	8000c48 <ssd1306_DrawPixel+0x98>
        return;
 8000c46:	bf00      	nop
    }
}
 8000c48:	370c      	adds	r7, #12
 8000c4a:	46bd      	mov	sp, r7
 8000c4c:	bc80      	pop	{r7}
 8000c4e:	4770      	bx	lr
 8000c50:	2000028c 	.word	0x2000028c

08000c54 <ssd1306_WriteChar>:

// Draw 1 char to the screen buffer
// ch       => char om weg te schrijven
// Font     => Font waarmee we gaan schrijven
// color    => Black or White
char ssd1306_WriteChar(char ch, FontDef Font, SSD1306_COLOR color) {
 8000c54:	b590      	push	{r4, r7, lr}
 8000c56:	b089      	sub	sp, #36	; 0x24
 8000c58:	af00      	add	r7, sp, #0
 8000c5a:	4604      	mov	r4, r0
 8000c5c:	1d38      	adds	r0, r7, #4
 8000c5e:	e880 0006 	stmia.w	r0, {r1, r2}
 8000c62:	461a      	mov	r2, r3
 8000c64:	4623      	mov	r3, r4
 8000c66:	73fb      	strb	r3, [r7, #15]
 8000c68:	4613      	mov	r3, r2
 8000c6a:	73bb      	strb	r3, [r7, #14]
    uint32_t i, b, j;
    
    // Check if character is valid
    if (ch < 32 || ch > 126)
 8000c6c:	7bfb      	ldrb	r3, [r7, #15]
 8000c6e:	2b1f      	cmp	r3, #31
 8000c70:	d902      	bls.n	8000c78 <ssd1306_WriteChar+0x24>
 8000c72:	7bfb      	ldrb	r3, [r7, #15]
 8000c74:	2b7e      	cmp	r3, #126	; 0x7e
 8000c76:	d901      	bls.n	8000c7c <ssd1306_WriteChar+0x28>
        return 0;
 8000c78:	2300      	movs	r3, #0
 8000c7a:	e06d      	b.n	8000d58 <ssd1306_WriteChar+0x104>
    
    // Check remaining space on current line
    if (SSD1306_WIDTH < (SSD1306.CurrentX + Font.FontWidth) ||
 8000c7c:	4b38      	ldr	r3, [pc, #224]	; (8000d60 <ssd1306_WriteChar+0x10c>)
 8000c7e:	881b      	ldrh	r3, [r3, #0]
 8000c80:	461a      	mov	r2, r3
 8000c82:	793b      	ldrb	r3, [r7, #4]
 8000c84:	4413      	add	r3, r2
 8000c86:	2b80      	cmp	r3, #128	; 0x80
 8000c88:	dc06      	bgt.n	8000c98 <ssd1306_WriteChar+0x44>
        SSD1306_HEIGHT < (SSD1306.CurrentY + Font.FontHeight))
 8000c8a:	4b35      	ldr	r3, [pc, #212]	; (8000d60 <ssd1306_WriteChar+0x10c>)
 8000c8c:	885b      	ldrh	r3, [r3, #2]
 8000c8e:	461a      	mov	r2, r3
 8000c90:	797b      	ldrb	r3, [r7, #5]
 8000c92:	4413      	add	r3, r2
    if (SSD1306_WIDTH < (SSD1306.CurrentX + Font.FontWidth) ||
 8000c94:	2b20      	cmp	r3, #32
 8000c96:	dd01      	ble.n	8000c9c <ssd1306_WriteChar+0x48>
    {
        // Not enough space on current line
        return 0;
 8000c98:	2300      	movs	r3, #0
 8000c9a:	e05d      	b.n	8000d58 <ssd1306_WriteChar+0x104>
    }
    
    // Use the font to write
    for(i = 0; i < Font.FontHeight; i++) {
 8000c9c:	2300      	movs	r3, #0
 8000c9e:	61fb      	str	r3, [r7, #28]
 8000ca0:	e04c      	b.n	8000d3c <ssd1306_WriteChar+0xe8>
        b = Font.data[(ch - 32) * Font.FontHeight + i];
 8000ca2:	68ba      	ldr	r2, [r7, #8]
 8000ca4:	7bfb      	ldrb	r3, [r7, #15]
 8000ca6:	3b20      	subs	r3, #32
 8000ca8:	7979      	ldrb	r1, [r7, #5]
 8000caa:	fb01 f303 	mul.w	r3, r1, r3
 8000cae:	4619      	mov	r1, r3
 8000cb0:	69fb      	ldr	r3, [r7, #28]
 8000cb2:	440b      	add	r3, r1
 8000cb4:	005b      	lsls	r3, r3, #1
 8000cb6:	4413      	add	r3, r2
 8000cb8:	881b      	ldrh	r3, [r3, #0]
 8000cba:	617b      	str	r3, [r7, #20]
        for(j = 0; j < Font.FontWidth; j++) {
 8000cbc:	2300      	movs	r3, #0
 8000cbe:	61bb      	str	r3, [r7, #24]
 8000cc0:	e034      	b.n	8000d2c <ssd1306_WriteChar+0xd8>
            if((b << j) & 0x8000)  {
 8000cc2:	697a      	ldr	r2, [r7, #20]
 8000cc4:	69bb      	ldr	r3, [r7, #24]
 8000cc6:	fa02 f303 	lsl.w	r3, r2, r3
 8000cca:	f403 4300 	and.w	r3, r3, #32768	; 0x8000
 8000cce:	2b00      	cmp	r3, #0
 8000cd0:	d012      	beq.n	8000cf8 <ssd1306_WriteChar+0xa4>
                ssd1306_DrawPixel(SSD1306.CurrentX + j, (SSD1306.CurrentY + i), (SSD1306_COLOR) color);
 8000cd2:	4b23      	ldr	r3, [pc, #140]	; (8000d60 <ssd1306_WriteChar+0x10c>)
 8000cd4:	881b      	ldrh	r3, [r3, #0]
 8000cd6:	b2da      	uxtb	r2, r3
 8000cd8:	69bb      	ldr	r3, [r7, #24]
 8000cda:	b2db      	uxtb	r3, r3
 8000cdc:	4413      	add	r3, r2
 8000cde:	b2d8      	uxtb	r0, r3
 8000ce0:	4b1f      	ldr	r3, [pc, #124]	; (8000d60 <ssd1306_WriteChar+0x10c>)
 8000ce2:	885b      	ldrh	r3, [r3, #2]
 8000ce4:	b2da      	uxtb	r2, r3
 8000ce6:	69fb      	ldr	r3, [r7, #28]
 8000ce8:	b2db      	uxtb	r3, r3
 8000cea:	4413      	add	r3, r2
 8000cec:	b2db      	uxtb	r3, r3
 8000cee:	7bba      	ldrb	r2, [r7, #14]
 8000cf0:	4619      	mov	r1, r3
 8000cf2:	f7ff ff5d 	bl	8000bb0 <ssd1306_DrawPixel>
 8000cf6:	e016      	b.n	8000d26 <ssd1306_WriteChar+0xd2>
            } else {
                ssd1306_DrawPixel(SSD1306.CurrentX + j, (SSD1306.CurrentY + i), (SSD1306_COLOR)!color);
 8000cf8:	4b19      	ldr	r3, [pc, #100]	; (8000d60 <ssd1306_WriteChar+0x10c>)
 8000cfa:	881b      	ldrh	r3, [r3, #0]
 8000cfc:	b2da      	uxtb	r2, r3
 8000cfe:	69bb      	ldr	r3, [r7, #24]
 8000d00:	b2db      	uxtb	r3, r3
 8000d02:	4413      	add	r3, r2
 8000d04:	b2d8      	uxtb	r0, r3
 8000d06:	4b16      	ldr	r3, [pc, #88]	; (8000d60 <ssd1306_WriteChar+0x10c>)
 8000d08:	885b      	ldrh	r3, [r3, #2]
 8000d0a:	b2da      	uxtb	r2, r3
 8000d0c:	69fb      	ldr	r3, [r7, #28]
 8000d0e:	b2db      	uxtb	r3, r3
 8000d10:	4413      	add	r3, r2
 8000d12:	b2d9      	uxtb	r1, r3
 8000d14:	7bbb      	ldrb	r3, [r7, #14]
 8000d16:	2b00      	cmp	r3, #0
 8000d18:	bf0c      	ite	eq
 8000d1a:	2301      	moveq	r3, #1
 8000d1c:	2300      	movne	r3, #0
 8000d1e:	b2db      	uxtb	r3, r3
 8000d20:	461a      	mov	r2, r3
 8000d22:	f7ff ff45 	bl	8000bb0 <ssd1306_DrawPixel>
        for(j = 0; j < Font.FontWidth; j++) {
 8000d26:	69bb      	ldr	r3, [r7, #24]
 8000d28:	3301      	adds	r3, #1
 8000d2a:	61bb      	str	r3, [r7, #24]
 8000d2c:	793b      	ldrb	r3, [r7, #4]
 8000d2e:	461a      	mov	r2, r3
 8000d30:	69bb      	ldr	r3, [r7, #24]
 8000d32:	4293      	cmp	r3, r2
 8000d34:	d3c5      	bcc.n	8000cc2 <ssd1306_WriteChar+0x6e>
    for(i = 0; i < Font.FontHeight; i++) {
 8000d36:	69fb      	ldr	r3, [r7, #28]
 8000d38:	3301      	adds	r3, #1
 8000d3a:	61fb      	str	r3, [r7, #28]
 8000d3c:	797b      	ldrb	r3, [r7, #5]
 8000d3e:	461a      	mov	r2, r3
 8000d40:	69fb      	ldr	r3, [r7, #28]
 8000d42:	4293      	cmp	r3, r2
 8000d44:	d3ad      	bcc.n	8000ca2 <ssd1306_WriteChar+0x4e>
            }
        }
    }
    
    // The current space is now taken
    SSD1306.CurrentX += Font.FontWidth;
 8000d46:	4b06      	ldr	r3, [pc, #24]	; (8000d60 <ssd1306_WriteChar+0x10c>)
 8000d48:	881a      	ldrh	r2, [r3, #0]
 8000d4a:	793b      	ldrb	r3, [r7, #4]
 8000d4c:	b29b      	uxth	r3, r3
 8000d4e:	4413      	add	r3, r2
 8000d50:	b29a      	uxth	r2, r3
 8000d52:	4b03      	ldr	r3, [pc, #12]	; (8000d60 <ssd1306_WriteChar+0x10c>)
 8000d54:	801a      	strh	r2, [r3, #0]
    
    // Return written char for validation
    return ch;
 8000d56:	7bfb      	ldrb	r3, [r7, #15]
}
 8000d58:	4618      	mov	r0, r3
 8000d5a:	3724      	adds	r7, #36	; 0x24
 8000d5c:	46bd      	mov	sp, r7
 8000d5e:	bd90      	pop	{r4, r7, pc}
 8000d60:	2000048c 	.word	0x2000048c

08000d64 <ssd1306_WriteString>:

// Write full string to screenbuffer
char ssd1306_WriteString(char* str, FontDef Font, SSD1306_COLOR color) {
 8000d64:	b580      	push	{r7, lr}
 8000d66:	b084      	sub	sp, #16
 8000d68:	af00      	add	r7, sp, #0
 8000d6a:	60f8      	str	r0, [r7, #12]
 8000d6c:	1d38      	adds	r0, r7, #4
 8000d6e:	e880 0006 	stmia.w	r0, {r1, r2}
 8000d72:	70fb      	strb	r3, [r7, #3]
    // Write until null-byte
    while (*str) {
 8000d74:	e012      	b.n	8000d9c <ssd1306_WriteString+0x38>
        if (ssd1306_WriteChar(*str, Font, color) != *str) {
 8000d76:	68fb      	ldr	r3, [r7, #12]
 8000d78:	7818      	ldrb	r0, [r3, #0]
 8000d7a:	78fb      	ldrb	r3, [r7, #3]
 8000d7c:	1d3a      	adds	r2, r7, #4
 8000d7e:	ca06      	ldmia	r2, {r1, r2}
 8000d80:	f7ff ff68 	bl	8000c54 <ssd1306_WriteChar>
 8000d84:	4603      	mov	r3, r0
 8000d86:	461a      	mov	r2, r3
 8000d88:	68fb      	ldr	r3, [r7, #12]
 8000d8a:	781b      	ldrb	r3, [r3, #0]
 8000d8c:	429a      	cmp	r2, r3
 8000d8e:	d002      	beq.n	8000d96 <ssd1306_WriteString+0x32>
            // Char could not be written
            return *str;
 8000d90:	68fb      	ldr	r3, [r7, #12]
 8000d92:	781b      	ldrb	r3, [r3, #0]
 8000d94:	e008      	b.n	8000da8 <ssd1306_WriteString+0x44>
        }
        
        // Next char
        str++;
 8000d96:	68fb      	ldr	r3, [r7, #12]
 8000d98:	3301      	adds	r3, #1
 8000d9a:	60fb      	str	r3, [r7, #12]
    while (*str) {
 8000d9c:	68fb      	ldr	r3, [r7, #12]
 8000d9e:	781b      	ldrb	r3, [r3, #0]
 8000da0:	2b00      	cmp	r3, #0
 8000da2:	d1e8      	bne.n	8000d76 <ssd1306_WriteString+0x12>
    }
    
    // Everything ok
    return *str;
 8000da4:	68fb      	ldr	r3, [r7, #12]
 8000da6:	781b      	ldrb	r3, [r3, #0]
}
 8000da8:	4618      	mov	r0, r3
 8000daa:	3710      	adds	r7, #16
 8000dac:	46bd      	mov	sp, r7
 8000dae:	bd80      	pop	{r7, pc}

08000db0 <ssd1306_SetCursor>:

// Position the cursor
void ssd1306_SetCursor(uint8_t x, uint8_t y) {
 8000db0:	b480      	push	{r7}
 8000db2:	b083      	sub	sp, #12
 8000db4:	af00      	add	r7, sp, #0
 8000db6:	4603      	mov	r3, r0
 8000db8:	460a      	mov	r2, r1
 8000dba:	71fb      	strb	r3, [r7, #7]
 8000dbc:	4613      	mov	r3, r2
 8000dbe:	71bb      	strb	r3, [r7, #6]
    SSD1306.CurrentX = x;
 8000dc0:	79fb      	ldrb	r3, [r7, #7]
 8000dc2:	b29a      	uxth	r2, r3
 8000dc4:	4b05      	ldr	r3, [pc, #20]	; (8000ddc <ssd1306_SetCursor+0x2c>)
 8000dc6:	801a      	strh	r2, [r3, #0]
    SSD1306.CurrentY = y;
 8000dc8:	79bb      	ldrb	r3, [r7, #6]
 8000dca:	b29a      	uxth	r2, r3
 8000dcc:	4b03      	ldr	r3, [pc, #12]	; (8000ddc <ssd1306_SetCursor+0x2c>)
 8000dce:	805a      	strh	r2, [r3, #2]
}
 8000dd0:	bf00      	nop
 8000dd2:	370c      	adds	r7, #12
 8000dd4:	46bd      	mov	sp, r7
 8000dd6:	bc80      	pop	{r7}
 8000dd8:	4770      	bx	lr
 8000dda:	bf00      	nop
 8000ddc:	2000048c 	.word	0x2000048c

08000de0 <ssd1306_SetContrast>:
        }
    }
    return;
}

void ssd1306_SetContrast(const uint8_t value) {
 8000de0:	b580      	push	{r7, lr}
 8000de2:	b084      	sub	sp, #16
 8000de4:	af00      	add	r7, sp, #0
 8000de6:	4603      	mov	r3, r0
 8000de8:	71fb      	strb	r3, [r7, #7]
    const uint8_t kSetContrastControlRegister = 0x81;
 8000dea:	2381      	movs	r3, #129	; 0x81
 8000dec:	73fb      	strb	r3, [r7, #15]
    ssd1306_WriteCommand(kSetContrastControlRegister);
 8000dee:	7bfb      	ldrb	r3, [r7, #15]
 8000df0:	4618      	mov	r0, r3
 8000df2:	f7ff fdf7 	bl	80009e4 <ssd1306_WriteCommand>
    ssd1306_WriteCommand(value);
 8000df6:	79fb      	ldrb	r3, [r7, #7]
 8000df8:	4618      	mov	r0, r3
 8000dfa:	f7ff fdf3 	bl	80009e4 <ssd1306_WriteCommand>
}
 8000dfe:	bf00      	nop
 8000e00:	3710      	adds	r7, #16
 8000e02:	46bd      	mov	sp, r7
 8000e04:	bd80      	pop	{r7, pc}
	...

08000e08 <ssd1306_SetDisplayOn>:

void ssd1306_SetDisplayOn(const uint8_t on) {
 8000e08:	b580      	push	{r7, lr}
 8000e0a:	b084      	sub	sp, #16
 8000e0c:	af00      	add	r7, sp, #0
 8000e0e:	4603      	mov	r3, r0
 8000e10:	71fb      	strb	r3, [r7, #7]
    uint8_t value;
    if (on) {
 8000e12:	79fb      	ldrb	r3, [r7, #7]
 8000e14:	2b00      	cmp	r3, #0
 8000e16:	d005      	beq.n	8000e24 <ssd1306_SetDisplayOn+0x1c>
        value = 0xAF;   // Display on
 8000e18:	23af      	movs	r3, #175	; 0xaf
 8000e1a:	73fb      	strb	r3, [r7, #15]
        SSD1306.DisplayOn = 1;
 8000e1c:	4b08      	ldr	r3, [pc, #32]	; (8000e40 <ssd1306_SetDisplayOn+0x38>)
 8000e1e:	2201      	movs	r2, #1
 8000e20:	715a      	strb	r2, [r3, #5]
 8000e22:	e004      	b.n	8000e2e <ssd1306_SetDisplayOn+0x26>
    } else {
        value = 0xAE;   // Display off
 8000e24:	23ae      	movs	r3, #174	; 0xae
 8000e26:	73fb      	strb	r3, [r7, #15]
        SSD1306.DisplayOn = 0;
 8000e28:	4b05      	ldr	r3, [pc, #20]	; (8000e40 <ssd1306_SetDisplayOn+0x38>)
 8000e2a:	2200      	movs	r2, #0
 8000e2c:	715a      	strb	r2, [r3, #5]
    }
    ssd1306_WriteCommand(value);
 8000e2e:	7bfb      	ldrb	r3, [r7, #15]
 8000e30:	4618      	mov	r0, r3
 8000e32:	f7ff fdd7 	bl	80009e4 <ssd1306_WriteCommand>
}
 8000e36:	bf00      	nop
 8000e38:	3710      	adds	r7, #16
 8000e3a:	46bd      	mov	sp, r7
 8000e3c:	bd80      	pop	{r7, pc}
 8000e3e:	bf00      	nop
 8000e40:	2000048c 	.word	0x2000048c

08000e44 <Reset_Handler>:
  .weak Reset_Handler
  .type Reset_Handler, %function
Reset_Handler:

/* Copy the data segment initializers from flash to SRAM */
  movs r1, #0
 8000e44:	2100      	movs	r1, #0
  b LoopCopyDataInit
 8000e46:	e003      	b.n	8000e50 <LoopCopyDataInit>

08000e48 <CopyDataInit>:

CopyDataInit:
  ldr r3, =_sidata
 8000e48:	4b0b      	ldr	r3, [pc, #44]	; (8000e78 <LoopFillZerobss+0x14>)
  ldr r3, [r3, r1]
 8000e4a:	585b      	ldr	r3, [r3, r1]
  str r3, [r0, r1]
 8000e4c:	5043      	str	r3, [r0, r1]
  adds r1, r1, #4
 8000e4e:	3104      	adds	r1, #4

08000e50 <LoopCopyDataInit>:

LoopCopyDataInit:
  ldr r0, =_sdata
 8000e50:	480a      	ldr	r0, [pc, #40]	; (8000e7c <LoopFillZerobss+0x18>)
  ldr r3, =_edata
 8000e52:	4b0b      	ldr	r3, [pc, #44]	; (8000e80 <LoopFillZerobss+0x1c>)
  adds r2, r0, r1
 8000e54:	1842      	adds	r2, r0, r1
  cmp r2, r3
 8000e56:	429a      	cmp	r2, r3
  bcc CopyDataInit
 8000e58:	d3f6      	bcc.n	8000e48 <CopyDataInit>
  ldr r2, =_sbss
 8000e5a:	4a0a      	ldr	r2, [pc, #40]	; (8000e84 <LoopFillZerobss+0x20>)
  b LoopFillZerobss
 8000e5c:	e002      	b.n	8000e64 <LoopFillZerobss>

08000e5e <FillZerobss>:
/* Zero fill the bss segment. */
FillZerobss:
  movs r3, #0
 8000e5e:	2300      	movs	r3, #0
  str r3, [r2], #4
 8000e60:	f842 3b04 	str.w	r3, [r2], #4

08000e64 <LoopFillZerobss>:

LoopFillZerobss:
  ldr r3, = _ebss
 8000e64:	4b08      	ldr	r3, [pc, #32]	; (8000e88 <LoopFillZerobss+0x24>)
  cmp r2, r3
 8000e66:	429a      	cmp	r2, r3
  bcc FillZerobss
 8000e68:	d3f9      	bcc.n	8000e5e <FillZerobss>

/* Call the clock system intitialization function.*/
    bl  SystemInit
 8000e6a:	f7ff fdaf 	bl	80009cc <SystemInit>
/* Call static constructors */
    bl __libc_init_array
 8000e6e:	f008 f8b3 	bl	8008fd8 <__libc_init_array>
/* Call the application's entry point.*/
  bl main
 8000e72:	f7ff f96b 	bl	800014c <main>
  bx lr
 8000e76:	4770      	bx	lr
  ldr r3, =_sidata
 8000e78:	0800a010 	.word	0x0800a010
  ldr r0, =_sdata
 8000e7c:	20000000 	.word	0x20000000
  ldr r3, =_edata
 8000e80:	200001e8 	.word	0x200001e8
  ldr r2, =_sbss
 8000e84:	200001e8 	.word	0x200001e8
  ldr r3, = _ebss
 8000e88:	2000164c 	.word	0x2000164c

08000e8c <ADC1_2_IRQHandler>:
 * @retval : None
*/
    .section .text.Default_Handler,"ax",%progbits
Default_Handler:
Infinite_Loop:
  b Infinite_Loop
 8000e8c:	e7fe      	b.n	8000e8c <ADC1_2_IRQHandler>
	...

08000e90 <HAL_Init>:
  *         need to ensure that the SysTick time base is always set to 1 millisecond
  *         to have correct HAL operation.
  * @retval HAL status
  */
HAL_StatusTypeDef HAL_Init(void)
{
 8000e90:	b580      	push	{r7, lr}
 8000e92:	af00      	add	r7, sp, #0
    defined(STM32F102x6) || defined(STM32F102xB) || \
    defined(STM32F103x6) || defined(STM32F103xB) || defined(STM32F103xE) || defined(STM32F103xG) || \
    defined(STM32F105xC) || defined(STM32F107xC)

  /* Prefetch buffer is not available on value line devices */
  __HAL_FLASH_PREFETCH_BUFFER_ENABLE();
 8000e94:	4b08      	ldr	r3, [pc, #32]	; (8000eb8 <HAL_Init+0x28>)
 8000e96:	681b      	ldr	r3, [r3, #0]
 8000e98:	4a07      	ldr	r2, [pc, #28]	; (8000eb8 <HAL_Init+0x28>)
 8000e9a:	f043 0310 	orr.w	r3, r3, #16
 8000e9e:	6013      	str	r3, [r2, #0]
#endif
#endif /* PREFETCH_ENABLE */

  /* Set Interrupt Group Priority */
  HAL_NVIC_SetPriorityGrouping(NVIC_PRIORITYGROUP_4);
 8000ea0:	2003      	movs	r0, #3
 8000ea2:	f000 fb59 	bl	8001558 <HAL_NVIC_SetPriorityGrouping>

  /* Use systick as time base source and configure 1ms tick (default clock after Reset is HSI) */
  HAL_InitTick(TICK_INT_PRIORITY);
 8000ea6:	2000      	movs	r0, #0
 8000ea8:	f000 f808 	bl	8000ebc <HAL_InitTick>

  /* Init the low level hardware */
  HAL_MspInit();
 8000eac:	f7ff fc7a 	bl	80007a4 <HAL_MspInit>

  /* Return function status */
  return HAL_OK;
 8000eb0:	2300      	movs	r3, #0
}
 8000eb2:	4618      	mov	r0, r3
 8000eb4:	bd80      	pop	{r7, pc}
 8000eb6:	bf00      	nop
 8000eb8:	40022000 	.word	0x40022000

08000ebc <HAL_InitTick>:
  *       implementation  in user file.
  * @param TickPriority Tick interrupt priority.
  * @retval HAL status
  */
__weak HAL_StatusTypeDef HAL_InitTick(uint32_t TickPriority)
{
 8000ebc:	b580      	push	{r7, lr}
 8000ebe:	b082      	sub	sp, #8
 8000ec0:	af00      	add	r7, sp, #0
 8000ec2:	6078      	str	r0, [r7, #4]
  /* Configure the SysTick to have interrupt in 1ms time basis*/
  if (HAL_SYSTICK_Config(SystemCoreClock / (1000U / uwTickFreq)) > 0U)
 8000ec4:	4b12      	ldr	r3, [pc, #72]	; (8000f10 <HAL_InitTick+0x54>)
 8000ec6:	681a      	ldr	r2, [r3, #0]
 8000ec8:	4b12      	ldr	r3, [pc, #72]	; (8000f14 <HAL_InitTick+0x58>)
 8000eca:	781b      	ldrb	r3, [r3, #0]
 8000ecc:	4619      	mov	r1, r3
 8000ece:	f44f 737a 	mov.w	r3, #1000	; 0x3e8
 8000ed2:	fbb3 f3f1 	udiv	r3, r3, r1
 8000ed6:	fbb2 f3f3 	udiv	r3, r2, r3
 8000eda:	4618      	mov	r0, r3
 8000edc:	f000 fb71 	bl	80015c2 <HAL_SYSTICK_Config>
 8000ee0:	4603      	mov	r3, r0
 8000ee2:	2b00      	cmp	r3, #0
 8000ee4:	d001      	beq.n	8000eea <HAL_InitTick+0x2e>
  {
    return HAL_ERROR;
 8000ee6:	2301      	movs	r3, #1
 8000ee8:	e00e      	b.n	8000f08 <HAL_InitTick+0x4c>
  }

  /* Configure the SysTick IRQ priority */
  if (TickPriority < (1UL << __NVIC_PRIO_BITS))
 8000eea:	687b      	ldr	r3, [r7, #4]
 8000eec:	2b0f      	cmp	r3, #15
 8000eee:	d80a      	bhi.n	8000f06 <HAL_InitTick+0x4a>
  {
    HAL_NVIC_SetPriority(SysTick_IRQn, TickPriority, 0U);
 8000ef0:	2200      	movs	r2, #0
 8000ef2:	6879      	ldr	r1, [r7, #4]
 8000ef4:	f04f 30ff 	mov.w	r0, #4294967295	; 0xffffffff
 8000ef8:	f000 fb39 	bl	800156e <HAL_NVIC_SetPriority>
    uwTickPrio = TickPriority;
 8000efc:	4a06      	ldr	r2, [pc, #24]	; (8000f18 <HAL_InitTick+0x5c>)
 8000efe:	687b      	ldr	r3, [r7, #4]
 8000f00:	6013      	str	r3, [r2, #0]
  {
    return HAL_ERROR;
  }

  /* Return function status */
  return HAL_OK;
 8000f02:	2300      	movs	r3, #0
 8000f04:	e000      	b.n	8000f08 <HAL_InitTick+0x4c>
    return HAL_ERROR;
 8000f06:	2301      	movs	r3, #1
}
 8000f08:	4618      	mov	r0, r3
 8000f0a:	3708      	adds	r7, #8
 8000f0c:	46bd      	mov	sp, r7
 8000f0e:	bd80      	pop	{r7, pc}
 8000f10:	20000000 	.word	0x20000000
 8000f14:	20000010 	.word	0x20000010
 8000f18:	2000000c 	.word	0x2000000c

08000f1c <HAL_IncTick>:
  * @note This function is declared as __weak to be overwritten in case of other
  *      implementations in user file.
  * @retval None
  */
__weak void HAL_IncTick(void)
{
 8000f1c:	b480      	push	{r7}
 8000f1e:	af00      	add	r7, sp, #0
  uwTick += uwTickFreq;
 8000f20:	4b05      	ldr	r3, [pc, #20]	; (8000f38 <HAL_IncTick+0x1c>)
 8000f22:	781b      	ldrb	r3, [r3, #0]
 8000f24:	461a      	mov	r2, r3
 8000f26:	4b05      	ldr	r3, [pc, #20]	; (8000f3c <HAL_IncTick+0x20>)
 8000f28:	681b      	ldr	r3, [r3, #0]
 8000f2a:	4413      	add	r3, r2
 8000f2c:	4a03      	ldr	r2, [pc, #12]	; (8000f3c <HAL_IncTick+0x20>)
 8000f2e:	6013      	str	r3, [r2, #0]
}
 8000f30:	bf00      	nop
 8000f32:	46bd      	mov	sp, r7
 8000f34:	bc80      	pop	{r7}
 8000f36:	4770      	bx	lr
 8000f38:	20000010 	.word	0x20000010
 8000f3c:	20000494 	.word	0x20000494

08000f40 <HAL_GetTick>:
  * @note  This function is declared as __weak to be overwritten in case of other
  *       implementations in user file.
  * @retval tick value
  */
__weak uint32_t HAL_GetTick(void)
{
 8000f40:	b480      	push	{r7}
 8000f42:	af00      	add	r7, sp, #0
  return uwTick;
 8000f44:	4b02      	ldr	r3, [pc, #8]	; (8000f50 <HAL_GetTick+0x10>)
 8000f46:	681b      	ldr	r3, [r3, #0]
}
 8000f48:	4618      	mov	r0, r3
 8000f4a:	46bd      	mov	sp, r7
 8000f4c:	bc80      	pop	{r7}
 8000f4e:	4770      	bx	lr
 8000f50:	20000494 	.word	0x20000494

08000f54 <HAL_Delay>:
  *       implementations in user file.
  * @param Delay specifies the delay time length, in milliseconds.
  * @retval None
  */
__weak void HAL_Delay(uint32_t Delay)
{
 8000f54:	b580      	push	{r7, lr}
 8000f56:	b084      	sub	sp, #16
 8000f58:	af00      	add	r7, sp, #0
 8000f5a:	6078      	str	r0, [r7, #4]
  uint32_t tickstart = HAL_GetTick();
 8000f5c:	f7ff fff0 	bl	8000f40 <HAL_GetTick>
 8000f60:	60b8      	str	r0, [r7, #8]
  uint32_t wait = Delay;
 8000f62:	687b      	ldr	r3, [r7, #4]
 8000f64:	60fb      	str	r3, [r7, #12]

  /* Add a freq to guarantee minimum wait */
  if (wait < HAL_MAX_DELAY)
 8000f66:	68fb      	ldr	r3, [r7, #12]
 8000f68:	f1b3 3fff 	cmp.w	r3, #4294967295	; 0xffffffff
 8000f6c:	d005      	beq.n	8000f7a <HAL_Delay+0x26>
  {
    wait += (uint32_t)(uwTickFreq);
 8000f6e:	4b0a      	ldr	r3, [pc, #40]	; (8000f98 <HAL_Delay+0x44>)
 8000f70:	781b      	ldrb	r3, [r3, #0]
 8000f72:	461a      	mov	r2, r3
 8000f74:	68fb      	ldr	r3, [r7, #12]
 8000f76:	4413      	add	r3, r2
 8000f78:	60fb      	str	r3, [r7, #12]
  }

  while ((HAL_GetTick() - tickstart) < wait)
 8000f7a:	bf00      	nop
 8000f7c:	f7ff ffe0 	bl	8000f40 <HAL_GetTick>
 8000f80:	4602      	mov	r2, r0
 8000f82:	68bb      	ldr	r3, [r7, #8]
 8000f84:	1ad3      	subs	r3, r2, r3
 8000f86:	68fa      	ldr	r2, [r7, #12]
 8000f88:	429a      	cmp	r2, r3
 8000f8a:	d8f7      	bhi.n	8000f7c <HAL_Delay+0x28>
  {
  }
}
 8000f8c:	bf00      	nop
 8000f8e:	bf00      	nop
 8000f90:	3710      	adds	r7, #16
 8000f92:	46bd      	mov	sp, r7
 8000f94:	bd80      	pop	{r7, pc}
 8000f96:	bf00      	nop
 8000f98:	20000010 	.word	0x20000010

08000f9c <HAL_ADC_Init>:
  *         of structure "ADC_InitTypeDef".
  * @param  hadc: ADC handle
  * @retval HAL status
  */
HAL_StatusTypeDef HAL_ADC_Init(ADC_HandleTypeDef* hadc)
{
 8000f9c:	b580      	push	{r7, lr}
 8000f9e:	b086      	sub	sp, #24
 8000fa0:	af00      	add	r7, sp, #0
 8000fa2:	6078      	str	r0, [r7, #4]
  HAL_StatusTypeDef tmp_hal_status = HAL_OK;
 8000fa4:	2300      	movs	r3, #0
 8000fa6:	75fb      	strb	r3, [r7, #23]
  uint32_t tmp_cr1 = 0U;
 8000fa8:	2300      	movs	r3, #0
 8000faa:	613b      	str	r3, [r7, #16]
  uint32_t tmp_cr2 = 0U;
 8000fac:	2300      	movs	r3, #0
 8000fae:	60bb      	str	r3, [r7, #8]
  uint32_t tmp_sqr1 = 0U;
 8000fb0:	2300      	movs	r3, #0
 8000fb2:	60fb      	str	r3, [r7, #12]
  
  /* Check ADC handle */
  if(hadc == NULL)
 8000fb4:	687b      	ldr	r3, [r7, #4]
 8000fb6:	2b00      	cmp	r3, #0
 8000fb8:	d101      	bne.n	8000fbe <HAL_ADC_Init+0x22>
  {
    return HAL_ERROR;
 8000fba:	2301      	movs	r3, #1
 8000fbc:	e0be      	b.n	800113c <HAL_ADC_Init+0x1a0>
  assert_param(IS_ADC_DATA_ALIGN(hadc->Init.DataAlign));
  assert_param(IS_ADC_SCAN_MODE(hadc->Init.ScanConvMode));
  assert_param(IS_FUNCTIONAL_STATE(hadc->Init.ContinuousConvMode));
  assert_param(IS_ADC_EXTTRIG(hadc->Init.ExternalTrigConv));
  
  if(hadc->Init.ScanConvMode != ADC_SCAN_DISABLE)
 8000fbe:	687b      	ldr	r3, [r7, #4]
 8000fc0:	689b      	ldr	r3, [r3, #8]
 8000fc2:	2b00      	cmp	r3, #0
  /* Refer to header of this file for more details on clock enabling          */
  /* procedure.                                                               */

  /* Actions performed only if ADC is coming from state reset:                */
  /* - Initialization of ADC MSP                                              */
  if (hadc->State == HAL_ADC_STATE_RESET)
 8000fc4:	687b      	ldr	r3, [r7, #4]
 8000fc6:	6a9b      	ldr	r3, [r3, #40]	; 0x28
 8000fc8:	2b00      	cmp	r3, #0
 8000fca:	d109      	bne.n	8000fe0 <HAL_ADC_Init+0x44>
  {
    /* Initialize ADC error code */
    ADC_CLEAR_ERRORCODE(hadc);
 8000fcc:	687b      	ldr	r3, [r7, #4]
 8000fce:	2200      	movs	r2, #0
 8000fd0:	62da      	str	r2, [r3, #44]	; 0x2c
    
    /* Allocate lock resource and initialize it */
    hadc->Lock = HAL_UNLOCKED;
 8000fd2:	687b      	ldr	r3, [r7, #4]
 8000fd4:	2200      	movs	r2, #0
 8000fd6:	f883 2024 	strb.w	r2, [r3, #36]	; 0x24
    
    /* Init the low level hardware */
    hadc->MspInitCallback(hadc);
#else
    /* Init the low level hardware */
    HAL_ADC_MspInit(hadc);
 8000fda:	6878      	ldr	r0, [r7, #4]
 8000fdc:	f7ff fc14 	bl	8000808 <HAL_ADC_MspInit>
  /* Stop potential conversion on going, on regular and injected groups */
  /* Disable ADC peripheral */
  /* Note: In case of ADC already enabled, precaution to not launch an        */
  /*       unwanted conversion while modifying register CR2 by writing 1 to   */
  /*       bit ADON.                                                          */
  tmp_hal_status = ADC_ConversionStop_Disable(hadc);
 8000fe0:	6878      	ldr	r0, [r7, #4]
 8000fe2:	f000 f9ab 	bl	800133c <ADC_ConversionStop_Disable>
 8000fe6:	4603      	mov	r3, r0
 8000fe8:	75fb      	strb	r3, [r7, #23]
  
  
  /* Configuration of ADC parameters if previous preliminary actions are      */ 
  /* correctly completed.                                                     */
  if (HAL_IS_BIT_CLR(hadc->State, HAL_ADC_STATE_ERROR_INTERNAL) &&
 8000fea:	687b      	ldr	r3, [r7, #4]
 8000fec:	6a9b      	ldr	r3, [r3, #40]	; 0x28
 8000fee:	f003 0310 	and.w	r3, r3, #16
 8000ff2:	2b00      	cmp	r3, #0
 8000ff4:	f040 8099 	bne.w	800112a <HAL_ADC_Init+0x18e>
 8000ff8:	7dfb      	ldrb	r3, [r7, #23]
 8000ffa:	2b00      	cmp	r3, #0
 8000ffc:	f040 8095 	bne.w	800112a <HAL_ADC_Init+0x18e>
      (tmp_hal_status == HAL_OK)                                  )
  {
    /* Set ADC state */
    ADC_STATE_CLR_SET(hadc->State,
 8001000:	687b      	ldr	r3, [r7, #4]
 8001002:	6a9b      	ldr	r3, [r3, #40]	; 0x28
 8001004:	f423 5388 	bic.w	r3, r3, #4352	; 0x1100
 8001008:	f023 0302 	bic.w	r3, r3, #2
 800100c:	f043 0202 	orr.w	r2, r3, #2
 8001010:	687b      	ldr	r3, [r7, #4]
 8001012:	629a      	str	r2, [r3, #40]	; 0x28
    /*  - continuous conversion mode                                          */
    /* Note: External trigger polarity (ADC_CR2_EXTTRIG) is set into          */
    /*       HAL_ADC_Start_xxx functions because if set in this function,     */
    /*       a conversion on injected group would start a conversion also on  */
    /*       regular group after ADC enabling.                                */
    tmp_cr2 |= (hadc->Init.DataAlign                                          |
 8001014:	687b      	ldr	r3, [r7, #4]
 8001016:	685a      	ldr	r2, [r3, #4]
                ADC_CFGR_EXTSEL(hadc, hadc->Init.ExternalTrigConv)            |
 8001018:	687b      	ldr	r3, [r7, #4]
 800101a:	69db      	ldr	r3, [r3, #28]
    tmp_cr2 |= (hadc->Init.DataAlign                                          |
 800101c:	431a      	orrs	r2, r3
                ADC_CR2_CONTINUOUS((uint32_t)hadc->Init.ContinuousConvMode)   );
 800101e:	687b      	ldr	r3, [r7, #4]
 8001020:	7b1b      	ldrb	r3, [r3, #12]
 8001022:	005b      	lsls	r3, r3, #1
                ADC_CFGR_EXTSEL(hadc, hadc->Init.ExternalTrigConv)            |
 8001024:	4313      	orrs	r3, r2
    tmp_cr2 |= (hadc->Init.DataAlign                                          |
 8001026:	68ba      	ldr	r2, [r7, #8]
 8001028:	4313      	orrs	r3, r2
 800102a:	60bb      	str	r3, [r7, #8]

    /* Configuration of ADC:                                                  */
    /*  - scan mode                                                           */
    /*  - discontinuous mode disable/enable                                   */
    /*  - discontinuous mode number of conversions                            */
    tmp_cr1 |= (ADC_CR1_SCAN_SET(hadc->Init.ScanConvMode));
 800102c:	687b      	ldr	r3, [r7, #4]
 800102e:	689b      	ldr	r3, [r3, #8]
 8001030:	f5b3 7f80 	cmp.w	r3, #256	; 0x100
 8001034:	d003      	beq.n	800103e <HAL_ADC_Init+0xa2>
 8001036:	687b      	ldr	r3, [r7, #4]
 8001038:	689b      	ldr	r3, [r3, #8]
 800103a:	2b01      	cmp	r3, #1
 800103c:	d102      	bne.n	8001044 <HAL_ADC_Init+0xa8>
 800103e:	f44f 7380 	mov.w	r3, #256	; 0x100
 8001042:	e000      	b.n	8001046 <HAL_ADC_Init+0xaa>
 8001044:	2300      	movs	r3, #0
 8001046:	693a      	ldr	r2, [r7, #16]
 8001048:	4313      	orrs	r3, r2
 800104a:	613b      	str	r3, [r7, #16]
    
    /* Enable discontinuous mode only if continuous mode is disabled */
    /* Note: If parameter "Init.ScanConvMode" is set to disable, parameter    */
    /*       discontinuous is set anyway, but will have no effect on ADC HW.  */
    if (hadc->Init.DiscontinuousConvMode == ENABLE)
 800104c:	687b      	ldr	r3, [r7, #4]
 800104e:	7d1b      	ldrb	r3, [r3, #20]
 8001050:	2b01      	cmp	r3, #1
 8001052:	d119      	bne.n	8001088 <HAL_ADC_Init+0xec>
    {
      if (hadc->Init.ContinuousConvMode == DISABLE)
 8001054:	687b      	ldr	r3, [r7, #4]
 8001056:	7b1b      	ldrb	r3, [r3, #12]
 8001058:	2b00      	cmp	r3, #0
 800105a:	d109      	bne.n	8001070 <HAL_ADC_Init+0xd4>
      {
        /* Enable the selected ADC regular discontinuous mode */
        /* Set the number of channels to be converted in discontinuous mode */
        SET_BIT(tmp_cr1, ADC_CR1_DISCEN                                            |
 800105c:	687b      	ldr	r3, [r7, #4]
 800105e:	699b      	ldr	r3, [r3, #24]
 8001060:	3b01      	subs	r3, #1
 8001062:	035a      	lsls	r2, r3, #13
 8001064:	693b      	ldr	r3, [r7, #16]
 8001066:	4313      	orrs	r3, r2
 8001068:	f443 6300 	orr.w	r3, r3, #2048	; 0x800
 800106c:	613b      	str	r3, [r7, #16]
 800106e:	e00b      	b.n	8001088 <HAL_ADC_Init+0xec>
      {
        /* ADC regular group settings continuous and sequencer discontinuous*/
        /* cannot be enabled simultaneously.                                */
        
        /* Update ADC state machine to error */
        SET_BIT(hadc->State, HAL_ADC_STATE_ERROR_CONFIG);
 8001070:	687b      	ldr	r3, [r7, #4]
 8001072:	6a9b      	ldr	r3, [r3, #40]	; 0x28
 8001074:	f043 0220 	orr.w	r2, r3, #32
 8001078:	687b      	ldr	r3, [r7, #4]
 800107a:	629a      	str	r2, [r3, #40]	; 0x28
        
        /* Set ADC error code to ADC IP internal error */
        SET_BIT(hadc->ErrorCode, HAL_ADC_ERROR_INTERNAL);
 800107c:	687b      	ldr	r3, [r7, #4]
 800107e:	6adb      	ldr	r3, [r3, #44]	; 0x2c
 8001080:	f043 0201 	orr.w	r2, r3, #1
 8001084:	687b      	ldr	r3, [r7, #4]
 8001086:	62da      	str	r2, [r3, #44]	; 0x2c
      }
    }
    
    /* Update ADC configuration register CR1 with previous settings */
      MODIFY_REG(hadc->Instance->CR1,
 8001088:	687b      	ldr	r3, [r7, #4]
 800108a:	681b      	ldr	r3, [r3, #0]
 800108c:	685b      	ldr	r3, [r3, #4]
 800108e:	f423 4169 	bic.w	r1, r3, #59648	; 0xe900
 8001092:	687b      	ldr	r3, [r7, #4]
 8001094:	681b      	ldr	r3, [r3, #0]
 8001096:	693a      	ldr	r2, [r7, #16]
 8001098:	430a      	orrs	r2, r1
 800109a:	605a      	str	r2, [r3, #4]
                 ADC_CR1_DISCEN  |
                 ADC_CR1_DISCNUM    ,
                 tmp_cr1             );
    
    /* Update ADC configuration register CR2 with previous settings */
      MODIFY_REG(hadc->Instance->CR2,
 800109c:	687b      	ldr	r3, [r7, #4]
 800109e:	681b      	ldr	r3, [r3, #0]
 80010a0:	689a      	ldr	r2, [r3, #8]
 80010a2:	4b28      	ldr	r3, [pc, #160]	; (8001144 <HAL_ADC_Init+0x1a8>)
 80010a4:	4013      	ands	r3, r2
 80010a6:	687a      	ldr	r2, [r7, #4]
 80010a8:	6812      	ldr	r2, [r2, #0]
 80010aa:	68b9      	ldr	r1, [r7, #8]
 80010ac:	430b      	orrs	r3, r1
 80010ae:	6093      	str	r3, [r2, #8]
    /*   Note: Scan mode is present by hardware on this device and, if        */
    /*   disabled, discards automatically nb of conversions. Anyway, nb of    */
    /*   conversions is forced to 0x00 for alignment over all STM32 devices.  */
    /* - if scan mode is enabled, regular channels sequence length is set to  */
    /*   parameter "NbrOfConversion"                                          */
    if (ADC_CR1_SCAN_SET(hadc->Init.ScanConvMode) == ADC_SCAN_ENABLE)
 80010b0:	687b      	ldr	r3, [r7, #4]
 80010b2:	689b      	ldr	r3, [r3, #8]
 80010b4:	f5b3 7f80 	cmp.w	r3, #256	; 0x100
 80010b8:	d003      	beq.n	80010c2 <HAL_ADC_Init+0x126>
 80010ba:	687b      	ldr	r3, [r7, #4]
 80010bc:	689b      	ldr	r3, [r3, #8]
 80010be:	2b01      	cmp	r3, #1
 80010c0:	d104      	bne.n	80010cc <HAL_ADC_Init+0x130>
    {
      tmp_sqr1 = ADC_SQR1_L_SHIFT(hadc->Init.NbrOfConversion);
 80010c2:	687b      	ldr	r3, [r7, #4]
 80010c4:	691b      	ldr	r3, [r3, #16]
 80010c6:	3b01      	subs	r3, #1
 80010c8:	051b      	lsls	r3, r3, #20
 80010ca:	60fb      	str	r3, [r7, #12]
    }
      
    MODIFY_REG(hadc->Instance->SQR1,
 80010cc:	687b      	ldr	r3, [r7, #4]
 80010ce:	681b      	ldr	r3, [r3, #0]
 80010d0:	6adb      	ldr	r3, [r3, #44]	; 0x2c
 80010d2:	f423 0170 	bic.w	r1, r3, #15728640	; 0xf00000
 80010d6:	687b      	ldr	r3, [r7, #4]
 80010d8:	681b      	ldr	r3, [r3, #0]
 80010da:	68fa      	ldr	r2, [r7, #12]
 80010dc:	430a      	orrs	r2, r1
 80010de:	62da      	str	r2, [r3, #44]	; 0x2c
    /* ensure of no potential problem of ADC core IP clocking.                */
    /* Check through register CR2 (excluding bits set in other functions:     */
    /* execution control bits (ADON, JSWSTART, SWSTART), regular group bits   */
    /* (DMA), injected group bits (JEXTTRIG and JEXTSEL), channel internal    */
    /* measurement path bit (TSVREFE).                                        */
    if (READ_BIT(hadc->Instance->CR2, ~(ADC_CR2_ADON | ADC_CR2_DMA |
 80010e0:	687b      	ldr	r3, [r7, #4]
 80010e2:	681b      	ldr	r3, [r3, #0]
 80010e4:	689a      	ldr	r2, [r3, #8]
 80010e6:	4b18      	ldr	r3, [pc, #96]	; (8001148 <HAL_ADC_Init+0x1ac>)
 80010e8:	4013      	ands	r3, r2
 80010ea:	68ba      	ldr	r2, [r7, #8]
 80010ec:	429a      	cmp	r2, r3
 80010ee:	d10b      	bne.n	8001108 <HAL_ADC_Init+0x16c>
                                        ADC_CR2_JEXTTRIG | ADC_CR2_JEXTSEL |
                                        ADC_CR2_TSVREFE                     ))
         == tmp_cr2)
    {
      /* Set ADC error code to none */
      ADC_CLEAR_ERRORCODE(hadc);
 80010f0:	687b      	ldr	r3, [r7, #4]
 80010f2:	2200      	movs	r2, #0
 80010f4:	62da      	str	r2, [r3, #44]	; 0x2c
      
      /* Set the ADC state */
      ADC_STATE_CLR_SET(hadc->State,
 80010f6:	687b      	ldr	r3, [r7, #4]
 80010f8:	6a9b      	ldr	r3, [r3, #40]	; 0x28
 80010fa:	f023 0303 	bic.w	r3, r3, #3
 80010fe:	f043 0201 	orr.w	r2, r3, #1
 8001102:	687b      	ldr	r3, [r7, #4]
 8001104:	629a      	str	r2, [r3, #40]	; 0x28
    if (READ_BIT(hadc->Instance->CR2, ~(ADC_CR2_ADON | ADC_CR2_DMA |
 8001106:	e018      	b.n	800113a <HAL_ADC_Init+0x19e>
                        HAL_ADC_STATE_READY);
    }
    else
    {
      /* Update ADC state machine to error */
      ADC_STATE_CLR_SET(hadc->State,
 8001108:	687b      	ldr	r3, [r7, #4]
 800110a:	6a9b      	ldr	r3, [r3, #40]	; 0x28
 800110c:	f023 0312 	bic.w	r3, r3, #18
 8001110:	f043 0210 	orr.w	r2, r3, #16
 8001114:	687b      	ldr	r3, [r7, #4]
 8001116:	629a      	str	r2, [r3, #40]	; 0x28
                        HAL_ADC_STATE_BUSY_INTERNAL,
                        HAL_ADC_STATE_ERROR_INTERNAL);
      
      /* Set ADC error code to ADC IP internal error */
      SET_BIT(hadc->ErrorCode, HAL_ADC_ERROR_INTERNAL);
 8001118:	687b      	ldr	r3, [r7, #4]
 800111a:	6adb      	ldr	r3, [r3, #44]	; 0x2c
 800111c:	f043 0201 	orr.w	r2, r3, #1
 8001120:	687b      	ldr	r3, [r7, #4]
 8001122:	62da      	str	r2, [r3, #44]	; 0x2c
      
      tmp_hal_status = HAL_ERROR;
 8001124:	2301      	movs	r3, #1
 8001126:	75fb      	strb	r3, [r7, #23]
    if (READ_BIT(hadc->Instance->CR2, ~(ADC_CR2_ADON | ADC_CR2_DMA |
 8001128:	e007      	b.n	800113a <HAL_ADC_Init+0x19e>
  
  }
  else
  {
    /* Update ADC state machine to error */
    SET_BIT(hadc->State, HAL_ADC_STATE_ERROR_INTERNAL);
 800112a:	687b      	ldr	r3, [r7, #4]
 800112c:	6a9b      	ldr	r3, [r3, #40]	; 0x28
 800112e:	f043 0210 	orr.w	r2, r3, #16
 8001132:	687b      	ldr	r3, [r7, #4]
 8001134:	629a      	str	r2, [r3, #40]	; 0x28
        
    tmp_hal_status = HAL_ERROR;
 8001136:	2301      	movs	r3, #1
 8001138:	75fb      	strb	r3, [r7, #23]
  }
  
  /* Return function status */
  return tmp_hal_status;
 800113a:	7dfb      	ldrb	r3, [r7, #23]
}
 800113c:	4618      	mov	r0, r3
 800113e:	3718      	adds	r7, #24
 8001140:	46bd      	mov	sp, r7
 8001142:	bd80      	pop	{r7, pc}
 8001144:	ffe1f7fd 	.word	0xffe1f7fd
 8001148:	ff1f0efe 	.word	0xff1f0efe

0800114c <HAL_ADC_ConfigChannel>:
  * @param  hadc: ADC handle
  * @param  sConfig: Structure of ADC channel for regular group.
  * @retval HAL status
  */
HAL_StatusTypeDef HAL_ADC_ConfigChannel(ADC_HandleTypeDef* hadc, ADC_ChannelConfTypeDef* sConfig)
{ 
 800114c:	b480      	push	{r7}
 800114e:	b085      	sub	sp, #20
 8001150:	af00      	add	r7, sp, #0
 8001152:	6078      	str	r0, [r7, #4]
 8001154:	6039      	str	r1, [r7, #0]
  HAL_StatusTypeDef tmp_hal_status = HAL_OK;
 8001156:	2300      	movs	r3, #0
 8001158:	73fb      	strb	r3, [r7, #15]
  __IO uint32_t wait_loop_index = 0U;
 800115a:	2300      	movs	r3, #0
 800115c:	60bb      	str	r3, [r7, #8]
  assert_param(IS_ADC_CHANNEL(sConfig->Channel));
  assert_param(IS_ADC_REGULAR_RANK(sConfig->Rank));
  assert_param(IS_ADC_SAMPLE_TIME(sConfig->SamplingTime));
  
  /* Process locked */
  __HAL_LOCK(hadc);
 800115e:	687b      	ldr	r3, [r7, #4]
 8001160:	f893 3024 	ldrb.w	r3, [r3, #36]	; 0x24
 8001164:	2b01      	cmp	r3, #1
 8001166:	d101      	bne.n	800116c <HAL_ADC_ConfigChannel+0x20>
 8001168:	2302      	movs	r3, #2
 800116a:	e0dc      	b.n	8001326 <HAL_ADC_ConfigChannel+0x1da>
 800116c:	687b      	ldr	r3, [r7, #4]
 800116e:	2201      	movs	r2, #1
 8001170:	f883 2024 	strb.w	r2, [r3, #36]	; 0x24
  
  
  /* Regular sequence configuration */
  /* For Rank 1 to 6 */
  if (sConfig->Rank < 7U)
 8001174:	683b      	ldr	r3, [r7, #0]
 8001176:	685b      	ldr	r3, [r3, #4]
 8001178:	2b06      	cmp	r3, #6
 800117a:	d81c      	bhi.n	80011b6 <HAL_ADC_ConfigChannel+0x6a>
  {
    MODIFY_REG(hadc->Instance->SQR3                        ,
 800117c:	687b      	ldr	r3, [r7, #4]
 800117e:	681b      	ldr	r3, [r3, #0]
 8001180:	6b59      	ldr	r1, [r3, #52]	; 0x34
 8001182:	683b      	ldr	r3, [r7, #0]
 8001184:	685a      	ldr	r2, [r3, #4]
 8001186:	4613      	mov	r3, r2
 8001188:	009b      	lsls	r3, r3, #2
 800118a:	4413      	add	r3, r2
 800118c:	3b05      	subs	r3, #5
 800118e:	221f      	movs	r2, #31
 8001190:	fa02 f303 	lsl.w	r3, r2, r3
 8001194:	43db      	mvns	r3, r3
 8001196:	4019      	ands	r1, r3
 8001198:	683b      	ldr	r3, [r7, #0]
 800119a:	6818      	ldr	r0, [r3, #0]
 800119c:	683b      	ldr	r3, [r7, #0]
 800119e:	685a      	ldr	r2, [r3, #4]
 80011a0:	4613      	mov	r3, r2
 80011a2:	009b      	lsls	r3, r3, #2
 80011a4:	4413      	add	r3, r2
 80011a6:	3b05      	subs	r3, #5
 80011a8:	fa00 f203 	lsl.w	r2, r0, r3
 80011ac:	687b      	ldr	r3, [r7, #4]
 80011ae:	681b      	ldr	r3, [r3, #0]
 80011b0:	430a      	orrs	r2, r1
 80011b2:	635a      	str	r2, [r3, #52]	; 0x34
 80011b4:	e03c      	b.n	8001230 <HAL_ADC_ConfigChannel+0xe4>
               ADC_SQR3_RK(ADC_SQR3_SQ1, sConfig->Rank)    ,
               ADC_SQR3_RK(sConfig->Channel, sConfig->Rank) );
  }
  /* For Rank 7 to 12 */
  else if (sConfig->Rank < 13U)
 80011b6:	683b      	ldr	r3, [r7, #0]
 80011b8:	685b      	ldr	r3, [r3, #4]
 80011ba:	2b0c      	cmp	r3, #12
 80011bc:	d81c      	bhi.n	80011f8 <HAL_ADC_ConfigChannel+0xac>
  {
    MODIFY_REG(hadc->Instance->SQR2                        ,
 80011be:	687b      	ldr	r3, [r7, #4]
 80011c0:	681b      	ldr	r3, [r3, #0]
 80011c2:	6b19      	ldr	r1, [r3, #48]	; 0x30
 80011c4:	683b      	ldr	r3, [r7, #0]
 80011c6:	685a      	ldr	r2, [r3, #4]
 80011c8:	4613      	mov	r3, r2
 80011ca:	009b      	lsls	r3, r3, #2
 80011cc:	4413      	add	r3, r2
 80011ce:	3b23      	subs	r3, #35	; 0x23
 80011d0:	221f      	movs	r2, #31
 80011d2:	fa02 f303 	lsl.w	r3, r2, r3
 80011d6:	43db      	mvns	r3, r3
 80011d8:	4019      	ands	r1, r3
 80011da:	683b      	ldr	r3, [r7, #0]
 80011dc:	6818      	ldr	r0, [r3, #0]
 80011de:	683b      	ldr	r3, [r7, #0]
 80011e0:	685a      	ldr	r2, [r3, #4]
 80011e2:	4613      	mov	r3, r2
 80011e4:	009b      	lsls	r3, r3, #2
 80011e6:	4413      	add	r3, r2
 80011e8:	3b23      	subs	r3, #35	; 0x23
 80011ea:	fa00 f203 	lsl.w	r2, r0, r3
 80011ee:	687b      	ldr	r3, [r7, #4]
 80011f0:	681b      	ldr	r3, [r3, #0]
 80011f2:	430a      	orrs	r2, r1
 80011f4:	631a      	str	r2, [r3, #48]	; 0x30
 80011f6:	e01b      	b.n	8001230 <HAL_ADC_ConfigChannel+0xe4>
               ADC_SQR2_RK(sConfig->Channel, sConfig->Rank) );
  }
  /* For Rank 13 to 16 */
  else
  {
    MODIFY_REG(hadc->Instance->SQR1                        ,
 80011f8:	687b      	ldr	r3, [r7, #4]
 80011fa:	681b      	ldr	r3, [r3, #0]
 80011fc:	6ad9      	ldr	r1, [r3, #44]	; 0x2c
 80011fe:	683b      	ldr	r3, [r7, #0]
 8001200:	685a      	ldr	r2, [r3, #4]
 8001202:	4613      	mov	r3, r2
 8001204:	009b      	lsls	r3, r3, #2
 8001206:	4413      	add	r3, r2
 8001208:	3b41      	subs	r3, #65	; 0x41
 800120a:	221f      	movs	r2, #31
 800120c:	fa02 f303 	lsl.w	r3, r2, r3
 8001210:	43db      	mvns	r3, r3
 8001212:	4019      	ands	r1, r3
 8001214:	683b      	ldr	r3, [r7, #0]
 8001216:	6818      	ldr	r0, [r3, #0]
 8001218:	683b      	ldr	r3, [r7, #0]
 800121a:	685a      	ldr	r2, [r3, #4]
 800121c:	4613      	mov	r3, r2
 800121e:	009b      	lsls	r3, r3, #2
 8001220:	4413      	add	r3, r2
 8001222:	3b41      	subs	r3, #65	; 0x41
 8001224:	fa00 f203 	lsl.w	r2, r0, r3
 8001228:	687b      	ldr	r3, [r7, #4]
 800122a:	681b      	ldr	r3, [r3, #0]
 800122c:	430a      	orrs	r2, r1
 800122e:	62da      	str	r2, [r3, #44]	; 0x2c
  }
  
  
  /* Channel sampling time configuration */
  /* For channels 10 to 17 */
  if (sConfig->Channel >= ADC_CHANNEL_10)
 8001230:	683b      	ldr	r3, [r7, #0]
 8001232:	681b      	ldr	r3, [r3, #0]
 8001234:	2b09      	cmp	r3, #9
 8001236:	d91c      	bls.n	8001272 <HAL_ADC_ConfigChannel+0x126>
  {
    MODIFY_REG(hadc->Instance->SMPR1                             ,
 8001238:	687b      	ldr	r3, [r7, #4]
 800123a:	681b      	ldr	r3, [r3, #0]
 800123c:	68d9      	ldr	r1, [r3, #12]
 800123e:	683b      	ldr	r3, [r7, #0]
 8001240:	681a      	ldr	r2, [r3, #0]
 8001242:	4613      	mov	r3, r2
 8001244:	005b      	lsls	r3, r3, #1
 8001246:	4413      	add	r3, r2
 8001248:	3b1e      	subs	r3, #30
 800124a:	2207      	movs	r2, #7
 800124c:	fa02 f303 	lsl.w	r3, r2, r3
 8001250:	43db      	mvns	r3, r3
 8001252:	4019      	ands	r1, r3
 8001254:	683b      	ldr	r3, [r7, #0]
 8001256:	6898      	ldr	r0, [r3, #8]
 8001258:	683b      	ldr	r3, [r7, #0]
 800125a:	681a      	ldr	r2, [r3, #0]
 800125c:	4613      	mov	r3, r2
 800125e:	005b      	lsls	r3, r3, #1
 8001260:	4413      	add	r3, r2
 8001262:	3b1e      	subs	r3, #30
 8001264:	fa00 f203 	lsl.w	r2, r0, r3
 8001268:	687b      	ldr	r3, [r7, #4]
 800126a:	681b      	ldr	r3, [r3, #0]
 800126c:	430a      	orrs	r2, r1
 800126e:	60da      	str	r2, [r3, #12]
 8001270:	e019      	b.n	80012a6 <HAL_ADC_ConfigChannel+0x15a>
               ADC_SMPR1(ADC_SMPR1_SMP10, sConfig->Channel)      ,
               ADC_SMPR1(sConfig->SamplingTime, sConfig->Channel) );
  }
  else /* For channels 0 to 9 */
  {
    MODIFY_REG(hadc->Instance->SMPR2                             ,
 8001272:	687b      	ldr	r3, [r7, #4]
 8001274:	681b      	ldr	r3, [r3, #0]
 8001276:	6919      	ldr	r1, [r3, #16]
 8001278:	683b      	ldr	r3, [r7, #0]
 800127a:	681a      	ldr	r2, [r3, #0]
 800127c:	4613      	mov	r3, r2
 800127e:	005b      	lsls	r3, r3, #1
 8001280:	4413      	add	r3, r2
 8001282:	2207      	movs	r2, #7
 8001284:	fa02 f303 	lsl.w	r3, r2, r3
 8001288:	43db      	mvns	r3, r3
 800128a:	4019      	ands	r1, r3
 800128c:	683b      	ldr	r3, [r7, #0]
 800128e:	6898      	ldr	r0, [r3, #8]
 8001290:	683b      	ldr	r3, [r7, #0]
 8001292:	681a      	ldr	r2, [r3, #0]
 8001294:	4613      	mov	r3, r2
 8001296:	005b      	lsls	r3, r3, #1
 8001298:	4413      	add	r3, r2
 800129a:	fa00 f203 	lsl.w	r2, r0, r3
 800129e:	687b      	ldr	r3, [r7, #4]
 80012a0:	681b      	ldr	r3, [r3, #0]
 80012a2:	430a      	orrs	r2, r1
 80012a4:	611a      	str	r2, [r3, #16]
               ADC_SMPR2(sConfig->SamplingTime, sConfig->Channel) );
  }
  
  /* If ADC1 Channel_16 or Channel_17 is selected, enable Temperature sensor  */
  /* and VREFINT measurement path.                                            */
  if ((sConfig->Channel == ADC_CHANNEL_TEMPSENSOR) ||
 80012a6:	683b      	ldr	r3, [r7, #0]
 80012a8:	681b      	ldr	r3, [r3, #0]
 80012aa:	2b10      	cmp	r3, #16
 80012ac:	d003      	beq.n	80012b6 <HAL_ADC_ConfigChannel+0x16a>
      (sConfig->Channel == ADC_CHANNEL_VREFINT)      )
 80012ae:	683b      	ldr	r3, [r7, #0]
 80012b0:	681b      	ldr	r3, [r3, #0]
  if ((sConfig->Channel == ADC_CHANNEL_TEMPSENSOR) ||
 80012b2:	2b11      	cmp	r3, #17
 80012b4:	d132      	bne.n	800131c <HAL_ADC_ConfigChannel+0x1d0>
  {
    /* For STM32F1 devices with several ADC: Only ADC1 can access internal    */
    /* measurement channels (VrefInt/TempSensor). If these channels are       */
    /* intended to be set on other ADC instances, an error is reported.       */
    if (hadc->Instance == ADC1)
 80012b6:	687b      	ldr	r3, [r7, #4]
 80012b8:	681b      	ldr	r3, [r3, #0]
 80012ba:	4a1d      	ldr	r2, [pc, #116]	; (8001330 <HAL_ADC_ConfigChannel+0x1e4>)
 80012bc:	4293      	cmp	r3, r2
 80012be:	d125      	bne.n	800130c <HAL_ADC_ConfigChannel+0x1c0>
    {
      if (READ_BIT(hadc->Instance->CR2, ADC_CR2_TSVREFE) == RESET)
 80012c0:	687b      	ldr	r3, [r7, #4]
 80012c2:	681b      	ldr	r3, [r3, #0]
 80012c4:	689b      	ldr	r3, [r3, #8]
 80012c6:	f403 0300 	and.w	r3, r3, #8388608	; 0x800000
 80012ca:	2b00      	cmp	r3, #0
 80012cc:	d126      	bne.n	800131c <HAL_ADC_ConfigChannel+0x1d0>
      {
        SET_BIT(hadc->Instance->CR2, ADC_CR2_TSVREFE);
 80012ce:	687b      	ldr	r3, [r7, #4]
 80012d0:	681b      	ldr	r3, [r3, #0]
 80012d2:	689a      	ldr	r2, [r3, #8]
 80012d4:	687b      	ldr	r3, [r7, #4]
 80012d6:	681b      	ldr	r3, [r3, #0]
 80012d8:	f442 0200 	orr.w	r2, r2, #8388608	; 0x800000
 80012dc:	609a      	str	r2, [r3, #8]
        
        if (sConfig->Channel == ADC_CHANNEL_TEMPSENSOR)
 80012de:	683b      	ldr	r3, [r7, #0]
 80012e0:	681b      	ldr	r3, [r3, #0]
 80012e2:	2b10      	cmp	r3, #16
 80012e4:	d11a      	bne.n	800131c <HAL_ADC_ConfigChannel+0x1d0>
        {
          /* Delay for temperature sensor stabilization time */
          /* Compute number of CPU cycles to wait for */
          wait_loop_index = (ADC_TEMPSENSOR_DELAY_US * (SystemCoreClock / 1000000U));
 80012e6:	4b13      	ldr	r3, [pc, #76]	; (8001334 <HAL_ADC_ConfigChannel+0x1e8>)
 80012e8:	681b      	ldr	r3, [r3, #0]
 80012ea:	4a13      	ldr	r2, [pc, #76]	; (8001338 <HAL_ADC_ConfigChannel+0x1ec>)
 80012ec:	fba2 2303 	umull	r2, r3, r2, r3
 80012f0:	0c9a      	lsrs	r2, r3, #18
 80012f2:	4613      	mov	r3, r2
 80012f4:	009b      	lsls	r3, r3, #2
 80012f6:	4413      	add	r3, r2
 80012f8:	005b      	lsls	r3, r3, #1
 80012fa:	60bb      	str	r3, [r7, #8]
          while(wait_loop_index != 0U)
 80012fc:	e002      	b.n	8001304 <HAL_ADC_ConfigChannel+0x1b8>
          {
            wait_loop_index--;
 80012fe:	68bb      	ldr	r3, [r7, #8]
 8001300:	3b01      	subs	r3, #1
 8001302:	60bb      	str	r3, [r7, #8]
          while(wait_loop_index != 0U)
 8001304:	68bb      	ldr	r3, [r7, #8]
 8001306:	2b00      	cmp	r3, #0
 8001308:	d1f9      	bne.n	80012fe <HAL_ADC_ConfigChannel+0x1b2>
 800130a:	e007      	b.n	800131c <HAL_ADC_ConfigChannel+0x1d0>
      }
    }
    else
    {
      /* Update ADC state machine to error */
      SET_BIT(hadc->State, HAL_ADC_STATE_ERROR_CONFIG);
 800130c:	687b      	ldr	r3, [r7, #4]
 800130e:	6a9b      	ldr	r3, [r3, #40]	; 0x28
 8001310:	f043 0220 	orr.w	r2, r3, #32
 8001314:	687b      	ldr	r3, [r7, #4]
 8001316:	629a      	str	r2, [r3, #40]	; 0x28
      
      tmp_hal_status = HAL_ERROR;
 8001318:	2301      	movs	r3, #1
 800131a:	73fb      	strb	r3, [r7, #15]
    }
  }
  
  /* Process unlocked */
  __HAL_UNLOCK(hadc);
 800131c:	687b      	ldr	r3, [r7, #4]
 800131e:	2200      	movs	r2, #0
 8001320:	f883 2024 	strb.w	r2, [r3, #36]	; 0x24
  
  /* Return function status */
  return tmp_hal_status;
 8001324:	7bfb      	ldrb	r3, [r7, #15]
}
 8001326:	4618      	mov	r0, r3
 8001328:	3714      	adds	r7, #20
 800132a:	46bd      	mov	sp, r7
 800132c:	bc80      	pop	{r7}
 800132e:	4770      	bx	lr
 8001330:	40012400 	.word	0x40012400
 8001334:	20000000 	.word	0x20000000
 8001338:	431bde83 	.word	0x431bde83

0800133c <ADC_ConversionStop_Disable>:
  *         stopped to disable the ADC.
  * @param  hadc: ADC handle
  * @retval HAL status.
  */
HAL_StatusTypeDef ADC_ConversionStop_Disable(ADC_HandleTypeDef* hadc)
{
 800133c:	b580      	push	{r7, lr}
 800133e:	b084      	sub	sp, #16
 8001340:	af00      	add	r7, sp, #0
 8001342:	6078      	str	r0, [r7, #4]
  uint32_t tickstart = 0U;
 8001344:	2300      	movs	r3, #0
 8001346:	60fb      	str	r3, [r7, #12]
  
  /* Verification if ADC is not already disabled */
  if (ADC_IS_ENABLE(hadc) != RESET)
 8001348:	687b      	ldr	r3, [r7, #4]
 800134a:	681b      	ldr	r3, [r3, #0]
 800134c:	689b      	ldr	r3, [r3, #8]
 800134e:	f003 0301 	and.w	r3, r3, #1
 8001352:	2b01      	cmp	r3, #1
 8001354:	d12e      	bne.n	80013b4 <ADC_ConversionStop_Disable+0x78>
  {
    /* Disable the ADC peripheral */
    __HAL_ADC_DISABLE(hadc);
 8001356:	687b      	ldr	r3, [r7, #4]
 8001358:	681b      	ldr	r3, [r3, #0]
 800135a:	689a      	ldr	r2, [r3, #8]
 800135c:	687b      	ldr	r3, [r7, #4]
 800135e:	681b      	ldr	r3, [r3, #0]
 8001360:	f022 0201 	bic.w	r2, r2, #1
 8001364:	609a      	str	r2, [r3, #8]
     
    /* Get tick count */
    tickstart = HAL_GetTick();
 8001366:	f7ff fdeb 	bl	8000f40 <HAL_GetTick>
 800136a:	60f8      	str	r0, [r7, #12]
    
    /* Wait for ADC effectively disabled */
    while(ADC_IS_ENABLE(hadc) != RESET)
 800136c:	e01b      	b.n	80013a6 <ADC_ConversionStop_Disable+0x6a>
    {
      if((HAL_GetTick() - tickstart) > ADC_DISABLE_TIMEOUT)
 800136e:	f7ff fde7 	bl	8000f40 <HAL_GetTick>
 8001372:	4602      	mov	r2, r0
 8001374:	68fb      	ldr	r3, [r7, #12]
 8001376:	1ad3      	subs	r3, r2, r3
 8001378:	2b02      	cmp	r3, #2
 800137a:	d914      	bls.n	80013a6 <ADC_ConversionStop_Disable+0x6a>
      {
        /* New check to avoid false timeout detection in case of preemption */
        if(ADC_IS_ENABLE(hadc) != RESET)
 800137c:	687b      	ldr	r3, [r7, #4]
 800137e:	681b      	ldr	r3, [r3, #0]
 8001380:	689b      	ldr	r3, [r3, #8]
 8001382:	f003 0301 	and.w	r3, r3, #1
 8001386:	2b01      	cmp	r3, #1
 8001388:	d10d      	bne.n	80013a6 <ADC_ConversionStop_Disable+0x6a>
        {
          /* Update ADC state machine to error */
          SET_BIT(hadc->State, HAL_ADC_STATE_ERROR_INTERNAL);
 800138a:	687b      	ldr	r3, [r7, #4]
 800138c:	6a9b      	ldr	r3, [r3, #40]	; 0x28
 800138e:	f043 0210 	orr.w	r2, r3, #16
 8001392:	687b      	ldr	r3, [r7, #4]
 8001394:	629a      	str	r2, [r3, #40]	; 0x28

          /* Set ADC error code to ADC IP internal error */
          SET_BIT(hadc->ErrorCode, HAL_ADC_ERROR_INTERNAL);
 8001396:	687b      	ldr	r3, [r7, #4]
 8001398:	6adb      	ldr	r3, [r3, #44]	; 0x2c
 800139a:	f043 0201 	orr.w	r2, r3, #1
 800139e:	687b      	ldr	r3, [r7, #4]
 80013a0:	62da      	str	r2, [r3, #44]	; 0x2c

          return HAL_ERROR;
 80013a2:	2301      	movs	r3, #1
 80013a4:	e007      	b.n	80013b6 <ADC_ConversionStop_Disable+0x7a>
    while(ADC_IS_ENABLE(hadc) != RESET)
 80013a6:	687b      	ldr	r3, [r7, #4]
 80013a8:	681b      	ldr	r3, [r3, #0]
 80013aa:	689b      	ldr	r3, [r3, #8]
 80013ac:	f003 0301 	and.w	r3, r3, #1
 80013b0:	2b01      	cmp	r3, #1
 80013b2:	d0dc      	beq.n	800136e <ADC_ConversionStop_Disable+0x32>
      }
    }
  }
  
  /* Return HAL status */
  return HAL_OK;
 80013b4:	2300      	movs	r3, #0
}
 80013b6:	4618      	mov	r0, r3
 80013b8:	3710      	adds	r7, #16
 80013ba:	46bd      	mov	sp, r7
 80013bc:	bd80      	pop	{r7, pc}
	...

080013c0 <__NVIC_SetPriorityGrouping>:
           In case of a conflict between priority grouping and available
           priority bits (__NVIC_PRIO_BITS), the smallest possible priority group is set.
  \param [in]      PriorityGroup  Priority grouping field.
 */
__STATIC_INLINE void __NVIC_SetPriorityGrouping(uint32_t PriorityGroup)
{
 80013c0:	b480      	push	{r7}
 80013c2:	b085      	sub	sp, #20
 80013c4:	af00      	add	r7, sp, #0
 80013c6:	6078      	str	r0, [r7, #4]
  uint32_t reg_value;
  uint32_t PriorityGroupTmp = (PriorityGroup & (uint32_t)0x07UL);             /* only values 0..7 are used          */
 80013c8:	687b      	ldr	r3, [r7, #4]
 80013ca:	f003 0307 	and.w	r3, r3, #7
 80013ce:	60fb      	str	r3, [r7, #12]

  reg_value  =  SCB->AIRCR;                                                   /* read old register configuration    */
 80013d0:	4b0c      	ldr	r3, [pc, #48]	; (8001404 <__NVIC_SetPriorityGrouping+0x44>)
 80013d2:	68db      	ldr	r3, [r3, #12]
 80013d4:	60bb      	str	r3, [r7, #8]
  reg_value &= ~((uint32_t)(SCB_AIRCR_VECTKEY_Msk | SCB_AIRCR_PRIGROUP_Msk)); /* clear bits to change               */
 80013d6:	68ba      	ldr	r2, [r7, #8]
 80013d8:	f64f 03ff 	movw	r3, #63743	; 0xf8ff
 80013dc:	4013      	ands	r3, r2
 80013de:	60bb      	str	r3, [r7, #8]
  reg_value  =  (reg_value                                   |
                ((uint32_t)0x5FAUL << SCB_AIRCR_VECTKEY_Pos) |
                (PriorityGroupTmp << SCB_AIRCR_PRIGROUP_Pos) );               /* Insert write key and priority group */
 80013e0:	68fb      	ldr	r3, [r7, #12]
 80013e2:	021a      	lsls	r2, r3, #8
                ((uint32_t)0x5FAUL << SCB_AIRCR_VECTKEY_Pos) |
 80013e4:	68bb      	ldr	r3, [r7, #8]
 80013e6:	4313      	orrs	r3, r2
  reg_value  =  (reg_value                                   |
 80013e8:	f043 63bf 	orr.w	r3, r3, #100139008	; 0x5f80000
 80013ec:	f443 3300 	orr.w	r3, r3, #131072	; 0x20000
 80013f0:	60bb      	str	r3, [r7, #8]
  SCB->AIRCR =  reg_value;
 80013f2:	4a04      	ldr	r2, [pc, #16]	; (8001404 <__NVIC_SetPriorityGrouping+0x44>)
 80013f4:	68bb      	ldr	r3, [r7, #8]
 80013f6:	60d3      	str	r3, [r2, #12]
}
 80013f8:	bf00      	nop
 80013fa:	3714      	adds	r7, #20
 80013fc:	46bd      	mov	sp, r7
 80013fe:	bc80      	pop	{r7}
 8001400:	4770      	bx	lr
 8001402:	bf00      	nop
 8001404:	e000ed00 	.word	0xe000ed00

08001408 <__NVIC_GetPriorityGrouping>:
  \brief   Get Priority Grouping
  \details Reads the priority grouping field from the NVIC Interrupt Controller.
  \return                Priority grouping field (SCB->AIRCR [10:8] PRIGROUP field).
 */
__STATIC_INLINE uint32_t __NVIC_GetPriorityGrouping(void)
{
 8001408:	b480      	push	{r7}
 800140a:	af00      	add	r7, sp, #0
  return ((uint32_t)((SCB->AIRCR & SCB_AIRCR_PRIGROUP_Msk) >> SCB_AIRCR_PRIGROUP_Pos));
 800140c:	4b04      	ldr	r3, [pc, #16]	; (8001420 <__NVIC_GetPriorityGrouping+0x18>)
 800140e:	68db      	ldr	r3, [r3, #12]
 8001410:	0a1b      	lsrs	r3, r3, #8
 8001412:	f003 0307 	and.w	r3, r3, #7
}
 8001416:	4618      	mov	r0, r3
 8001418:	46bd      	mov	sp, r7
 800141a:	bc80      	pop	{r7}
 800141c:	4770      	bx	lr
 800141e:	bf00      	nop
 8001420:	e000ed00 	.word	0xe000ed00

08001424 <__NVIC_EnableIRQ>:
  \details Enables a device specific interrupt in the NVIC interrupt controller.
  \param [in]      IRQn  Device specific interrupt number.
  \note    IRQn must not be negative.
 */
__STATIC_INLINE void __NVIC_EnableIRQ(IRQn_Type IRQn)
{
 8001424:	b480      	push	{r7}
 8001426:	b083      	sub	sp, #12
 8001428:	af00      	add	r7, sp, #0
 800142a:	4603      	mov	r3, r0
 800142c:	71fb      	strb	r3, [r7, #7]
  if ((int32_t)(IRQn) >= 0)
 800142e:	f997 3007 	ldrsb.w	r3, [r7, #7]
 8001432:	2b00      	cmp	r3, #0
 8001434:	db0b      	blt.n	800144e <__NVIC_EnableIRQ+0x2a>
  {
    NVIC->ISER[(((uint32_t)IRQn) >> 5UL)] = (uint32_t)(1UL << (((uint32_t)IRQn) & 0x1FUL));
 8001436:	79fb      	ldrb	r3, [r7, #7]
 8001438:	f003 021f 	and.w	r2, r3, #31
 800143c:	4906      	ldr	r1, [pc, #24]	; (8001458 <__NVIC_EnableIRQ+0x34>)
 800143e:	f997 3007 	ldrsb.w	r3, [r7, #7]
 8001442:	095b      	lsrs	r3, r3, #5
 8001444:	2001      	movs	r0, #1
 8001446:	fa00 f202 	lsl.w	r2, r0, r2
 800144a:	f841 2023 	str.w	r2, [r1, r3, lsl #2]
  }
}
 800144e:	bf00      	nop
 8001450:	370c      	adds	r7, #12
 8001452:	46bd      	mov	sp, r7
 8001454:	bc80      	pop	{r7}
 8001456:	4770      	bx	lr
 8001458:	e000e100 	.word	0xe000e100

0800145c <__NVIC_SetPriority>:
  \param [in]      IRQn  Interrupt number.
  \param [in]  priority  Priority to set.
  \note    The priority cannot be set for every processor exception.
 */
__STATIC_INLINE void __NVIC_SetPriority(IRQn_Type IRQn, uint32_t priority)
{
 800145c:	b480      	push	{r7}
 800145e:	b083      	sub	sp, #12
 8001460:	af00      	add	r7, sp, #0
 8001462:	4603      	mov	r3, r0
 8001464:	6039      	str	r1, [r7, #0]
 8001466:	71fb      	strb	r3, [r7, #7]
  if ((int32_t)(IRQn) >= 0)
 8001468:	f997 3007 	ldrsb.w	r3, [r7, #7]
 800146c:	2b00      	cmp	r3, #0
 800146e:	db0a      	blt.n	8001486 <__NVIC_SetPriority+0x2a>
  {
    NVIC->IP[((uint32_t)IRQn)]               = (uint8_t)((priority << (8U - __NVIC_PRIO_BITS)) & (uint32_t)0xFFUL);
 8001470:	683b      	ldr	r3, [r7, #0]
 8001472:	b2da      	uxtb	r2, r3
 8001474:	490c      	ldr	r1, [pc, #48]	; (80014a8 <__NVIC_SetPriority+0x4c>)
 8001476:	f997 3007 	ldrsb.w	r3, [r7, #7]
 800147a:	0112      	lsls	r2, r2, #4
 800147c:	b2d2      	uxtb	r2, r2
 800147e:	440b      	add	r3, r1
 8001480:	f883 2300 	strb.w	r2, [r3, #768]	; 0x300
  }
  else
  {
    SCB->SHP[(((uint32_t)IRQn) & 0xFUL)-4UL] = (uint8_t)((priority << (8U - __NVIC_PRIO_BITS)) & (uint32_t)0xFFUL);
  }
}
 8001484:	e00a      	b.n	800149c <__NVIC_SetPriority+0x40>
    SCB->SHP[(((uint32_t)IRQn) & 0xFUL)-4UL] = (uint8_t)((priority << (8U - __NVIC_PRIO_BITS)) & (uint32_t)0xFFUL);
 8001486:	683b      	ldr	r3, [r7, #0]
 8001488:	b2da      	uxtb	r2, r3
 800148a:	4908      	ldr	r1, [pc, #32]	; (80014ac <__NVIC_SetPriority+0x50>)
 800148c:	79fb      	ldrb	r3, [r7, #7]
 800148e:	f003 030f 	and.w	r3, r3, #15
 8001492:	3b04      	subs	r3, #4
 8001494:	0112      	lsls	r2, r2, #4
 8001496:	b2d2      	uxtb	r2, r2
 8001498:	440b      	add	r3, r1
 800149a:	761a      	strb	r2, [r3, #24]
}
 800149c:	bf00      	nop
 800149e:	370c      	adds	r7, #12
 80014a0:	46bd      	mov	sp, r7
 80014a2:	bc80      	pop	{r7}
 80014a4:	4770      	bx	lr
 80014a6:	bf00      	nop
 80014a8:	e000e100 	.word	0xe000e100
 80014ac:	e000ed00 	.word	0xe000ed00

080014b0 <NVIC_EncodePriority>:
  \param [in]   PreemptPriority  Preemptive priority value (starting from 0).
  \param [in]       SubPriority  Subpriority value (starting from 0).
  \return                        Encoded priority. Value can be used in the function \ref NVIC_SetPriority().
 */
__STATIC_INLINE uint32_t NVIC_EncodePriority (uint32_t PriorityGroup, uint32_t PreemptPriority, uint32_t SubPriority)
{
 80014b0:	b480      	push	{r7}
 80014b2:	b089      	sub	sp, #36	; 0x24
 80014b4:	af00      	add	r7, sp, #0
 80014b6:	60f8      	str	r0, [r7, #12]
 80014b8:	60b9      	str	r1, [r7, #8]
 80014ba:	607a      	str	r2, [r7, #4]
  uint32_t PriorityGroupTmp = (PriorityGroup & (uint32_t)0x07UL);   /* only values 0..7 are used          */
 80014bc:	68fb      	ldr	r3, [r7, #12]
 80014be:	f003 0307 	and.w	r3, r3, #7
 80014c2:	61fb      	str	r3, [r7, #28]
  uint32_t PreemptPriorityBits;
  uint32_t SubPriorityBits;

  PreemptPriorityBits = ((7UL - PriorityGroupTmp) > (uint32_t)(__NVIC_PRIO_BITS)) ? (uint32_t)(__NVIC_PRIO_BITS) : (uint32_t)(7UL - PriorityGroupTmp);
 80014c4:	69fb      	ldr	r3, [r7, #28]
 80014c6:	f1c3 0307 	rsb	r3, r3, #7
 80014ca:	2b04      	cmp	r3, #4
 80014cc:	bf28      	it	cs
 80014ce:	2304      	movcs	r3, #4
 80014d0:	61bb      	str	r3, [r7, #24]
  SubPriorityBits     = ((PriorityGroupTmp + (uint32_t)(__NVIC_PRIO_BITS)) < (uint32_t)7UL) ? (uint32_t)0UL : (uint32_t)((PriorityGroupTmp - 7UL) + (uint32_t)(__NVIC_PRIO_BITS));
 80014d2:	69fb      	ldr	r3, [r7, #28]
 80014d4:	3304      	adds	r3, #4
 80014d6:	2b06      	cmp	r3, #6
 80014d8:	d902      	bls.n	80014e0 <NVIC_EncodePriority+0x30>
 80014da:	69fb      	ldr	r3, [r7, #28]
 80014dc:	3b03      	subs	r3, #3
 80014de:	e000      	b.n	80014e2 <NVIC_EncodePriority+0x32>
 80014e0:	2300      	movs	r3, #0
 80014e2:	617b      	str	r3, [r7, #20]

  return (
           ((PreemptPriority & (uint32_t)((1UL << (PreemptPriorityBits)) - 1UL)) << SubPriorityBits) |
 80014e4:	f04f 32ff 	mov.w	r2, #4294967295	; 0xffffffff
 80014e8:	69bb      	ldr	r3, [r7, #24]
 80014ea:	fa02 f303 	lsl.w	r3, r2, r3
 80014ee:	43da      	mvns	r2, r3
 80014f0:	68bb      	ldr	r3, [r7, #8]
 80014f2:	401a      	ands	r2, r3
 80014f4:	697b      	ldr	r3, [r7, #20]
 80014f6:	409a      	lsls	r2, r3
           ((SubPriority     & (uint32_t)((1UL << (SubPriorityBits    )) - 1UL)))
 80014f8:	f04f 31ff 	mov.w	r1, #4294967295	; 0xffffffff
 80014fc:	697b      	ldr	r3, [r7, #20]
 80014fe:	fa01 f303 	lsl.w	r3, r1, r3
 8001502:	43d9      	mvns	r1, r3
 8001504:	687b      	ldr	r3, [r7, #4]
 8001506:	400b      	ands	r3, r1
           ((PreemptPriority & (uint32_t)((1UL << (PreemptPriorityBits)) - 1UL)) << SubPriorityBits) |
 8001508:	4313      	orrs	r3, r2
         );
}
 800150a:	4618      	mov	r0, r3
 800150c:	3724      	adds	r7, #36	; 0x24
 800150e:	46bd      	mov	sp, r7
 8001510:	bc80      	pop	{r7}
 8001512:	4770      	bx	lr

08001514 <SysTick_Config>:
  \note    When the variable <b>__Vendor_SysTickConfig</b> is set to 1, then the
           function <b>SysTick_Config</b> is not included. In this case, the file <b><i>device</i>.h</b>
           must contain a vendor-specific implementation of this function.
 */
__STATIC_INLINE uint32_t SysTick_Config(uint32_t ticks)
{
 8001514:	b580      	push	{r7, lr}
 8001516:	b082      	sub	sp, #8
 8001518:	af00      	add	r7, sp, #0
 800151a:	6078      	str	r0, [r7, #4]
  if ((ticks - 1UL) > SysTick_LOAD_RELOAD_Msk)
 800151c:	687b      	ldr	r3, [r7, #4]
 800151e:	3b01      	subs	r3, #1
 8001520:	f1b3 7f80 	cmp.w	r3, #16777216	; 0x1000000
 8001524:	d301      	bcc.n	800152a <SysTick_Config+0x16>
  {
    return (1UL);                                                   /* Reload value impossible */
 8001526:	2301      	movs	r3, #1
 8001528:	e00f      	b.n	800154a <SysTick_Config+0x36>
  }

  SysTick->LOAD  = (uint32_t)(ticks - 1UL);                         /* set reload register */
 800152a:	4a0a      	ldr	r2, [pc, #40]	; (8001554 <SysTick_Config+0x40>)
 800152c:	687b      	ldr	r3, [r7, #4]
 800152e:	3b01      	subs	r3, #1
 8001530:	6053      	str	r3, [r2, #4]
  NVIC_SetPriority (SysTick_IRQn, (1UL << __NVIC_PRIO_BITS) - 1UL); /* set Priority for Systick Interrupt */
 8001532:	210f      	movs	r1, #15
 8001534:	f04f 30ff 	mov.w	r0, #4294967295	; 0xffffffff
 8001538:	f7ff ff90 	bl	800145c <__NVIC_SetPriority>
  SysTick->VAL   = 0UL;                                             /* Load the SysTick Counter Value */
 800153c:	4b05      	ldr	r3, [pc, #20]	; (8001554 <SysTick_Config+0x40>)
 800153e:	2200      	movs	r2, #0
 8001540:	609a      	str	r2, [r3, #8]
  SysTick->CTRL  = SysTick_CTRL_CLKSOURCE_Msk |
 8001542:	4b04      	ldr	r3, [pc, #16]	; (8001554 <SysTick_Config+0x40>)
 8001544:	2207      	movs	r2, #7
 8001546:	601a      	str	r2, [r3, #0]
                   SysTick_CTRL_TICKINT_Msk   |
                   SysTick_CTRL_ENABLE_Msk;                         /* Enable SysTick IRQ and SysTick Timer */
  return (0UL);                                                     /* Function successful */
 8001548:	2300      	movs	r3, #0
}
 800154a:	4618      	mov	r0, r3
 800154c:	3708      	adds	r7, #8
 800154e:	46bd      	mov	sp, r7
 8001550:	bd80      	pop	{r7, pc}
 8001552:	bf00      	nop
 8001554:	e000e010 	.word	0xe000e010

08001558 <HAL_NVIC_SetPriorityGrouping>:
  * @note   When the NVIC_PriorityGroup_0 is selected, IRQ preemption is no more possible. 
  *         The pending IRQ priority will be managed only by the subpriority. 
  * @retval None
  */
void HAL_NVIC_SetPriorityGrouping(uint32_t PriorityGroup)
{
 8001558:	b580      	push	{r7, lr}
 800155a:	b082      	sub	sp, #8
 800155c:	af00      	add	r7, sp, #0
 800155e:	6078      	str	r0, [r7, #4]
  /* Check the parameters */
  assert_param(IS_NVIC_PRIORITY_GROUP(PriorityGroup));
  
  /* Set the PRIGROUP[10:8] bits according to the PriorityGroup parameter value */
  NVIC_SetPriorityGrouping(PriorityGroup);
 8001560:	6878      	ldr	r0, [r7, #4]
 8001562:	f7ff ff2d 	bl	80013c0 <__NVIC_SetPriorityGrouping>
}
 8001566:	bf00      	nop
 8001568:	3708      	adds	r7, #8
 800156a:	46bd      	mov	sp, r7
 800156c:	bd80      	pop	{r7, pc}

0800156e <HAL_NVIC_SetPriority>:
  *         This parameter can be a value between 0 and 15
  *         A lower priority value indicates a higher priority.          
  * @retval None
  */
void HAL_NVIC_SetPriority(IRQn_Type IRQn, uint32_t PreemptPriority, uint32_t SubPriority)
{ 
 800156e:	b580      	push	{r7, lr}
 8001570:	b086      	sub	sp, #24
 8001572:	af00      	add	r7, sp, #0
 8001574:	4603      	mov	r3, r0
 8001576:	60b9      	str	r1, [r7, #8]
 8001578:	607a      	str	r2, [r7, #4]
 800157a:	73fb      	strb	r3, [r7, #15]
  uint32_t prioritygroup = 0x00U;
 800157c:	2300      	movs	r3, #0
 800157e:	617b      	str	r3, [r7, #20]
  
  /* Check the parameters */
  assert_param(IS_NVIC_SUB_PRIORITY(SubPriority));
  assert_param(IS_NVIC_PREEMPTION_PRIORITY(PreemptPriority));
  
  prioritygroup = NVIC_GetPriorityGrouping();
 8001580:	f7ff ff42 	bl	8001408 <__NVIC_GetPriorityGrouping>
 8001584:	6178      	str	r0, [r7, #20]
  
  NVIC_SetPriority(IRQn, NVIC_EncodePriority(prioritygroup, PreemptPriority, SubPriority));
 8001586:	687a      	ldr	r2, [r7, #4]
 8001588:	68b9      	ldr	r1, [r7, #8]
 800158a:	6978      	ldr	r0, [r7, #20]
 800158c:	f7ff ff90 	bl	80014b0 <NVIC_EncodePriority>
 8001590:	4602      	mov	r2, r0
 8001592:	f997 300f 	ldrsb.w	r3, [r7, #15]
 8001596:	4611      	mov	r1, r2
 8001598:	4618      	mov	r0, r3
 800159a:	f7ff ff5f 	bl	800145c <__NVIC_SetPriority>
}
 800159e:	bf00      	nop
 80015a0:	3718      	adds	r7, #24
 80015a2:	46bd      	mov	sp, r7
 80015a4:	bd80      	pop	{r7, pc}

080015a6 <HAL_NVIC_EnableIRQ>:
  *         This parameter can be an enumerator of IRQn_Type enumeration
  *         (For the complete STM32 Devices IRQ Channels list, please refer to the appropriate CMSIS device file (stm32f10xxx.h))
  * @retval None
  */
void HAL_NVIC_EnableIRQ(IRQn_Type IRQn)
{
 80015a6:	b580      	push	{r7, lr}
 80015a8:	b082      	sub	sp, #8
 80015aa:	af00      	add	r7, sp, #0
 80015ac:	4603      	mov	r3, r0
 80015ae:	71fb      	strb	r3, [r7, #7]
  /* Check the parameters */
  assert_param(IS_NVIC_DEVICE_IRQ(IRQn));

  /* Enable interrupt */
  NVIC_EnableIRQ(IRQn);
 80015b0:	f997 3007 	ldrsb.w	r3, [r7, #7]
 80015b4:	4618      	mov	r0, r3
 80015b6:	f7ff ff35 	bl	8001424 <__NVIC_EnableIRQ>
}
 80015ba:	bf00      	nop
 80015bc:	3708      	adds	r7, #8
 80015be:	46bd      	mov	sp, r7
 80015c0:	bd80      	pop	{r7, pc}

080015c2 <HAL_SYSTICK_Config>:
  * @param  TicksNumb: Specifies the ticks Number of ticks between two interrupts.
  * @retval status:  - 0  Function succeeded.
  *                  - 1  Function failed.
  */
uint32_t HAL_SYSTICK_Config(uint32_t TicksNumb)
{
 80015c2:	b580      	push	{r7, lr}
 80015c4:	b082      	sub	sp, #8
 80015c6:	af00      	add	r7, sp, #0
 80015c8:	6078      	str	r0, [r7, #4]
   return SysTick_Config(TicksNumb);
 80015ca:	6878      	ldr	r0, [r7, #4]
 80015cc:	f7ff ffa2 	bl	8001514 <SysTick_Config>
 80015d0:	4603      	mov	r3, r0
}
 80015d2:	4618      	mov	r0, r3
 80015d4:	3708      	adds	r7, #8
 80015d6:	46bd      	mov	sp, r7
 80015d8:	bd80      	pop	{r7, pc}
	...

080015dc <HAL_GPIO_Init>:
  * @param  GPIO_Init: pointer to a GPIO_InitTypeDef structure that contains
  *         the configuration information for the specified GPIO peripheral.
  * @retval None
  */
void HAL_GPIO_Init(GPIO_TypeDef  *GPIOx, GPIO_InitTypeDef *GPIO_Init)
{
 80015dc:	b480      	push	{r7}
 80015de:	b08b      	sub	sp, #44	; 0x2c
 80015e0:	af00      	add	r7, sp, #0
 80015e2:	6078      	str	r0, [r7, #4]
 80015e4:	6039      	str	r1, [r7, #0]
  uint32_t position = 0x00u;
 80015e6:	2300      	movs	r3, #0
 80015e8:	627b      	str	r3, [r7, #36]	; 0x24
  uint32_t ioposition;
  uint32_t iocurrent;
  uint32_t temp;
  uint32_t config = 0x00u;
 80015ea:	2300      	movs	r3, #0
 80015ec:	623b      	str	r3, [r7, #32]
  assert_param(IS_GPIO_ALL_INSTANCE(GPIOx));
  assert_param(IS_GPIO_PIN(GPIO_Init->Pin));
  assert_param(IS_GPIO_MODE(GPIO_Init->Mode));

  /* Configure the port pins */
  while (((GPIO_Init->Pin) >> position) != 0x00u)
 80015ee:	e169      	b.n	80018c4 <HAL_GPIO_Init+0x2e8>
  {
    /* Get the IO position */
    ioposition = (0x01uL << position);
 80015f0:	2201      	movs	r2, #1
 80015f2:	6a7b      	ldr	r3, [r7, #36]	; 0x24
 80015f4:	fa02 f303 	lsl.w	r3, r2, r3
 80015f8:	61fb      	str	r3, [r7, #28]

    /* Get the current IO position */
    iocurrent = (uint32_t)(GPIO_Init->Pin) & ioposition;
 80015fa:	683b      	ldr	r3, [r7, #0]
 80015fc:	681b      	ldr	r3, [r3, #0]
 80015fe:	69fa      	ldr	r2, [r7, #28]
 8001600:	4013      	ands	r3, r2
 8001602:	61bb      	str	r3, [r7, #24]

    if (iocurrent == ioposition)
 8001604:	69ba      	ldr	r2, [r7, #24]
 8001606:	69fb      	ldr	r3, [r7, #28]
 8001608:	429a      	cmp	r2, r3
 800160a:	f040 8158 	bne.w	80018be <HAL_GPIO_Init+0x2e2>
    {
      /* Check the Alternate function parameters */
      assert_param(IS_GPIO_AF_INSTANCE(GPIOx));

      /* Based on the required mode, filling config variable with MODEy[1:0] and CNFy[3:2] corresponding bits */
      switch (GPIO_Init->Mode)
 800160e:	683b      	ldr	r3, [r7, #0]
 8001610:	685b      	ldr	r3, [r3, #4]
 8001612:	4a9a      	ldr	r2, [pc, #616]	; (800187c <HAL_GPIO_Init+0x2a0>)
 8001614:	4293      	cmp	r3, r2
 8001616:	d05e      	beq.n	80016d6 <HAL_GPIO_Init+0xfa>
 8001618:	4a98      	ldr	r2, [pc, #608]	; (800187c <HAL_GPIO_Init+0x2a0>)
 800161a:	4293      	cmp	r3, r2
 800161c:	d875      	bhi.n	800170a <HAL_GPIO_Init+0x12e>
 800161e:	4a98      	ldr	r2, [pc, #608]	; (8001880 <HAL_GPIO_Init+0x2a4>)
 8001620:	4293      	cmp	r3, r2
 8001622:	d058      	beq.n	80016d6 <HAL_GPIO_Init+0xfa>
 8001624:	4a96      	ldr	r2, [pc, #600]	; (8001880 <HAL_GPIO_Init+0x2a4>)
 8001626:	4293      	cmp	r3, r2
 8001628:	d86f      	bhi.n	800170a <HAL_GPIO_Init+0x12e>
 800162a:	4a96      	ldr	r2, [pc, #600]	; (8001884 <HAL_GPIO_Init+0x2a8>)
 800162c:	4293      	cmp	r3, r2
 800162e:	d052      	beq.n	80016d6 <HAL_GPIO_Init+0xfa>
 8001630:	4a94      	ldr	r2, [pc, #592]	; (8001884 <HAL_GPIO_Init+0x2a8>)
 8001632:	4293      	cmp	r3, r2
 8001634:	d869      	bhi.n	800170a <HAL_GPIO_Init+0x12e>
 8001636:	4a94      	ldr	r2, [pc, #592]	; (8001888 <HAL_GPIO_Init+0x2ac>)
 8001638:	4293      	cmp	r3, r2
 800163a:	d04c      	beq.n	80016d6 <HAL_GPIO_Init+0xfa>
 800163c:	4a92      	ldr	r2, [pc, #584]	; (8001888 <HAL_GPIO_Init+0x2ac>)
 800163e:	4293      	cmp	r3, r2
 8001640:	d863      	bhi.n	800170a <HAL_GPIO_Init+0x12e>
 8001642:	4a92      	ldr	r2, [pc, #584]	; (800188c <HAL_GPIO_Init+0x2b0>)
 8001644:	4293      	cmp	r3, r2
 8001646:	d046      	beq.n	80016d6 <HAL_GPIO_Init+0xfa>
 8001648:	4a90      	ldr	r2, [pc, #576]	; (800188c <HAL_GPIO_Init+0x2b0>)
 800164a:	4293      	cmp	r3, r2
 800164c:	d85d      	bhi.n	800170a <HAL_GPIO_Init+0x12e>
 800164e:	2b12      	cmp	r3, #18
 8001650:	d82a      	bhi.n	80016a8 <HAL_GPIO_Init+0xcc>
 8001652:	2b12      	cmp	r3, #18
 8001654:	d859      	bhi.n	800170a <HAL_GPIO_Init+0x12e>
 8001656:	a201      	add	r2, pc, #4	; (adr r2, 800165c <HAL_GPIO_Init+0x80>)
 8001658:	f852 f023 	ldr.w	pc, [r2, r3, lsl #2]
 800165c:	080016d7 	.word	0x080016d7
 8001660:	080016b1 	.word	0x080016b1
 8001664:	080016c3 	.word	0x080016c3
 8001668:	08001705 	.word	0x08001705
 800166c:	0800170b 	.word	0x0800170b
 8001670:	0800170b 	.word	0x0800170b
 8001674:	0800170b 	.word	0x0800170b
 8001678:	0800170b 	.word	0x0800170b
 800167c:	0800170b 	.word	0x0800170b
 8001680:	0800170b 	.word	0x0800170b
 8001684:	0800170b 	.word	0x0800170b
 8001688:	0800170b 	.word	0x0800170b
 800168c:	0800170b 	.word	0x0800170b
 8001690:	0800170b 	.word	0x0800170b
 8001694:	0800170b 	.word	0x0800170b
 8001698:	0800170b 	.word	0x0800170b
 800169c:	0800170b 	.word	0x0800170b
 80016a0:	080016b9 	.word	0x080016b9
 80016a4:	080016cd 	.word	0x080016cd
 80016a8:	4a79      	ldr	r2, [pc, #484]	; (8001890 <HAL_GPIO_Init+0x2b4>)
 80016aa:	4293      	cmp	r3, r2
 80016ac:	d013      	beq.n	80016d6 <HAL_GPIO_Init+0xfa>
          config = GPIO_CR_MODE_INPUT + GPIO_CR_CNF_ANALOG;
          break;

        /* Parameters are checked with assert_param */
        default:
          break;
 80016ae:	e02c      	b.n	800170a <HAL_GPIO_Init+0x12e>
          config = GPIO_Init->Speed + GPIO_CR_CNF_GP_OUTPUT_PP;
 80016b0:	683b      	ldr	r3, [r7, #0]
 80016b2:	68db      	ldr	r3, [r3, #12]
 80016b4:	623b      	str	r3, [r7, #32]
          break;
 80016b6:	e029      	b.n	800170c <HAL_GPIO_Init+0x130>
          config = GPIO_Init->Speed + GPIO_CR_CNF_GP_OUTPUT_OD;
 80016b8:	683b      	ldr	r3, [r7, #0]
 80016ba:	68db      	ldr	r3, [r3, #12]
 80016bc:	3304      	adds	r3, #4
 80016be:	623b      	str	r3, [r7, #32]
          break;
 80016c0:	e024      	b.n	800170c <HAL_GPIO_Init+0x130>
          config = GPIO_Init->Speed + GPIO_CR_CNF_AF_OUTPUT_PP;
 80016c2:	683b      	ldr	r3, [r7, #0]
 80016c4:	68db      	ldr	r3, [r3, #12]
 80016c6:	3308      	adds	r3, #8
 80016c8:	623b      	str	r3, [r7, #32]
          break;
 80016ca:	e01f      	b.n	800170c <HAL_GPIO_Init+0x130>
          config = GPIO_Init->Speed + GPIO_CR_CNF_AF_OUTPUT_OD;
 80016cc:	683b      	ldr	r3, [r7, #0]
 80016ce:	68db      	ldr	r3, [r3, #12]
 80016d0:	330c      	adds	r3, #12
 80016d2:	623b      	str	r3, [r7, #32]
          break;
 80016d4:	e01a      	b.n	800170c <HAL_GPIO_Init+0x130>
          if (GPIO_Init->Pull == GPIO_NOPULL)
 80016d6:	683b      	ldr	r3, [r7, #0]
 80016d8:	689b      	ldr	r3, [r3, #8]
 80016da:	2b00      	cmp	r3, #0
 80016dc:	d102      	bne.n	80016e4 <HAL_GPIO_Init+0x108>
            config = GPIO_CR_MODE_INPUT + GPIO_CR_CNF_INPUT_FLOATING;
 80016de:	2304      	movs	r3, #4
 80016e0:	623b      	str	r3, [r7, #32]
          break;
 80016e2:	e013      	b.n	800170c <HAL_GPIO_Init+0x130>
          else if (GPIO_Init->Pull == GPIO_PULLUP)
 80016e4:	683b      	ldr	r3, [r7, #0]
 80016e6:	689b      	ldr	r3, [r3, #8]
 80016e8:	2b01      	cmp	r3, #1
 80016ea:	d105      	bne.n	80016f8 <HAL_GPIO_Init+0x11c>
            config = GPIO_CR_MODE_INPUT + GPIO_CR_CNF_INPUT_PU_PD;
 80016ec:	2308      	movs	r3, #8
 80016ee:	623b      	str	r3, [r7, #32]
            GPIOx->BSRR = ioposition;
 80016f0:	687b      	ldr	r3, [r7, #4]
 80016f2:	69fa      	ldr	r2, [r7, #28]
 80016f4:	611a      	str	r2, [r3, #16]
          break;
 80016f6:	e009      	b.n	800170c <HAL_GPIO_Init+0x130>
            config = GPIO_CR_MODE_INPUT + GPIO_CR_CNF_INPUT_PU_PD;
 80016f8:	2308      	movs	r3, #8
 80016fa:	623b      	str	r3, [r7, #32]
            GPIOx->BRR = ioposition;
 80016fc:	687b      	ldr	r3, [r7, #4]
 80016fe:	69fa      	ldr	r2, [r7, #28]
 8001700:	615a      	str	r2, [r3, #20]
          break;
 8001702:	e003      	b.n	800170c <HAL_GPIO_Init+0x130>
          config = GPIO_CR_MODE_INPUT + GPIO_CR_CNF_ANALOG;
 8001704:	2300      	movs	r3, #0
 8001706:	623b      	str	r3, [r7, #32]
          break;
 8001708:	e000      	b.n	800170c <HAL_GPIO_Init+0x130>
          break;
 800170a:	bf00      	nop
      }

      /* Check if the current bit belongs to first half or last half of the pin count number
       in order to address CRH or CRL register*/
      configregister = (iocurrent < GPIO_PIN_8) ? &GPIOx->CRL     : &GPIOx->CRH;
 800170c:	69bb      	ldr	r3, [r7, #24]
 800170e:	2bff      	cmp	r3, #255	; 0xff
 8001710:	d801      	bhi.n	8001716 <HAL_GPIO_Init+0x13a>
 8001712:	687b      	ldr	r3, [r7, #4]
 8001714:	e001      	b.n	800171a <HAL_GPIO_Init+0x13e>
 8001716:	687b      	ldr	r3, [r7, #4]
 8001718:	3304      	adds	r3, #4
 800171a:	617b      	str	r3, [r7, #20]
      registeroffset = (iocurrent < GPIO_PIN_8) ? (position << 2u) : ((position - 8u) << 2u);
 800171c:	69bb      	ldr	r3, [r7, #24]
 800171e:	2bff      	cmp	r3, #255	; 0xff
 8001720:	d802      	bhi.n	8001728 <HAL_GPIO_Init+0x14c>
 8001722:	6a7b      	ldr	r3, [r7, #36]	; 0x24
 8001724:	009b      	lsls	r3, r3, #2
 8001726:	e002      	b.n	800172e <HAL_GPIO_Init+0x152>
 8001728:	6a7b      	ldr	r3, [r7, #36]	; 0x24
 800172a:	3b08      	subs	r3, #8
 800172c:	009b      	lsls	r3, r3, #2
 800172e:	613b      	str	r3, [r7, #16]

      /* Apply the new configuration of the pin to the register */
      MODIFY_REG((*configregister), ((GPIO_CRL_MODE0 | GPIO_CRL_CNF0) << registeroffset), (config << registeroffset));
 8001730:	697b      	ldr	r3, [r7, #20]
 8001732:	681a      	ldr	r2, [r3, #0]
 8001734:	210f      	movs	r1, #15
 8001736:	693b      	ldr	r3, [r7, #16]
 8001738:	fa01 f303 	lsl.w	r3, r1, r3
 800173c:	43db      	mvns	r3, r3
 800173e:	401a      	ands	r2, r3
 8001740:	6a39      	ldr	r1, [r7, #32]
 8001742:	693b      	ldr	r3, [r7, #16]
 8001744:	fa01 f303 	lsl.w	r3, r1, r3
 8001748:	431a      	orrs	r2, r3
 800174a:	697b      	ldr	r3, [r7, #20]
 800174c:	601a      	str	r2, [r3, #0]

      /*--------------------- EXTI Mode Configuration ------------------------*/
      /* Configure the External Interrupt or event for the current IO */
      if ((GPIO_Init->Mode & EXTI_MODE) == EXTI_MODE)
 800174e:	683b      	ldr	r3, [r7, #0]
 8001750:	685b      	ldr	r3, [r3, #4]
 8001752:	f003 5380 	and.w	r3, r3, #268435456	; 0x10000000
 8001756:	2b00      	cmp	r3, #0
 8001758:	f000 80b1 	beq.w	80018be <HAL_GPIO_Init+0x2e2>
      {
        /* Enable AFIO Clock */
        __HAL_RCC_AFIO_CLK_ENABLE();
 800175c:	4b4d      	ldr	r3, [pc, #308]	; (8001894 <HAL_GPIO_Init+0x2b8>)
 800175e:	699b      	ldr	r3, [r3, #24]
 8001760:	4a4c      	ldr	r2, [pc, #304]	; (8001894 <HAL_GPIO_Init+0x2b8>)
 8001762:	f043 0301 	orr.w	r3, r3, #1
 8001766:	6193      	str	r3, [r2, #24]
 8001768:	4b4a      	ldr	r3, [pc, #296]	; (8001894 <HAL_GPIO_Init+0x2b8>)
 800176a:	699b      	ldr	r3, [r3, #24]
 800176c:	f003 0301 	and.w	r3, r3, #1
 8001770:	60bb      	str	r3, [r7, #8]
 8001772:	68bb      	ldr	r3, [r7, #8]
        temp = AFIO->EXTICR[position >> 2u];
 8001774:	4a48      	ldr	r2, [pc, #288]	; (8001898 <HAL_GPIO_Init+0x2bc>)
 8001776:	6a7b      	ldr	r3, [r7, #36]	; 0x24
 8001778:	089b      	lsrs	r3, r3, #2
 800177a:	3302      	adds	r3, #2
 800177c:	f852 3023 	ldr.w	r3, [r2, r3, lsl #2]
 8001780:	60fb      	str	r3, [r7, #12]
        CLEAR_BIT(temp, (0x0Fu) << (4u * (position & 0x03u)));
 8001782:	6a7b      	ldr	r3, [r7, #36]	; 0x24
 8001784:	f003 0303 	and.w	r3, r3, #3
 8001788:	009b      	lsls	r3, r3, #2
 800178a:	220f      	movs	r2, #15
 800178c:	fa02 f303 	lsl.w	r3, r2, r3
 8001790:	43db      	mvns	r3, r3
 8001792:	68fa      	ldr	r2, [r7, #12]
 8001794:	4013      	ands	r3, r2
 8001796:	60fb      	str	r3, [r7, #12]
        SET_BIT(temp, (GPIO_GET_INDEX(GPIOx)) << (4u * (position & 0x03u)));
 8001798:	687b      	ldr	r3, [r7, #4]
 800179a:	4a40      	ldr	r2, [pc, #256]	; (800189c <HAL_GPIO_Init+0x2c0>)
 800179c:	4293      	cmp	r3, r2
 800179e:	d013      	beq.n	80017c8 <HAL_GPIO_Init+0x1ec>
 80017a0:	687b      	ldr	r3, [r7, #4]
 80017a2:	4a3f      	ldr	r2, [pc, #252]	; (80018a0 <HAL_GPIO_Init+0x2c4>)
 80017a4:	4293      	cmp	r3, r2
 80017a6:	d00d      	beq.n	80017c4 <HAL_GPIO_Init+0x1e8>
 80017a8:	687b      	ldr	r3, [r7, #4]
 80017aa:	4a3e      	ldr	r2, [pc, #248]	; (80018a4 <HAL_GPIO_Init+0x2c8>)
 80017ac:	4293      	cmp	r3, r2
 80017ae:	d007      	beq.n	80017c0 <HAL_GPIO_Init+0x1e4>
 80017b0:	687b      	ldr	r3, [r7, #4]
 80017b2:	4a3d      	ldr	r2, [pc, #244]	; (80018a8 <HAL_GPIO_Init+0x2cc>)
 80017b4:	4293      	cmp	r3, r2
 80017b6:	d101      	bne.n	80017bc <HAL_GPIO_Init+0x1e0>
 80017b8:	2303      	movs	r3, #3
 80017ba:	e006      	b.n	80017ca <HAL_GPIO_Init+0x1ee>
 80017bc:	2304      	movs	r3, #4
 80017be:	e004      	b.n	80017ca <HAL_GPIO_Init+0x1ee>
 80017c0:	2302      	movs	r3, #2
 80017c2:	e002      	b.n	80017ca <HAL_GPIO_Init+0x1ee>
 80017c4:	2301      	movs	r3, #1
 80017c6:	e000      	b.n	80017ca <HAL_GPIO_Init+0x1ee>
 80017c8:	2300      	movs	r3, #0
 80017ca:	6a7a      	ldr	r2, [r7, #36]	; 0x24
 80017cc:	f002 0203 	and.w	r2, r2, #3
 80017d0:	0092      	lsls	r2, r2, #2
 80017d2:	4093      	lsls	r3, r2
 80017d4:	68fa      	ldr	r2, [r7, #12]
 80017d6:	4313      	orrs	r3, r2
 80017d8:	60fb      	str	r3, [r7, #12]
        AFIO->EXTICR[position >> 2u] = temp;
 80017da:	492f      	ldr	r1, [pc, #188]	; (8001898 <HAL_GPIO_Init+0x2bc>)
 80017dc:	6a7b      	ldr	r3, [r7, #36]	; 0x24
 80017de:	089b      	lsrs	r3, r3, #2
 80017e0:	3302      	adds	r3, #2
 80017e2:	68fa      	ldr	r2, [r7, #12]
 80017e4:	f841 2023 	str.w	r2, [r1, r3, lsl #2]


        /* Configure the interrupt mask */
        if ((GPIO_Init->Mode & GPIO_MODE_IT) == GPIO_MODE_IT)
 80017e8:	683b      	ldr	r3, [r7, #0]
 80017ea:	685b      	ldr	r3, [r3, #4]
 80017ec:	f403 3380 	and.w	r3, r3, #65536	; 0x10000
 80017f0:	2b00      	cmp	r3, #0
 80017f2:	d006      	beq.n	8001802 <HAL_GPIO_Init+0x226>
        {
          SET_BIT(EXTI->IMR, iocurrent);
 80017f4:	4b2d      	ldr	r3, [pc, #180]	; (80018ac <HAL_GPIO_Init+0x2d0>)
 80017f6:	681a      	ldr	r2, [r3, #0]
 80017f8:	492c      	ldr	r1, [pc, #176]	; (80018ac <HAL_GPIO_Init+0x2d0>)
 80017fa:	69bb      	ldr	r3, [r7, #24]
 80017fc:	4313      	orrs	r3, r2
 80017fe:	600b      	str	r3, [r1, #0]
 8001800:	e006      	b.n	8001810 <HAL_GPIO_Init+0x234>
        }
        else
        {
          CLEAR_BIT(EXTI->IMR, iocurrent);
 8001802:	4b2a      	ldr	r3, [pc, #168]	; (80018ac <HAL_GPIO_Init+0x2d0>)
 8001804:	681a      	ldr	r2, [r3, #0]
 8001806:	69bb      	ldr	r3, [r7, #24]
 8001808:	43db      	mvns	r3, r3
 800180a:	4928      	ldr	r1, [pc, #160]	; (80018ac <HAL_GPIO_Init+0x2d0>)
 800180c:	4013      	ands	r3, r2
 800180e:	600b      	str	r3, [r1, #0]
        }

        /* Configure the event mask */
        if ((GPIO_Init->Mode & GPIO_MODE_EVT) == GPIO_MODE_EVT)
 8001810:	683b      	ldr	r3, [r7, #0]
 8001812:	685b      	ldr	r3, [r3, #4]
 8001814:	f403 3300 	and.w	r3, r3, #131072	; 0x20000
 8001818:	2b00      	cmp	r3, #0
 800181a:	d006      	beq.n	800182a <HAL_GPIO_Init+0x24e>
        {
          SET_BIT(EXTI->EMR, iocurrent);
 800181c:	4b23      	ldr	r3, [pc, #140]	; (80018ac <HAL_GPIO_Init+0x2d0>)
 800181e:	685a      	ldr	r2, [r3, #4]
 8001820:	4922      	ldr	r1, [pc, #136]	; (80018ac <HAL_GPIO_Init+0x2d0>)
 8001822:	69bb      	ldr	r3, [r7, #24]
 8001824:	4313      	orrs	r3, r2
 8001826:	604b      	str	r3, [r1, #4]
 8001828:	e006      	b.n	8001838 <HAL_GPIO_Init+0x25c>
        }
        else
        {
          CLEAR_BIT(EXTI->EMR, iocurrent);
 800182a:	4b20      	ldr	r3, [pc, #128]	; (80018ac <HAL_GPIO_Init+0x2d0>)
 800182c:	685a      	ldr	r2, [r3, #4]
 800182e:	69bb      	ldr	r3, [r7, #24]
 8001830:	43db      	mvns	r3, r3
 8001832:	491e      	ldr	r1, [pc, #120]	; (80018ac <HAL_GPIO_Init+0x2d0>)
 8001834:	4013      	ands	r3, r2
 8001836:	604b      	str	r3, [r1, #4]
        }

        /* Enable or disable the rising trigger */
        if ((GPIO_Init->Mode & RISING_EDGE) == RISING_EDGE)
 8001838:	683b      	ldr	r3, [r7, #0]
 800183a:	685b      	ldr	r3, [r3, #4]
 800183c:	f403 1380 	and.w	r3, r3, #1048576	; 0x100000
 8001840:	2b00      	cmp	r3, #0
 8001842:	d006      	beq.n	8001852 <HAL_GPIO_Init+0x276>
        {
          SET_BIT(EXTI->RTSR, iocurrent);
 8001844:	4b19      	ldr	r3, [pc, #100]	; (80018ac <HAL_GPIO_Init+0x2d0>)
 8001846:	689a      	ldr	r2, [r3, #8]
 8001848:	4918      	ldr	r1, [pc, #96]	; (80018ac <HAL_GPIO_Init+0x2d0>)
 800184a:	69bb      	ldr	r3, [r7, #24]
 800184c:	4313      	orrs	r3, r2
 800184e:	608b      	str	r3, [r1, #8]
 8001850:	e006      	b.n	8001860 <HAL_GPIO_Init+0x284>
        }
        else
        {
          CLEAR_BIT(EXTI->RTSR, iocurrent);
 8001852:	4b16      	ldr	r3, [pc, #88]	; (80018ac <HAL_GPIO_Init+0x2d0>)
 8001854:	689a      	ldr	r2, [r3, #8]
 8001856:	69bb      	ldr	r3, [r7, #24]
 8001858:	43db      	mvns	r3, r3
 800185a:	4914      	ldr	r1, [pc, #80]	; (80018ac <HAL_GPIO_Init+0x2d0>)
 800185c:	4013      	ands	r3, r2
 800185e:	608b      	str	r3, [r1, #8]
        }

        /* Enable or disable the falling trigger */
        if ((GPIO_Init->Mode & FALLING_EDGE) == FALLING_EDGE)
 8001860:	683b      	ldr	r3, [r7, #0]
 8001862:	685b      	ldr	r3, [r3, #4]
 8001864:	f403 1300 	and.w	r3, r3, #2097152	; 0x200000
 8001868:	2b00      	cmp	r3, #0
 800186a:	d021      	beq.n	80018b0 <HAL_GPIO_Init+0x2d4>
        {
          SET_BIT(EXTI->FTSR, iocurrent);
 800186c:	4b0f      	ldr	r3, [pc, #60]	; (80018ac <HAL_GPIO_Init+0x2d0>)
 800186e:	68da      	ldr	r2, [r3, #12]
 8001870:	490e      	ldr	r1, [pc, #56]	; (80018ac <HAL_GPIO_Init+0x2d0>)
 8001872:	69bb      	ldr	r3, [r7, #24]
 8001874:	4313      	orrs	r3, r2
 8001876:	60cb      	str	r3, [r1, #12]
 8001878:	e021      	b.n	80018be <HAL_GPIO_Init+0x2e2>
 800187a:	bf00      	nop
 800187c:	10320000 	.word	0x10320000
 8001880:	10310000 	.word	0x10310000
 8001884:	10220000 	.word	0x10220000
 8001888:	10210000 	.word	0x10210000
 800188c:	10120000 	.word	0x10120000
 8001890:	10110000 	.word	0x10110000
 8001894:	40021000 	.word	0x40021000
 8001898:	40010000 	.word	0x40010000
 800189c:	40010800 	.word	0x40010800
 80018a0:	40010c00 	.word	0x40010c00
 80018a4:	40011000 	.word	0x40011000
 80018a8:	40011400 	.word	0x40011400
 80018ac:	40010400 	.word	0x40010400
        }
        else
        {
          CLEAR_BIT(EXTI->FTSR, iocurrent);
 80018b0:	4b0b      	ldr	r3, [pc, #44]	; (80018e0 <HAL_GPIO_Init+0x304>)
 80018b2:	68da      	ldr	r2, [r3, #12]
 80018b4:	69bb      	ldr	r3, [r7, #24]
 80018b6:	43db      	mvns	r3, r3
 80018b8:	4909      	ldr	r1, [pc, #36]	; (80018e0 <HAL_GPIO_Init+0x304>)
 80018ba:	4013      	ands	r3, r2
 80018bc:	60cb      	str	r3, [r1, #12]
        }
      }
    }

	position++;
 80018be:	6a7b      	ldr	r3, [r7, #36]	; 0x24
 80018c0:	3301      	adds	r3, #1
 80018c2:	627b      	str	r3, [r7, #36]	; 0x24
  while (((GPIO_Init->Pin) >> position) != 0x00u)
 80018c4:	683b      	ldr	r3, [r7, #0]
 80018c6:	681a      	ldr	r2, [r3, #0]
 80018c8:	6a7b      	ldr	r3, [r7, #36]	; 0x24
 80018ca:	fa22 f303 	lsr.w	r3, r2, r3
 80018ce:	2b00      	cmp	r3, #0
 80018d0:	f47f ae8e 	bne.w	80015f0 <HAL_GPIO_Init+0x14>
  }
}
 80018d4:	bf00      	nop
 80018d6:	bf00      	nop
 80018d8:	372c      	adds	r7, #44	; 0x2c
 80018da:	46bd      	mov	sp, r7
 80018dc:	bc80      	pop	{r7}
 80018de:	4770      	bx	lr
 80018e0:	40010400 	.word	0x40010400

080018e4 <HAL_GPIO_WritePin>:
  *            @arg GPIO_PIN_RESET: to clear the port pin
  *            @arg GPIO_PIN_SET: to set the port pin
  * @retval None
  */
void HAL_GPIO_WritePin(GPIO_TypeDef *GPIOx, uint16_t GPIO_Pin, GPIO_PinState PinState)
{
 80018e4:	b480      	push	{r7}
 80018e6:	b083      	sub	sp, #12
 80018e8:	af00      	add	r7, sp, #0
 80018ea:	6078      	str	r0, [r7, #4]
 80018ec:	460b      	mov	r3, r1
 80018ee:	807b      	strh	r3, [r7, #2]
 80018f0:	4613      	mov	r3, r2
 80018f2:	707b      	strb	r3, [r7, #1]
  /* Check the parameters */
  assert_param(IS_GPIO_PIN(GPIO_Pin));
  assert_param(IS_GPIO_PIN_ACTION(PinState));

  if (PinState != GPIO_PIN_RESET)
 80018f4:	787b      	ldrb	r3, [r7, #1]
 80018f6:	2b00      	cmp	r3, #0
 80018f8:	d003      	beq.n	8001902 <HAL_GPIO_WritePin+0x1e>
  {
    GPIOx->BSRR = GPIO_Pin;
 80018fa:	887a      	ldrh	r2, [r7, #2]
 80018fc:	687b      	ldr	r3, [r7, #4]
 80018fe:	611a      	str	r2, [r3, #16]
  }
  else
  {
    GPIOx->BSRR = (uint32_t)GPIO_Pin << 16u;
  }
}
 8001900:	e003      	b.n	800190a <HAL_GPIO_WritePin+0x26>
    GPIOx->BSRR = (uint32_t)GPIO_Pin << 16u;
 8001902:	887b      	ldrh	r3, [r7, #2]
 8001904:	041a      	lsls	r2, r3, #16
 8001906:	687b      	ldr	r3, [r7, #4]
 8001908:	611a      	str	r2, [r3, #16]
}
 800190a:	bf00      	nop
 800190c:	370c      	adds	r7, #12
 800190e:	46bd      	mov	sp, r7
 8001910:	bc80      	pop	{r7}
 8001912:	4770      	bx	lr

08001914 <HAL_I2C_Init>:
  * @param  hi2c Pointer to a I2C_HandleTypeDef structure that contains
  *                the configuration information for the specified I2C.
  * @retval HAL status
  */
HAL_StatusTypeDef HAL_I2C_Init(I2C_HandleTypeDef *hi2c)
{
 8001914:	b580      	push	{r7, lr}
 8001916:	b084      	sub	sp, #16
 8001918:	af00      	add	r7, sp, #0
 800191a:	6078      	str	r0, [r7, #4]
  uint32_t freqrange;
  uint32_t pclk1;

  /* Check the I2C handle allocation */
  if (hi2c == NULL)
 800191c:	687b      	ldr	r3, [r7, #4]
 800191e:	2b00      	cmp	r3, #0
 8001920:	d101      	bne.n	8001926 <HAL_I2C_Init+0x12>
  {
    return HAL_ERROR;
 8001922:	2301      	movs	r3, #1
 8001924:	e12b      	b.n	8001b7e <HAL_I2C_Init+0x26a>
  assert_param(IS_I2C_DUAL_ADDRESS(hi2c->Init.DualAddressMode));
  assert_param(IS_I2C_OWN_ADDRESS2(hi2c->Init.OwnAddress2));
  assert_param(IS_I2C_GENERAL_CALL(hi2c->Init.GeneralCallMode));
  assert_param(IS_I2C_NO_STRETCH(hi2c->Init.NoStretchMode));

  if (hi2c->State == HAL_I2C_STATE_RESET)
 8001926:	687b      	ldr	r3, [r7, #4]
 8001928:	f893 303d 	ldrb.w	r3, [r3, #61]	; 0x3d
 800192c:	b2db      	uxtb	r3, r3
 800192e:	2b00      	cmp	r3, #0
 8001930:	d106      	bne.n	8001940 <HAL_I2C_Init+0x2c>
  {
    /* Allocate lock resource and initialize it */
    hi2c->Lock = HAL_UNLOCKED;
 8001932:	687b      	ldr	r3, [r7, #4]
 8001934:	2200      	movs	r2, #0
 8001936:	f883 203c 	strb.w	r2, [r3, #60]	; 0x3c

    /* Init the low level hardware : GPIO, CLOCK, NVIC */
    hi2c->MspInitCallback(hi2c);
#else
    /* Init the low level hardware : GPIO, CLOCK, NVIC */
    HAL_I2C_MspInit(hi2c);
 800193a:	6878      	ldr	r0, [r7, #4]
 800193c:	f7fe ffa0 	bl	8000880 <HAL_I2C_MspInit>
#endif /* USE_HAL_I2C_REGISTER_CALLBACKS */
  }

  hi2c->State = HAL_I2C_STATE_BUSY;
 8001940:	687b      	ldr	r3, [r7, #4]
 8001942:	2224      	movs	r2, #36	; 0x24
 8001944:	f883 203d 	strb.w	r2, [r3, #61]	; 0x3d

  /* Disable the selected I2C peripheral */
  __HAL_I2C_DISABLE(hi2c);
 8001948:	687b      	ldr	r3, [r7, #4]
 800194a:	681b      	ldr	r3, [r3, #0]
 800194c:	681a      	ldr	r2, [r3, #0]
 800194e:	687b      	ldr	r3, [r7, #4]
 8001950:	681b      	ldr	r3, [r3, #0]
 8001952:	f022 0201 	bic.w	r2, r2, #1
 8001956:	601a      	str	r2, [r3, #0]

  /*Reset I2C*/
  hi2c->Instance->CR1 |= I2C_CR1_SWRST;
 8001958:	687b      	ldr	r3, [r7, #4]
 800195a:	681b      	ldr	r3, [r3, #0]
 800195c:	681a      	ldr	r2, [r3, #0]
 800195e:	687b      	ldr	r3, [r7, #4]
 8001960:	681b      	ldr	r3, [r3, #0]
 8001962:	f442 4200 	orr.w	r2, r2, #32768	; 0x8000
 8001966:	601a      	str	r2, [r3, #0]
  hi2c->Instance->CR1 &= ~I2C_CR1_SWRST;
 8001968:	687b      	ldr	r3, [r7, #4]
 800196a:	681b      	ldr	r3, [r3, #0]
 800196c:	681a      	ldr	r2, [r3, #0]
 800196e:	687b      	ldr	r3, [r7, #4]
 8001970:	681b      	ldr	r3, [r3, #0]
 8001972:	f422 4200 	bic.w	r2, r2, #32768	; 0x8000
 8001976:	601a      	str	r2, [r3, #0]

  /* Get PCLK1 frequency */
  pclk1 = HAL_RCC_GetPCLK1Freq();
 8001978:	f002 fcbe 	bl	80042f8 <HAL_RCC_GetPCLK1Freq>
 800197c:	60f8      	str	r0, [r7, #12]

  /* Check the minimum allowed PCLK1 frequency */
  if (I2C_MIN_PCLK_FREQ(pclk1, hi2c->Init.ClockSpeed) == 1U)
 800197e:	687b      	ldr	r3, [r7, #4]
 8001980:	685b      	ldr	r3, [r3, #4]
 8001982:	4a81      	ldr	r2, [pc, #516]	; (8001b88 <HAL_I2C_Init+0x274>)
 8001984:	4293      	cmp	r3, r2
 8001986:	d807      	bhi.n	8001998 <HAL_I2C_Init+0x84>
 8001988:	68fb      	ldr	r3, [r7, #12]
 800198a:	4a80      	ldr	r2, [pc, #512]	; (8001b8c <HAL_I2C_Init+0x278>)
 800198c:	4293      	cmp	r3, r2
 800198e:	bf94      	ite	ls
 8001990:	2301      	movls	r3, #1
 8001992:	2300      	movhi	r3, #0
 8001994:	b2db      	uxtb	r3, r3
 8001996:	e006      	b.n	80019a6 <HAL_I2C_Init+0x92>
 8001998:	68fb      	ldr	r3, [r7, #12]
 800199a:	4a7d      	ldr	r2, [pc, #500]	; (8001b90 <HAL_I2C_Init+0x27c>)
 800199c:	4293      	cmp	r3, r2
 800199e:	bf94      	ite	ls
 80019a0:	2301      	movls	r3, #1
 80019a2:	2300      	movhi	r3, #0
 80019a4:	b2db      	uxtb	r3, r3
 80019a6:	2b00      	cmp	r3, #0
 80019a8:	d001      	beq.n	80019ae <HAL_I2C_Init+0x9a>
  {
    return HAL_ERROR;
 80019aa:	2301      	movs	r3, #1
 80019ac:	e0e7      	b.n	8001b7e <HAL_I2C_Init+0x26a>
  }

  /* Calculate frequency range */
  freqrange = I2C_FREQRANGE(pclk1);
 80019ae:	68fb      	ldr	r3, [r7, #12]
 80019b0:	4a78      	ldr	r2, [pc, #480]	; (8001b94 <HAL_I2C_Init+0x280>)
 80019b2:	fba2 2303 	umull	r2, r3, r2, r3
 80019b6:	0c9b      	lsrs	r3, r3, #18
 80019b8:	60bb      	str	r3, [r7, #8]

  /*---------------------------- I2Cx CR2 Configuration ----------------------*/
  /* Configure I2Cx: Frequency range */
  MODIFY_REG(hi2c->Instance->CR2, I2C_CR2_FREQ, freqrange);
 80019ba:	687b      	ldr	r3, [r7, #4]
 80019bc:	681b      	ldr	r3, [r3, #0]
 80019be:	685b      	ldr	r3, [r3, #4]
 80019c0:	f023 013f 	bic.w	r1, r3, #63	; 0x3f
 80019c4:	687b      	ldr	r3, [r7, #4]
 80019c6:	681b      	ldr	r3, [r3, #0]
 80019c8:	68ba      	ldr	r2, [r7, #8]
 80019ca:	430a      	orrs	r2, r1
 80019cc:	605a      	str	r2, [r3, #4]

  /*---------------------------- I2Cx TRISE Configuration --------------------*/
  /* Configure I2Cx: Rise Time */
  MODIFY_REG(hi2c->Instance->TRISE, I2C_TRISE_TRISE, I2C_RISE_TIME(freqrange, hi2c->Init.ClockSpeed));
 80019ce:	687b      	ldr	r3, [r7, #4]
 80019d0:	681b      	ldr	r3, [r3, #0]
 80019d2:	6a1b      	ldr	r3, [r3, #32]
 80019d4:	f023 013f 	bic.w	r1, r3, #63	; 0x3f
 80019d8:	687b      	ldr	r3, [r7, #4]
 80019da:	685b      	ldr	r3, [r3, #4]
 80019dc:	4a6a      	ldr	r2, [pc, #424]	; (8001b88 <HAL_I2C_Init+0x274>)
 80019de:	4293      	cmp	r3, r2
 80019e0:	d802      	bhi.n	80019e8 <HAL_I2C_Init+0xd4>
 80019e2:	68bb      	ldr	r3, [r7, #8]
 80019e4:	3301      	adds	r3, #1
 80019e6:	e009      	b.n	80019fc <HAL_I2C_Init+0xe8>
 80019e8:	68bb      	ldr	r3, [r7, #8]
 80019ea:	f44f 7296 	mov.w	r2, #300	; 0x12c
 80019ee:	fb02 f303 	mul.w	r3, r2, r3
 80019f2:	4a69      	ldr	r2, [pc, #420]	; (8001b98 <HAL_I2C_Init+0x284>)
 80019f4:	fba2 2303 	umull	r2, r3, r2, r3
 80019f8:	099b      	lsrs	r3, r3, #6
 80019fa:	3301      	adds	r3, #1
 80019fc:	687a      	ldr	r2, [r7, #4]
 80019fe:	6812      	ldr	r2, [r2, #0]
 8001a00:	430b      	orrs	r3, r1
 8001a02:	6213      	str	r3, [r2, #32]

  /*---------------------------- I2Cx CCR Configuration ----------------------*/
  /* Configure I2Cx: Speed */
  MODIFY_REG(hi2c->Instance->CCR, (I2C_CCR_FS | I2C_CCR_DUTY | I2C_CCR_CCR), I2C_SPEED(pclk1, hi2c->Init.ClockSpeed, hi2c->Init.DutyCycle));
 8001a04:	687b      	ldr	r3, [r7, #4]
 8001a06:	681b      	ldr	r3, [r3, #0]
 8001a08:	69db      	ldr	r3, [r3, #28]
 8001a0a:	f423 424f 	bic.w	r2, r3, #52992	; 0xcf00
 8001a0e:	f022 02ff 	bic.w	r2, r2, #255	; 0xff
 8001a12:	687b      	ldr	r3, [r7, #4]
 8001a14:	685b      	ldr	r3, [r3, #4]
 8001a16:	495c      	ldr	r1, [pc, #368]	; (8001b88 <HAL_I2C_Init+0x274>)
 8001a18:	428b      	cmp	r3, r1
 8001a1a:	d819      	bhi.n	8001a50 <HAL_I2C_Init+0x13c>
 8001a1c:	68fb      	ldr	r3, [r7, #12]
 8001a1e:	1e59      	subs	r1, r3, #1
 8001a20:	687b      	ldr	r3, [r7, #4]
 8001a22:	685b      	ldr	r3, [r3, #4]
 8001a24:	005b      	lsls	r3, r3, #1
 8001a26:	fbb1 f3f3 	udiv	r3, r1, r3
 8001a2a:	1c59      	adds	r1, r3, #1
 8001a2c:	f640 73fc 	movw	r3, #4092	; 0xffc
 8001a30:	400b      	ands	r3, r1
 8001a32:	2b00      	cmp	r3, #0
 8001a34:	d00a      	beq.n	8001a4c <HAL_I2C_Init+0x138>
 8001a36:	68fb      	ldr	r3, [r7, #12]
 8001a38:	1e59      	subs	r1, r3, #1
 8001a3a:	687b      	ldr	r3, [r7, #4]
 8001a3c:	685b      	ldr	r3, [r3, #4]
 8001a3e:	005b      	lsls	r3, r3, #1
 8001a40:	fbb1 f3f3 	udiv	r3, r1, r3
 8001a44:	3301      	adds	r3, #1
 8001a46:	f3c3 030b 	ubfx	r3, r3, #0, #12
 8001a4a:	e051      	b.n	8001af0 <HAL_I2C_Init+0x1dc>
 8001a4c:	2304      	movs	r3, #4
 8001a4e:	e04f      	b.n	8001af0 <HAL_I2C_Init+0x1dc>
 8001a50:	687b      	ldr	r3, [r7, #4]
 8001a52:	689b      	ldr	r3, [r3, #8]
 8001a54:	2b00      	cmp	r3, #0
 8001a56:	d111      	bne.n	8001a7c <HAL_I2C_Init+0x168>
 8001a58:	68fb      	ldr	r3, [r7, #12]
 8001a5a:	1e58      	subs	r0, r3, #1
 8001a5c:	687b      	ldr	r3, [r7, #4]
 8001a5e:	6859      	ldr	r1, [r3, #4]
 8001a60:	460b      	mov	r3, r1
 8001a62:	005b      	lsls	r3, r3, #1
 8001a64:	440b      	add	r3, r1
 8001a66:	fbb0 f3f3 	udiv	r3, r0, r3
 8001a6a:	3301      	adds	r3, #1
 8001a6c:	f3c3 030b 	ubfx	r3, r3, #0, #12
 8001a70:	2b00      	cmp	r3, #0
 8001a72:	bf0c      	ite	eq
 8001a74:	2301      	moveq	r3, #1
 8001a76:	2300      	movne	r3, #0
 8001a78:	b2db      	uxtb	r3, r3
 8001a7a:	e012      	b.n	8001aa2 <HAL_I2C_Init+0x18e>
 8001a7c:	68fb      	ldr	r3, [r7, #12]
 8001a7e:	1e58      	subs	r0, r3, #1
 8001a80:	687b      	ldr	r3, [r7, #4]
 8001a82:	6859      	ldr	r1, [r3, #4]
 8001a84:	460b      	mov	r3, r1
 8001a86:	009b      	lsls	r3, r3, #2
 8001a88:	440b      	add	r3, r1
 8001a8a:	0099      	lsls	r1, r3, #2
 8001a8c:	440b      	add	r3, r1
 8001a8e:	fbb0 f3f3 	udiv	r3, r0, r3
 8001a92:	3301      	adds	r3, #1
 8001a94:	f3c3 030b 	ubfx	r3, r3, #0, #12
 8001a98:	2b00      	cmp	r3, #0
 8001a9a:	bf0c      	ite	eq
 8001a9c:	2301      	moveq	r3, #1
 8001a9e:	2300      	movne	r3, #0
 8001aa0:	b2db      	uxtb	r3, r3
 8001aa2:	2b00      	cmp	r3, #0
 8001aa4:	d001      	beq.n	8001aaa <HAL_I2C_Init+0x196>
 8001aa6:	2301      	movs	r3, #1
 8001aa8:	e022      	b.n	8001af0 <HAL_I2C_Init+0x1dc>
 8001aaa:	687b      	ldr	r3, [r7, #4]
 8001aac:	689b      	ldr	r3, [r3, #8]
 8001aae:	2b00      	cmp	r3, #0
 8001ab0:	d10e      	bne.n	8001ad0 <HAL_I2C_Init+0x1bc>
 8001ab2:	68fb      	ldr	r3, [r7, #12]
 8001ab4:	1e58      	subs	r0, r3, #1
 8001ab6:	687b      	ldr	r3, [r7, #4]
 8001ab8:	6859      	ldr	r1, [r3, #4]
 8001aba:	460b      	mov	r3, r1
 8001abc:	005b      	lsls	r3, r3, #1
 8001abe:	440b      	add	r3, r1
 8001ac0:	fbb0 f3f3 	udiv	r3, r0, r3
 8001ac4:	3301      	adds	r3, #1
 8001ac6:	f3c3 030b 	ubfx	r3, r3, #0, #12
 8001aca:	f443 4300 	orr.w	r3, r3, #32768	; 0x8000
 8001ace:	e00f      	b.n	8001af0 <HAL_I2C_Init+0x1dc>
 8001ad0:	68fb      	ldr	r3, [r7, #12]
 8001ad2:	1e58      	subs	r0, r3, #1
 8001ad4:	687b      	ldr	r3, [r7, #4]
 8001ad6:	6859      	ldr	r1, [r3, #4]
 8001ad8:	460b      	mov	r3, r1
 8001ada:	009b      	lsls	r3, r3, #2
 8001adc:	440b      	add	r3, r1
 8001ade:	0099      	lsls	r1, r3, #2
 8001ae0:	440b      	add	r3, r1
 8001ae2:	fbb0 f3f3 	udiv	r3, r0, r3
 8001ae6:	3301      	adds	r3, #1
 8001ae8:	f3c3 030b 	ubfx	r3, r3, #0, #12
 8001aec:	f443 4340 	orr.w	r3, r3, #49152	; 0xc000
 8001af0:	6879      	ldr	r1, [r7, #4]
 8001af2:	6809      	ldr	r1, [r1, #0]
 8001af4:	4313      	orrs	r3, r2
 8001af6:	61cb      	str	r3, [r1, #28]

  /*---------------------------- I2Cx CR1 Configuration ----------------------*/
  /* Configure I2Cx: Generalcall and NoStretch mode */
  MODIFY_REG(hi2c->Instance->CR1, (I2C_CR1_ENGC | I2C_CR1_NOSTRETCH), (hi2c->Init.GeneralCallMode | hi2c->Init.NoStretchMode));
 8001af8:	687b      	ldr	r3, [r7, #4]
 8001afa:	681b      	ldr	r3, [r3, #0]
 8001afc:	681b      	ldr	r3, [r3, #0]
 8001afe:	f023 01c0 	bic.w	r1, r3, #192	; 0xc0
 8001b02:	687b      	ldr	r3, [r7, #4]
 8001b04:	69da      	ldr	r2, [r3, #28]
 8001b06:	687b      	ldr	r3, [r7, #4]
 8001b08:	6a1b      	ldr	r3, [r3, #32]
 8001b0a:	431a      	orrs	r2, r3
 8001b0c:	687b      	ldr	r3, [r7, #4]
 8001b0e:	681b      	ldr	r3, [r3, #0]
 8001b10:	430a      	orrs	r2, r1
 8001b12:	601a      	str	r2, [r3, #0]

  /*---------------------------- I2Cx OAR1 Configuration ---------------------*/
  /* Configure I2Cx: Own Address1 and addressing mode */
  MODIFY_REG(hi2c->Instance->OAR1, (I2C_OAR1_ADDMODE | I2C_OAR1_ADD8_9 | I2C_OAR1_ADD1_7 | I2C_OAR1_ADD0), (hi2c->Init.AddressingMode | hi2c->Init.OwnAddress1));
 8001b14:	687b      	ldr	r3, [r7, #4]
 8001b16:	681b      	ldr	r3, [r3, #0]
 8001b18:	689b      	ldr	r3, [r3, #8]
 8001b1a:	f423 4303 	bic.w	r3, r3, #33536	; 0x8300
 8001b1e:	f023 03ff 	bic.w	r3, r3, #255	; 0xff
 8001b22:	687a      	ldr	r2, [r7, #4]
 8001b24:	6911      	ldr	r1, [r2, #16]
 8001b26:	687a      	ldr	r2, [r7, #4]
 8001b28:	68d2      	ldr	r2, [r2, #12]
 8001b2a:	4311      	orrs	r1, r2
 8001b2c:	687a      	ldr	r2, [r7, #4]
 8001b2e:	6812      	ldr	r2, [r2, #0]
 8001b30:	430b      	orrs	r3, r1
 8001b32:	6093      	str	r3, [r2, #8]

  /*---------------------------- I2Cx OAR2 Configuration ---------------------*/
  /* Configure I2Cx: Dual mode and Own Address2 */
  MODIFY_REG(hi2c->Instance->OAR2, (I2C_OAR2_ENDUAL | I2C_OAR2_ADD2), (hi2c->Init.DualAddressMode | hi2c->Init.OwnAddress2));
 8001b34:	687b      	ldr	r3, [r7, #4]
 8001b36:	681b      	ldr	r3, [r3, #0]
 8001b38:	68db      	ldr	r3, [r3, #12]
 8001b3a:	f023 01ff 	bic.w	r1, r3, #255	; 0xff
 8001b3e:	687b      	ldr	r3, [r7, #4]
 8001b40:	695a      	ldr	r2, [r3, #20]
 8001b42:	687b      	ldr	r3, [r7, #4]
 8001b44:	699b      	ldr	r3, [r3, #24]
 8001b46:	431a      	orrs	r2, r3
 8001b48:	687b      	ldr	r3, [r7, #4]
 8001b4a:	681b      	ldr	r3, [r3, #0]
 8001b4c:	430a      	orrs	r2, r1
 8001b4e:	60da      	str	r2, [r3, #12]

  /* Enable the selected I2C peripheral */
  __HAL_I2C_ENABLE(hi2c);
 8001b50:	687b      	ldr	r3, [r7, #4]
 8001b52:	681b      	ldr	r3, [r3, #0]
 8001b54:	681a      	ldr	r2, [r3, #0]
 8001b56:	687b      	ldr	r3, [r7, #4]
 8001b58:	681b      	ldr	r3, [r3, #0]
 8001b5a:	f042 0201 	orr.w	r2, r2, #1
 8001b5e:	601a      	str	r2, [r3, #0]

  hi2c->ErrorCode = HAL_I2C_ERROR_NONE;
 8001b60:	687b      	ldr	r3, [r7, #4]
 8001b62:	2200      	movs	r2, #0
 8001b64:	641a      	str	r2, [r3, #64]	; 0x40
  hi2c->State = HAL_I2C_STATE_READY;
 8001b66:	687b      	ldr	r3, [r7, #4]
 8001b68:	2220      	movs	r2, #32
 8001b6a:	f883 203d 	strb.w	r2, [r3, #61]	; 0x3d
  hi2c->PreviousState = I2C_STATE_NONE;
 8001b6e:	687b      	ldr	r3, [r7, #4]
 8001b70:	2200      	movs	r2, #0
 8001b72:	631a      	str	r2, [r3, #48]	; 0x30
  hi2c->Mode = HAL_I2C_MODE_NONE;
 8001b74:	687b      	ldr	r3, [r7, #4]
 8001b76:	2200      	movs	r2, #0
 8001b78:	f883 203e 	strb.w	r2, [r3, #62]	; 0x3e

  return HAL_OK;
 8001b7c:	2300      	movs	r3, #0
}
 8001b7e:	4618      	mov	r0, r3
 8001b80:	3710      	adds	r7, #16
 8001b82:	46bd      	mov	sp, r7
 8001b84:	bd80      	pop	{r7, pc}
 8001b86:	bf00      	nop
 8001b88:	000186a0 	.word	0x000186a0
 8001b8c:	001e847f 	.word	0x001e847f
 8001b90:	003d08ff 	.word	0x003d08ff
 8001b94:	431bde83 	.word	0x431bde83
 8001b98:	10624dd3 	.word	0x10624dd3

08001b9c <HAL_I2C_Mem_Write>:
  * @param  Size Amount of data to be sent
  * @param  Timeout Timeout duration
  * @retval HAL status
  */
HAL_StatusTypeDef HAL_I2C_Mem_Write(I2C_HandleTypeDef *hi2c, uint16_t DevAddress, uint16_t MemAddress, uint16_t MemAddSize, uint8_t *pData, uint16_t Size, uint32_t Timeout)
{
 8001b9c:	b580      	push	{r7, lr}
 8001b9e:	b088      	sub	sp, #32
 8001ba0:	af02      	add	r7, sp, #8
 8001ba2:	60f8      	str	r0, [r7, #12]
 8001ba4:	4608      	mov	r0, r1
 8001ba6:	4611      	mov	r1, r2
 8001ba8:	461a      	mov	r2, r3
 8001baa:	4603      	mov	r3, r0
 8001bac:	817b      	strh	r3, [r7, #10]
 8001bae:	460b      	mov	r3, r1
 8001bb0:	813b      	strh	r3, [r7, #8]
 8001bb2:	4613      	mov	r3, r2
 8001bb4:	80fb      	strh	r3, [r7, #6]
  /* Init tickstart for timeout management*/
  uint32_t tickstart = HAL_GetTick();
 8001bb6:	f7ff f9c3 	bl	8000f40 <HAL_GetTick>
 8001bba:	6178      	str	r0, [r7, #20]

  /* Check the parameters */
  assert_param(IS_I2C_MEMADD_SIZE(MemAddSize));

  if (hi2c->State == HAL_I2C_STATE_READY)
 8001bbc:	68fb      	ldr	r3, [r7, #12]
 8001bbe:	f893 303d 	ldrb.w	r3, [r3, #61]	; 0x3d
 8001bc2:	b2db      	uxtb	r3, r3
 8001bc4:	2b20      	cmp	r3, #32
 8001bc6:	f040 80d9 	bne.w	8001d7c <HAL_I2C_Mem_Write+0x1e0>
  {
    /* Wait until BUSY flag is reset */
    if (I2C_WaitOnFlagUntilTimeout(hi2c, I2C_FLAG_BUSY, SET, I2C_TIMEOUT_BUSY_FLAG, tickstart) != HAL_OK)
 8001bca:	697b      	ldr	r3, [r7, #20]
 8001bcc:	9300      	str	r3, [sp, #0]
 8001bce:	2319      	movs	r3, #25
 8001bd0:	2201      	movs	r2, #1
 8001bd2:	496d      	ldr	r1, [pc, #436]	; (8001d88 <HAL_I2C_Mem_Write+0x1ec>)
 8001bd4:	68f8      	ldr	r0, [r7, #12]
 8001bd6:	f000 f971 	bl	8001ebc <I2C_WaitOnFlagUntilTimeout>
 8001bda:	4603      	mov	r3, r0
 8001bdc:	2b00      	cmp	r3, #0
 8001bde:	d001      	beq.n	8001be4 <HAL_I2C_Mem_Write+0x48>
    {
      return HAL_BUSY;
 8001be0:	2302      	movs	r3, #2
 8001be2:	e0cc      	b.n	8001d7e <HAL_I2C_Mem_Write+0x1e2>
    }

    /* Process Locked */
    __HAL_LOCK(hi2c);
 8001be4:	68fb      	ldr	r3, [r7, #12]
 8001be6:	f893 303c 	ldrb.w	r3, [r3, #60]	; 0x3c
 8001bea:	2b01      	cmp	r3, #1
 8001bec:	d101      	bne.n	8001bf2 <HAL_I2C_Mem_Write+0x56>
 8001bee:	2302      	movs	r3, #2
 8001bf0:	e0c5      	b.n	8001d7e <HAL_I2C_Mem_Write+0x1e2>
 8001bf2:	68fb      	ldr	r3, [r7, #12]
 8001bf4:	2201      	movs	r2, #1
 8001bf6:	f883 203c 	strb.w	r2, [r3, #60]	; 0x3c

    /* Check if the I2C is already enabled */
    if ((hi2c->Instance->CR1 & I2C_CR1_PE) != I2C_CR1_PE)
 8001bfa:	68fb      	ldr	r3, [r7, #12]
 8001bfc:	681b      	ldr	r3, [r3, #0]
 8001bfe:	681b      	ldr	r3, [r3, #0]
 8001c00:	f003 0301 	and.w	r3, r3, #1
 8001c04:	2b01      	cmp	r3, #1
 8001c06:	d007      	beq.n	8001c18 <HAL_I2C_Mem_Write+0x7c>
    {
      /* Enable I2C peripheral */
      __HAL_I2C_ENABLE(hi2c);
 8001c08:	68fb      	ldr	r3, [r7, #12]
 8001c0a:	681b      	ldr	r3, [r3, #0]
 8001c0c:	681a      	ldr	r2, [r3, #0]
 8001c0e:	68fb      	ldr	r3, [r7, #12]
 8001c10:	681b      	ldr	r3, [r3, #0]
 8001c12:	f042 0201 	orr.w	r2, r2, #1
 8001c16:	601a      	str	r2, [r3, #0]
    }

    /* Disable Pos */
    CLEAR_BIT(hi2c->Instance->CR1, I2C_CR1_POS);
 8001c18:	68fb      	ldr	r3, [r7, #12]
 8001c1a:	681b      	ldr	r3, [r3, #0]
 8001c1c:	681a      	ldr	r2, [r3, #0]
 8001c1e:	68fb      	ldr	r3, [r7, #12]
 8001c20:	681b      	ldr	r3, [r3, #0]
 8001c22:	f422 6200 	bic.w	r2, r2, #2048	; 0x800
 8001c26:	601a      	str	r2, [r3, #0]

    hi2c->State     = HAL_I2C_STATE_BUSY_TX;
 8001c28:	68fb      	ldr	r3, [r7, #12]
 8001c2a:	2221      	movs	r2, #33	; 0x21
 8001c2c:	f883 203d 	strb.w	r2, [r3, #61]	; 0x3d
    hi2c->Mode      = HAL_I2C_MODE_MEM;
 8001c30:	68fb      	ldr	r3, [r7, #12]
 8001c32:	2240      	movs	r2, #64	; 0x40
 8001c34:	f883 203e 	strb.w	r2, [r3, #62]	; 0x3e
    hi2c->ErrorCode = HAL_I2C_ERROR_NONE;
 8001c38:	68fb      	ldr	r3, [r7, #12]
 8001c3a:	2200      	movs	r2, #0
 8001c3c:	641a      	str	r2, [r3, #64]	; 0x40

    /* Prepare transfer parameters */
    hi2c->pBuffPtr    = pData;
 8001c3e:	68fb      	ldr	r3, [r7, #12]
 8001c40:	6a3a      	ldr	r2, [r7, #32]
 8001c42:	625a      	str	r2, [r3, #36]	; 0x24
    hi2c->XferCount   = Size;
 8001c44:	68fb      	ldr	r3, [r7, #12]
 8001c46:	8cba      	ldrh	r2, [r7, #36]	; 0x24
 8001c48:	855a      	strh	r2, [r3, #42]	; 0x2a
    hi2c->XferSize    = hi2c->XferCount;
 8001c4a:	68fb      	ldr	r3, [r7, #12]
 8001c4c:	8d5b      	ldrh	r3, [r3, #42]	; 0x2a
 8001c4e:	b29a      	uxth	r2, r3
 8001c50:	68fb      	ldr	r3, [r7, #12]
 8001c52:	851a      	strh	r2, [r3, #40]	; 0x28
    hi2c->XferOptions = I2C_NO_OPTION_FRAME;
 8001c54:	68fb      	ldr	r3, [r7, #12]
 8001c56:	4a4d      	ldr	r2, [pc, #308]	; (8001d8c <HAL_I2C_Mem_Write+0x1f0>)
 8001c58:	62da      	str	r2, [r3, #44]	; 0x2c

    /* Send Slave Address and Memory Address */
    if (I2C_RequestMemoryWrite(hi2c, DevAddress, MemAddress, MemAddSize, Timeout, tickstart) != HAL_OK)
 8001c5a:	88f8      	ldrh	r0, [r7, #6]
 8001c5c:	893a      	ldrh	r2, [r7, #8]
 8001c5e:	8979      	ldrh	r1, [r7, #10]
 8001c60:	697b      	ldr	r3, [r7, #20]
 8001c62:	9301      	str	r3, [sp, #4]
 8001c64:	6abb      	ldr	r3, [r7, #40]	; 0x28
 8001c66:	9300      	str	r3, [sp, #0]
 8001c68:	4603      	mov	r3, r0
 8001c6a:	68f8      	ldr	r0, [r7, #12]
 8001c6c:	f000 f890 	bl	8001d90 <I2C_RequestMemoryWrite>
 8001c70:	4603      	mov	r3, r0
 8001c72:	2b00      	cmp	r3, #0
 8001c74:	d052      	beq.n	8001d1c <HAL_I2C_Mem_Write+0x180>
    {
      return HAL_ERROR;
 8001c76:	2301      	movs	r3, #1
 8001c78:	e081      	b.n	8001d7e <HAL_I2C_Mem_Write+0x1e2>
    }

    while (hi2c->XferSize > 0U)
    {
      /* Wait until TXE flag is set */
      if (I2C_WaitOnTXEFlagUntilTimeout(hi2c, Timeout, tickstart) != HAL_OK)
 8001c7a:	697a      	ldr	r2, [r7, #20]
 8001c7c:	6ab9      	ldr	r1, [r7, #40]	; 0x28
 8001c7e:	68f8      	ldr	r0, [r7, #12]
 8001c80:	f000 f9f2 	bl	8002068 <I2C_WaitOnTXEFlagUntilTimeout>
 8001c84:	4603      	mov	r3, r0
 8001c86:	2b00      	cmp	r3, #0
 8001c88:	d00d      	beq.n	8001ca6 <HAL_I2C_Mem_Write+0x10a>
      {
        if (hi2c->ErrorCode == HAL_I2C_ERROR_AF)
 8001c8a:	68fb      	ldr	r3, [r7, #12]
 8001c8c:	6c1b      	ldr	r3, [r3, #64]	; 0x40
 8001c8e:	2b04      	cmp	r3, #4
 8001c90:	d107      	bne.n	8001ca2 <HAL_I2C_Mem_Write+0x106>
        {
          /* Generate Stop */
          SET_BIT(hi2c->Instance->CR1, I2C_CR1_STOP);
 8001c92:	68fb      	ldr	r3, [r7, #12]
 8001c94:	681b      	ldr	r3, [r3, #0]
 8001c96:	681a      	ldr	r2, [r3, #0]
 8001c98:	68fb      	ldr	r3, [r7, #12]
 8001c9a:	681b      	ldr	r3, [r3, #0]
 8001c9c:	f442 7200 	orr.w	r2, r2, #512	; 0x200
 8001ca0:	601a      	str	r2, [r3, #0]
        }
        return HAL_ERROR;
 8001ca2:	2301      	movs	r3, #1
 8001ca4:	e06b      	b.n	8001d7e <HAL_I2C_Mem_Write+0x1e2>
      }

      /* Write data to DR */
      hi2c->Instance->DR = *hi2c->pBuffPtr;
 8001ca6:	68fb      	ldr	r3, [r7, #12]
 8001ca8:	6a5b      	ldr	r3, [r3, #36]	; 0x24
 8001caa:	781a      	ldrb	r2, [r3, #0]
 8001cac:	68fb      	ldr	r3, [r7, #12]
 8001cae:	681b      	ldr	r3, [r3, #0]
 8001cb0:	611a      	str	r2, [r3, #16]

      /* Increment Buffer pointer */
      hi2c->pBuffPtr++;
 8001cb2:	68fb      	ldr	r3, [r7, #12]
 8001cb4:	6a5b      	ldr	r3, [r3, #36]	; 0x24
 8001cb6:	1c5a      	adds	r2, r3, #1
 8001cb8:	68fb      	ldr	r3, [r7, #12]
 8001cba:	625a      	str	r2, [r3, #36]	; 0x24

      /* Update counter */
      hi2c->XferSize--;
 8001cbc:	68fb      	ldr	r3, [r7, #12]
 8001cbe:	8d1b      	ldrh	r3, [r3, #40]	; 0x28
 8001cc0:	3b01      	subs	r3, #1
 8001cc2:	b29a      	uxth	r2, r3
 8001cc4:	68fb      	ldr	r3, [r7, #12]
 8001cc6:	851a      	strh	r2, [r3, #40]	; 0x28
      hi2c->XferCount--;
 8001cc8:	68fb      	ldr	r3, [r7, #12]
 8001cca:	8d5b      	ldrh	r3, [r3, #42]	; 0x2a
 8001ccc:	b29b      	uxth	r3, r3
 8001cce:	3b01      	subs	r3, #1
 8001cd0:	b29a      	uxth	r2, r3
 8001cd2:	68fb      	ldr	r3, [r7, #12]
 8001cd4:	855a      	strh	r2, [r3, #42]	; 0x2a

      if ((__HAL_I2C_GET_FLAG(hi2c, I2C_FLAG_BTF) == SET) && (hi2c->XferSize != 0U))
 8001cd6:	68fb      	ldr	r3, [r7, #12]
 8001cd8:	681b      	ldr	r3, [r3, #0]
 8001cda:	695b      	ldr	r3, [r3, #20]
 8001cdc:	f003 0304 	and.w	r3, r3, #4
 8001ce0:	2b04      	cmp	r3, #4
 8001ce2:	d11b      	bne.n	8001d1c <HAL_I2C_Mem_Write+0x180>
 8001ce4:	68fb      	ldr	r3, [r7, #12]
 8001ce6:	8d1b      	ldrh	r3, [r3, #40]	; 0x28
 8001ce8:	2b00      	cmp	r3, #0
 8001cea:	d017      	beq.n	8001d1c <HAL_I2C_Mem_Write+0x180>
      {
        /* Write data to DR */
        hi2c->Instance->DR = *hi2c->pBuffPtr;
 8001cec:	68fb      	ldr	r3, [r7, #12]
 8001cee:	6a5b      	ldr	r3, [r3, #36]	; 0x24
 8001cf0:	781a      	ldrb	r2, [r3, #0]
 8001cf2:	68fb      	ldr	r3, [r7, #12]
 8001cf4:	681b      	ldr	r3, [r3, #0]
 8001cf6:	611a      	str	r2, [r3, #16]

        /* Increment Buffer pointer */
        hi2c->pBuffPtr++;
 8001cf8:	68fb      	ldr	r3, [r7, #12]
 8001cfa:	6a5b      	ldr	r3, [r3, #36]	; 0x24
 8001cfc:	1c5a      	adds	r2, r3, #1
 8001cfe:	68fb      	ldr	r3, [r7, #12]
 8001d00:	625a      	str	r2, [r3, #36]	; 0x24

        /* Update counter */
        hi2c->XferSize--;
 8001d02:	68fb      	ldr	r3, [r7, #12]
 8001d04:	8d1b      	ldrh	r3, [r3, #40]	; 0x28
 8001d06:	3b01      	subs	r3, #1
 8001d08:	b29a      	uxth	r2, r3
 8001d0a:	68fb      	ldr	r3, [r7, #12]
 8001d0c:	851a      	strh	r2, [r3, #40]	; 0x28
        hi2c->XferCount--;
 8001d0e:	68fb      	ldr	r3, [r7, #12]
 8001d10:	8d5b      	ldrh	r3, [r3, #42]	; 0x2a
 8001d12:	b29b      	uxth	r3, r3
 8001d14:	3b01      	subs	r3, #1
 8001d16:	b29a      	uxth	r2, r3
 8001d18:	68fb      	ldr	r3, [r7, #12]
 8001d1a:	855a      	strh	r2, [r3, #42]	; 0x2a
    while (hi2c->XferSize > 0U)
 8001d1c:	68fb      	ldr	r3, [r7, #12]
 8001d1e:	8d1b      	ldrh	r3, [r3, #40]	; 0x28
 8001d20:	2b00      	cmp	r3, #0
 8001d22:	d1aa      	bne.n	8001c7a <HAL_I2C_Mem_Write+0xde>
      }
    }

    /* Wait until BTF flag is set */
    if (I2C_WaitOnBTFFlagUntilTimeout(hi2c, Timeout, tickstart) != HAL_OK)
 8001d24:	697a      	ldr	r2, [r7, #20]
 8001d26:	6ab9      	ldr	r1, [r7, #40]	; 0x28
 8001d28:	68f8      	ldr	r0, [r7, #12]
 8001d2a:	f000 f9de 	bl	80020ea <I2C_WaitOnBTFFlagUntilTimeout>
 8001d2e:	4603      	mov	r3, r0
 8001d30:	2b00      	cmp	r3, #0
 8001d32:	d00d      	beq.n	8001d50 <HAL_I2C_Mem_Write+0x1b4>
    {
      if (hi2c->ErrorCode == HAL_I2C_ERROR_AF)
 8001d34:	68fb      	ldr	r3, [r7, #12]
 8001d36:	6c1b      	ldr	r3, [r3, #64]	; 0x40
 8001d38:	2b04      	cmp	r3, #4
 8001d3a:	d107      	bne.n	8001d4c <HAL_I2C_Mem_Write+0x1b0>
      {
        /* Generate Stop */
        SET_BIT(hi2c->Instance->CR1, I2C_CR1_STOP);
 8001d3c:	68fb      	ldr	r3, [r7, #12]
 8001d3e:	681b      	ldr	r3, [r3, #0]
 8001d40:	681a      	ldr	r2, [r3, #0]
 8001d42:	68fb      	ldr	r3, [r7, #12]
 8001d44:	681b      	ldr	r3, [r3, #0]
 8001d46:	f442 7200 	orr.w	r2, r2, #512	; 0x200
 8001d4a:	601a      	str	r2, [r3, #0]
      }
      return HAL_ERROR;
 8001d4c:	2301      	movs	r3, #1
 8001d4e:	e016      	b.n	8001d7e <HAL_I2C_Mem_Write+0x1e2>
    }

    /* Generate Stop */
    SET_BIT(hi2c->Instance->CR1, I2C_CR1_STOP);
 8001d50:	68fb      	ldr	r3, [r7, #12]
 8001d52:	681b      	ldr	r3, [r3, #0]
 8001d54:	681a      	ldr	r2, [r3, #0]
 8001d56:	68fb      	ldr	r3, [r7, #12]
 8001d58:	681b      	ldr	r3, [r3, #0]
 8001d5a:	f442 7200 	orr.w	r2, r2, #512	; 0x200
 8001d5e:	601a      	str	r2, [r3, #0]

    hi2c->State = HAL_I2C_STATE_READY;
 8001d60:	68fb      	ldr	r3, [r7, #12]
 8001d62:	2220      	movs	r2, #32
 8001d64:	f883 203d 	strb.w	r2, [r3, #61]	; 0x3d
    hi2c->Mode = HAL_I2C_MODE_NONE;
 8001d68:	68fb      	ldr	r3, [r7, #12]
 8001d6a:	2200      	movs	r2, #0
 8001d6c:	f883 203e 	strb.w	r2, [r3, #62]	; 0x3e

    /* Process Unlocked */
    __HAL_UNLOCK(hi2c);
 8001d70:	68fb      	ldr	r3, [r7, #12]
 8001d72:	2200      	movs	r2, #0
 8001d74:	f883 203c 	strb.w	r2, [r3, #60]	; 0x3c

    return HAL_OK;
 8001d78:	2300      	movs	r3, #0
 8001d7a:	e000      	b.n	8001d7e <HAL_I2C_Mem_Write+0x1e2>
  }
  else
  {
    return HAL_BUSY;
 8001d7c:	2302      	movs	r3, #2
  }
}
 8001d7e:	4618      	mov	r0, r3
 8001d80:	3718      	adds	r7, #24
 8001d82:	46bd      	mov	sp, r7
 8001d84:	bd80      	pop	{r7, pc}
 8001d86:	bf00      	nop
 8001d88:	00100002 	.word	0x00100002
 8001d8c:	ffff0000 	.word	0xffff0000

08001d90 <I2C_RequestMemoryWrite>:
  * @param  Timeout Timeout duration
  * @param  Tickstart Tick start value
  * @retval HAL status
  */
static HAL_StatusTypeDef I2C_RequestMemoryWrite(I2C_HandleTypeDef *hi2c, uint16_t DevAddress, uint16_t MemAddress, uint16_t MemAddSize, uint32_t Timeout, uint32_t Tickstart)
{
 8001d90:	b580      	push	{r7, lr}
 8001d92:	b088      	sub	sp, #32
 8001d94:	af02      	add	r7, sp, #8
 8001d96:	60f8      	str	r0, [r7, #12]
 8001d98:	4608      	mov	r0, r1
 8001d9a:	4611      	mov	r1, r2
 8001d9c:	461a      	mov	r2, r3
 8001d9e:	4603      	mov	r3, r0
 8001da0:	817b      	strh	r3, [r7, #10]
 8001da2:	460b      	mov	r3, r1
 8001da4:	813b      	strh	r3, [r7, #8]
 8001da6:	4613      	mov	r3, r2
 8001da8:	80fb      	strh	r3, [r7, #6]
  /* Generate Start */
  SET_BIT(hi2c->Instance->CR1, I2C_CR1_START);
 8001daa:	68fb      	ldr	r3, [r7, #12]
 8001dac:	681b      	ldr	r3, [r3, #0]
 8001dae:	681a      	ldr	r2, [r3, #0]
 8001db0:	68fb      	ldr	r3, [r7, #12]
 8001db2:	681b      	ldr	r3, [r3, #0]
 8001db4:	f442 7280 	orr.w	r2, r2, #256	; 0x100
 8001db8:	601a      	str	r2, [r3, #0]

  /* Wait until SB flag is set */
  if (I2C_WaitOnFlagUntilTimeout(hi2c, I2C_FLAG_SB, RESET, Timeout, Tickstart) != HAL_OK)
 8001dba:	6a7b      	ldr	r3, [r7, #36]	; 0x24
 8001dbc:	9300      	str	r3, [sp, #0]
 8001dbe:	6a3b      	ldr	r3, [r7, #32]
 8001dc0:	2200      	movs	r2, #0
 8001dc2:	f04f 1101 	mov.w	r1, #65537	; 0x10001
 8001dc6:	68f8      	ldr	r0, [r7, #12]
 8001dc8:	f000 f878 	bl	8001ebc <I2C_WaitOnFlagUntilTimeout>
 8001dcc:	4603      	mov	r3, r0
 8001dce:	2b00      	cmp	r3, #0
 8001dd0:	d00d      	beq.n	8001dee <I2C_RequestMemoryWrite+0x5e>
  {
    if (READ_BIT(hi2c->Instance->CR1, I2C_CR1_START) == I2C_CR1_START)
 8001dd2:	68fb      	ldr	r3, [r7, #12]
 8001dd4:	681b      	ldr	r3, [r3, #0]
 8001dd6:	681b      	ldr	r3, [r3, #0]
 8001dd8:	f403 7380 	and.w	r3, r3, #256	; 0x100
 8001ddc:	f5b3 7f80 	cmp.w	r3, #256	; 0x100
 8001de0:	d103      	bne.n	8001dea <I2C_RequestMemoryWrite+0x5a>
    {
      hi2c->ErrorCode = HAL_I2C_WRONG_START;
 8001de2:	68fb      	ldr	r3, [r7, #12]
 8001de4:	f44f 7200 	mov.w	r2, #512	; 0x200
 8001de8:	641a      	str	r2, [r3, #64]	; 0x40
    }
    return HAL_TIMEOUT;
 8001dea:	2303      	movs	r3, #3
 8001dec:	e05f      	b.n	8001eae <I2C_RequestMemoryWrite+0x11e>
  }

  /* Send slave address */
  hi2c->Instance->DR = I2C_7BIT_ADD_WRITE(DevAddress);
 8001dee:	897b      	ldrh	r3, [r7, #10]
 8001df0:	b2db      	uxtb	r3, r3
 8001df2:	461a      	mov	r2, r3
 8001df4:	68fb      	ldr	r3, [r7, #12]
 8001df6:	681b      	ldr	r3, [r3, #0]
 8001df8:	f002 02fe 	and.w	r2, r2, #254	; 0xfe
 8001dfc:	611a      	str	r2, [r3, #16]

  /* Wait until ADDR flag is set */
  if (I2C_WaitOnMasterAddressFlagUntilTimeout(hi2c, I2C_FLAG_ADDR, Timeout, Tickstart) != HAL_OK)
 8001dfe:	6a7b      	ldr	r3, [r7, #36]	; 0x24
 8001e00:	6a3a      	ldr	r2, [r7, #32]
 8001e02:	492d      	ldr	r1, [pc, #180]	; (8001eb8 <I2C_RequestMemoryWrite+0x128>)
 8001e04:	68f8      	ldr	r0, [r7, #12]
 8001e06:	f000 f8b0 	bl	8001f6a <I2C_WaitOnMasterAddressFlagUntilTimeout>
 8001e0a:	4603      	mov	r3, r0
 8001e0c:	2b00      	cmp	r3, #0
 8001e0e:	d001      	beq.n	8001e14 <I2C_RequestMemoryWrite+0x84>
  {
    return HAL_ERROR;
 8001e10:	2301      	movs	r3, #1
 8001e12:	e04c      	b.n	8001eae <I2C_RequestMemoryWrite+0x11e>
  }

  /* Clear ADDR flag */
  __HAL_I2C_CLEAR_ADDRFLAG(hi2c);
 8001e14:	2300      	movs	r3, #0
 8001e16:	617b      	str	r3, [r7, #20]
 8001e18:	68fb      	ldr	r3, [r7, #12]
 8001e1a:	681b      	ldr	r3, [r3, #0]
 8001e1c:	695b      	ldr	r3, [r3, #20]
 8001e1e:	617b      	str	r3, [r7, #20]
 8001e20:	68fb      	ldr	r3, [r7, #12]
 8001e22:	681b      	ldr	r3, [r3, #0]
 8001e24:	699b      	ldr	r3, [r3, #24]
 8001e26:	617b      	str	r3, [r7, #20]
 8001e28:	697b      	ldr	r3, [r7, #20]

  /* Wait until TXE flag is set */
  if (I2C_WaitOnTXEFlagUntilTimeout(hi2c, Timeout, Tickstart) != HAL_OK)
 8001e2a:	6a7a      	ldr	r2, [r7, #36]	; 0x24
 8001e2c:	6a39      	ldr	r1, [r7, #32]
 8001e2e:	68f8      	ldr	r0, [r7, #12]
 8001e30:	f000 f91a 	bl	8002068 <I2C_WaitOnTXEFlagUntilTimeout>
 8001e34:	4603      	mov	r3, r0
 8001e36:	2b00      	cmp	r3, #0
 8001e38:	d00d      	beq.n	8001e56 <I2C_RequestMemoryWrite+0xc6>
  {
    if (hi2c->ErrorCode == HAL_I2C_ERROR_AF)
 8001e3a:	68fb      	ldr	r3, [r7, #12]
 8001e3c:	6c1b      	ldr	r3, [r3, #64]	; 0x40
 8001e3e:	2b04      	cmp	r3, #4
 8001e40:	d107      	bne.n	8001e52 <I2C_RequestMemoryWrite+0xc2>
    {
      /* Generate Stop */
      SET_BIT(hi2c->Instance->CR1, I2C_CR1_STOP);
 8001e42:	68fb      	ldr	r3, [r7, #12]
 8001e44:	681b      	ldr	r3, [r3, #0]
 8001e46:	681a      	ldr	r2, [r3, #0]
 8001e48:	68fb      	ldr	r3, [r7, #12]
 8001e4a:	681b      	ldr	r3, [r3, #0]
 8001e4c:	f442 7200 	orr.w	r2, r2, #512	; 0x200
 8001e50:	601a      	str	r2, [r3, #0]
    }
    return HAL_ERROR;
 8001e52:	2301      	movs	r3, #1
 8001e54:	e02b      	b.n	8001eae <I2C_RequestMemoryWrite+0x11e>
  }

  /* If Memory address size is 8Bit */
  if (MemAddSize == I2C_MEMADD_SIZE_8BIT)
 8001e56:	88fb      	ldrh	r3, [r7, #6]
 8001e58:	2b01      	cmp	r3, #1
 8001e5a:	d105      	bne.n	8001e68 <I2C_RequestMemoryWrite+0xd8>
  {
    /* Send Memory Address */
    hi2c->Instance->DR = I2C_MEM_ADD_LSB(MemAddress);
 8001e5c:	893b      	ldrh	r3, [r7, #8]
 8001e5e:	b2da      	uxtb	r2, r3
 8001e60:	68fb      	ldr	r3, [r7, #12]
 8001e62:	681b      	ldr	r3, [r3, #0]
 8001e64:	611a      	str	r2, [r3, #16]
 8001e66:	e021      	b.n	8001eac <I2C_RequestMemoryWrite+0x11c>
  }
  /* If Memory address size is 16Bit */
  else
  {
    /* Send MSB of Memory Address */
    hi2c->Instance->DR = I2C_MEM_ADD_MSB(MemAddress);
 8001e68:	893b      	ldrh	r3, [r7, #8]
 8001e6a:	0a1b      	lsrs	r3, r3, #8
 8001e6c:	b29b      	uxth	r3, r3
 8001e6e:	b2da      	uxtb	r2, r3
 8001e70:	68fb      	ldr	r3, [r7, #12]
 8001e72:	681b      	ldr	r3, [r3, #0]
 8001e74:	611a      	str	r2, [r3, #16]

    /* Wait until TXE flag is set */
    if (I2C_WaitOnTXEFlagUntilTimeout(hi2c, Timeout, Tickstart) != HAL_OK)
 8001e76:	6a7a      	ldr	r2, [r7, #36]	; 0x24
 8001e78:	6a39      	ldr	r1, [r7, #32]
 8001e7a:	68f8      	ldr	r0, [r7, #12]
 8001e7c:	f000 f8f4 	bl	8002068 <I2C_WaitOnTXEFlagUntilTimeout>
 8001e80:	4603      	mov	r3, r0
 8001e82:	2b00      	cmp	r3, #0
 8001e84:	d00d      	beq.n	8001ea2 <I2C_RequestMemoryWrite+0x112>
    {
      if (hi2c->ErrorCode == HAL_I2C_ERROR_AF)
 8001e86:	68fb      	ldr	r3, [r7, #12]
 8001e88:	6c1b      	ldr	r3, [r3, #64]	; 0x40
 8001e8a:	2b04      	cmp	r3, #4
 8001e8c:	d107      	bne.n	8001e9e <I2C_RequestMemoryWrite+0x10e>
      {
        /* Generate Stop */
        SET_BIT(hi2c->Instance->CR1, I2C_CR1_STOP);
 8001e8e:	68fb      	ldr	r3, [r7, #12]
 8001e90:	681b      	ldr	r3, [r3, #0]
 8001e92:	681a      	ldr	r2, [r3, #0]
 8001e94:	68fb      	ldr	r3, [r7, #12]
 8001e96:	681b      	ldr	r3, [r3, #0]
 8001e98:	f442 7200 	orr.w	r2, r2, #512	; 0x200
 8001e9c:	601a      	str	r2, [r3, #0]
      }
      return HAL_ERROR;
 8001e9e:	2301      	movs	r3, #1
 8001ea0:	e005      	b.n	8001eae <I2C_RequestMemoryWrite+0x11e>
    }

    /* Send LSB of Memory Address */
    hi2c->Instance->DR = I2C_MEM_ADD_LSB(MemAddress);
 8001ea2:	893b      	ldrh	r3, [r7, #8]
 8001ea4:	b2da      	uxtb	r2, r3
 8001ea6:	68fb      	ldr	r3, [r7, #12]
 8001ea8:	681b      	ldr	r3, [r3, #0]
 8001eaa:	611a      	str	r2, [r3, #16]
  }

  return HAL_OK;
 8001eac:	2300      	movs	r3, #0
}
 8001eae:	4618      	mov	r0, r3
 8001eb0:	3718      	adds	r7, #24
 8001eb2:	46bd      	mov	sp, r7
 8001eb4:	bd80      	pop	{r7, pc}
 8001eb6:	bf00      	nop
 8001eb8:	00010002 	.word	0x00010002

08001ebc <I2C_WaitOnFlagUntilTimeout>:
  * @param  Timeout Timeout duration
  * @param  Tickstart Tick start value
  * @retval HAL status
  */
static HAL_StatusTypeDef I2C_WaitOnFlagUntilTimeout(I2C_HandleTypeDef *hi2c, uint32_t Flag, FlagStatus Status, uint32_t Timeout, uint32_t Tickstart)
{
 8001ebc:	b580      	push	{r7, lr}
 8001ebe:	b084      	sub	sp, #16
 8001ec0:	af00      	add	r7, sp, #0
 8001ec2:	60f8      	str	r0, [r7, #12]
 8001ec4:	60b9      	str	r1, [r7, #8]
 8001ec6:	603b      	str	r3, [r7, #0]
 8001ec8:	4613      	mov	r3, r2
 8001eca:	71fb      	strb	r3, [r7, #7]
  /* Wait until flag is set */
  while (__HAL_I2C_GET_FLAG(hi2c, Flag) == Status)
 8001ecc:	e025      	b.n	8001f1a <I2C_WaitOnFlagUntilTimeout+0x5e>
  {
    /* Check for the Timeout */
    if (Timeout != HAL_MAX_DELAY)
 8001ece:	683b      	ldr	r3, [r7, #0]
 8001ed0:	f1b3 3fff 	cmp.w	r3, #4294967295	; 0xffffffff
 8001ed4:	d021      	beq.n	8001f1a <I2C_WaitOnFlagUntilTimeout+0x5e>
    {
      if (((HAL_GetTick() - Tickstart) > Timeout) || (Timeout == 0U))
 8001ed6:	f7ff f833 	bl	8000f40 <HAL_GetTick>
 8001eda:	4602      	mov	r2, r0
 8001edc:	69bb      	ldr	r3, [r7, #24]
 8001ede:	1ad3      	subs	r3, r2, r3
 8001ee0:	683a      	ldr	r2, [r7, #0]
 8001ee2:	429a      	cmp	r2, r3
 8001ee4:	d302      	bcc.n	8001eec <I2C_WaitOnFlagUntilTimeout+0x30>
 8001ee6:	683b      	ldr	r3, [r7, #0]
 8001ee8:	2b00      	cmp	r3, #0
 8001eea:	d116      	bne.n	8001f1a <I2C_WaitOnFlagUntilTimeout+0x5e>
      {
        hi2c->PreviousState     = I2C_STATE_NONE;
 8001eec:	68fb      	ldr	r3, [r7, #12]
 8001eee:	2200      	movs	r2, #0
 8001ef0:	631a      	str	r2, [r3, #48]	; 0x30
        hi2c->State             = HAL_I2C_STATE_READY;
 8001ef2:	68fb      	ldr	r3, [r7, #12]
 8001ef4:	2220      	movs	r2, #32
 8001ef6:	f883 203d 	strb.w	r2, [r3, #61]	; 0x3d
        hi2c->Mode              = HAL_I2C_MODE_NONE;
 8001efa:	68fb      	ldr	r3, [r7, #12]
 8001efc:	2200      	movs	r2, #0
 8001efe:	f883 203e 	strb.w	r2, [r3, #62]	; 0x3e
        hi2c->ErrorCode         |= HAL_I2C_ERROR_TIMEOUT;
 8001f02:	68fb      	ldr	r3, [r7, #12]
 8001f04:	6c1b      	ldr	r3, [r3, #64]	; 0x40
 8001f06:	f043 0220 	orr.w	r2, r3, #32
 8001f0a:	68fb      	ldr	r3, [r7, #12]
 8001f0c:	641a      	str	r2, [r3, #64]	; 0x40

        /* Process Unlocked */
        __HAL_UNLOCK(hi2c);
 8001f0e:	68fb      	ldr	r3, [r7, #12]
 8001f10:	2200      	movs	r2, #0
 8001f12:	f883 203c 	strb.w	r2, [r3, #60]	; 0x3c

        return HAL_ERROR;
 8001f16:	2301      	movs	r3, #1
 8001f18:	e023      	b.n	8001f62 <I2C_WaitOnFlagUntilTimeout+0xa6>
  while (__HAL_I2C_GET_FLAG(hi2c, Flag) == Status)
 8001f1a:	68bb      	ldr	r3, [r7, #8]
 8001f1c:	0c1b      	lsrs	r3, r3, #16
 8001f1e:	b2db      	uxtb	r3, r3
 8001f20:	2b01      	cmp	r3, #1
 8001f22:	d10d      	bne.n	8001f40 <I2C_WaitOnFlagUntilTimeout+0x84>
 8001f24:	68fb      	ldr	r3, [r7, #12]
 8001f26:	681b      	ldr	r3, [r3, #0]
 8001f28:	695b      	ldr	r3, [r3, #20]
 8001f2a:	43da      	mvns	r2, r3
